:100000000C9406080C9418080C9418080C94180802
:100010000C9418080C947A2A0C9418080C94D10E9D
:100020000C9418080C9418080C94EA200C945E2A7E
:100030000C946C2A0C94C420FBC70000F9C7000084
:100040000C94382AF5C70000F3C70000F1C7000080
:10005000EFC700000C94D20EEBC70000E9C7000008
:10006000E7C70000E5C70000E62FF72F903009F43E
:100070009395E5B8C4B8B6EFB0937A00A5E0A09325
:100080007B00A8E0A093810010928000AFEFA093C6
:100090008500A0938400A6E0A093360010928B0008
:1000A00010928A00B3E0AFE3A91B51E0392F33303F
:1000B0002AF0A05CBC4F53953350F9CFB093890020
:1000C000A0938800A0917A00A4FFFCCFB6EBB09378
:1000D0007A00A2E0A0936F00A9E0A093810062E003
:1000E000A0E0A0937B00A1E0A09353008895E5B821
:1000F000C4B884FF1AC0A8E10000AA95F1F7EF93F5
:10010000FF93E7B1F8B1A4E0C2FCA2E0C0FCA1E01B
:10011000BF2FBA2BAE2BB8B904B9A7B9E7B9F8B954
:10012000FF91EF910BC00C947300ACE10000000054
:10013000AA95F1F725B9E5B8000004B9A0918400AB
:10014000A0918500B0918900A395AB1760F7A091AD
:100150007A00A4FFF3CFB6EBB0937A006A9571F7FB
:100160006091780070917900308186FD630F619312
:10017000308186FD731F80FF7193652F4A9579F753
:1001800010926F0010928100B6E0B0937A0008954B
:10019000DA01D101C8011008407E01013E01013E93
:1001A00001013E01017E404018000720080808F8C0
:1001B0000000002060A03FA06020020202FF0202B7
:1001C000021010101F0000000708FFDBBDB5B5CB03
:1001D000FF0708FFBB9DADADB3FF0708FFFFF7FBAF
:1001E00081FFFF10100508F87838588809100308B7
:1001F0001C3E7F0D080710FF818181F1E1C1FF40A6
:1002000040404743410D080110FFFF11080310F162
:10021000E1C14743410E0008202121122060E0E0A7
:10022000E0FEFE0402010001037F7F21C2C4C4C0BE
:100230004094840007030102040E080210FEFE7FB2
:100240007F00000000110005202060E0E0E00201D6
:10025000000103C2C4C4C04007030102040104102A
:100260000102044865206F9F9A619B9892706F937A
:10027000619D2100B903870358032E030703E4029D
:10028000C302A40288020000140029003E005300AB
:10029000690080009700AE00C600DF00F800120180
:1002A0002D01490165018201A001BE01DE01FF01AE
:1002B0002102440268028E02B502DE020903350300
:1002C00064039403C803FE0337047304B404F904FD
:1002D00043059305EA054906B3062907AE07480812
:1002E000FF08DE09FD0A930C480F991B000000006F
:1002F0000000000000000000000000001E2121217D
:100300001200807F0000007E4A4A4A34000000004C
:100310000000FC402010080402010000000101015F
:10032000010101010101010101017F0488D0E0F018
:10033000F8000000000000000000000000000000C5
:10034000000000FC94948400000102FC0000000006
:1003500000000000000000001E21212112E0C080EA
:100360004020100F000000C020202040000000FCB2
:1003700000009E9E040303030302000000202023CC
:10038000242525232020203F00007B7B214284045C
:1003900080C000000000000000000000000000001D
:1003A000FC94948400040607070708F0000000008E
:1003B000000000000000000000803F2121120C001E
:1003C000000000FF000000F0084848C80000FE00E0
:1003D00000E7818181C1E1F181818101002020203C
:1003E0002121212020203F0000F34040404143478D
:1003F00040407FC00000000000000000000000003E
:100400000000489494946400000000FF0000000085
:100410000000000000000000000000003F21211249
:100420000C0000FF000000F0084848D00000000069
:100430000000FEFE04040404040404070008080885
:1004400009090908087F3E1C08087F7F202020201A
:10045000202020E00000000000000000000000005C
:100460000000000048949494640000FF0000000025
:1004700000000000000000FF003C0A090A3C0022C6
:1004800031292926000082868E9EBEFEFEBEDEEF4A
:10049000F6FAFEFEFAF2E2C2820000000808080442
:1004A000027984A4A46800FF00000000000000009E
:1004B000000000000000000000000000000000FF3D
:1004C0000000F0282428F0001008FC0000000000C4
:1004D000000000000000003C0A090A3C00FF000088
:1004E000000000000000000000000000000000000C
:1004F000040C1C3C7CFF7C3C1C0C04000000000035
:10050000009EA1A9A99A804323130B0703FF0303AD
:100510000303030300000000000000000000007857
:100520008484844800FF000000000000000000F008
:100530000804E2110909090909090909091121C277
:10054000040810E00000000102040407000000009D
:10055000008040201088442310080403000000009D
:1005600000000000000000FE0100FC02010000008D
:100570000000000000000000000000000000007902
:1005800049497900000000000000000040F0101010
:100590001010F040000101010101010040FCF8F0E1
:1005A000E040FC40000703010000070040FC40E081
:1005B000F0F8FC40000700000103070040FCFC00CD
:1005C00000FCFC4000070700000707007884820257
:1005D00082847800060407000704060000FC00007F
:1005E00000F01000100F02040207040008080808B9
:1005F0000808F840020202020202030040F808085C
:1006000008080808000302020202020240404040BB
:10061000404040400000000000000000C00000809A
:1006200000008000010202010202010200800000BD
:10063000800000C0020102020102020100F804026F
:1006400022548800101F1002020100000000000068
:10065000000000000000000000000000000000009A
:10066000000000000000000000000000000000008A
:10067000000000000000000000000000000000007A
:100680000000000000000000000000000000F8046E
:1006900002FE02000C06050404070C0002FE020024
:1006A00002FE02000407040404170C0002FE02F01C
:1006B00002FE02000407040704170C000000E0100B
:1006C00008F808000C06050404070C00804028F810
:1006D000284080000102141F1402010008F80800DD
:1006E00008F808000407040404170C0008F808C000
:1006F00008F808000407040704170C00001018FC91
:10070000FC1810000001010101010100001018FC9B
:10071000181000000000000100000000000000FCB4
:1007200000000000000101010101000040404040C4
:1007300050E0400000000000010000002070A820F0
:10074000202020000000000000000000E000000069
:100750000000000001010101010101002070A8203A
:1007600020A87020000000000000000000C0F0FC85
:10077000F0C0000000000000000000000C3CFCFC89
:10078000FC3C0C0000000000000000000000000025
:10079000000000000000000000000000000000FE5B
:1007A000000000000000000D0000000000160E0018
:1007B00000160E0000000000000000000010FC10F9
:1007C00010FC10000001070101070100001824FEC1
:1007D000448800000003040F040300000C12924C34
:1007E0002010080002010006090906008C5222525E
:1007F0008C40C00001020404040102000000001645
:100800000E00000000000000000000000000F008E2
:1008100004020000000001020408000000000204BD
:1008200008F0000000000804020100004850E0FC4D
:10083000E05048000201000700010200404040F87B
:1008400040404000000000030000000000000000E5
:1008500000000000000000160E0000004040404074
:1008600040404000000000000000000000000000C8
:1008700000000000000000060600000000008040AC
:10088000201008000201000000000000F80402022D
:100890000204F8000102040404020100000804FE3E
:1008A000020000000004040704040000080402829F
:1008B000422418000406050404040600060202028D
:1008C000122AC6000102040404020100C0A09E8096
:1008D00080FC800000000000040704003E120A0AA9
:1008E0000A12E6000102040404020100F844221284
:1008F0001224C00001020404040201000E02C262BC
:10090000321A0E0000000700000000008854222266
:100910002254880001020404040201003844828247
:100920004224F80000020404040201000000001840
:10093000180000000000000606000000000000187B
:1009400018000000000000160E0000000040A0107B
:10095000080402000000000102040800002020201A
:100960002020200000010101010101000002040813
:1009700010A04000000804020100000018040282D8
:10098000422418000000000D00000000F804D252BC
:10099000E204F800010205050405040200F0080461
:1009A00002FE0200040705010507040002FE2222E0
:1009B000225488000407040404020100F80402021F
:1009C00002048E00010204040402010002FE02027D
:1009D0000204F800040704040402010002FE2222BB
:1009E00072020E00040704040404070002FE22221F
:1009F00072020E000407040400000000F80402C2A2
:100A00004244DE00010204040201070002FE22202B
:100A100022FE02000407040004070400000202FE94
:100A200002020000000404070404000000000002A9
:100A300002FE0200000304040403000002FE6290B0
:100A400008040200040704000106040002FE02007C
:100A500000000000040704040404070002FE38E05C
:100A600038FE0200040704000407040002FE1A60B6
:100A700082FE02000407040005070400F8040202D5
:100A80000204F800010204040402010002FE4242D2
:100A9000422418000407040000000000F8040202C9
:100AA0008204F800010204040405020402FE42C2AA
:100AB00042241800040704000106040088142222BE
:100AC00022448E0001020404040201000E0202FE10
:100AD00002020E00000404070404000002FE0200EB
:100AE00002FE0200000304040403000002FE820070
:100AF00082FE0200000003060300000002FE02F076
:100B000002FE0200000107030701000002DE72205E
:100B100072DE02000407040004070400027EC280A3
:100B2000C27E020000000407040000000E82422280
:100B3000120A0600070404040404070000FE02026F
:100B40000200000000070404040000000810204018
:100B5000800000000000000000010200000002020E
:100B600002FE000000000404040700001008040254
:100B70000408100000000000000000000000000059
:100B80000000000008080808080808000000000E1F
:100B90001600000000000000000000009048282817
:100BA0004890E000010204040402070002FE10085D
:100BB0000810E0000407020404020100E010080825
:100BC000081038000102040404020100E0100808C3
:100BD00010FE02000102040402070400E05048482D
:100BE00048506000010204040402010020F824229D
:100BF000020C00000407040400000000E0100808D4
:100C000010F80800000912120907000002FE10087F
:100C100008F000000407040004070400001016F6A2
:100C20000000000000040407040400000000101687
:100C300016F00000000C1010100F000002FEC02083
:100C40001008180004070401020404000000020256
:100C5000FE000000000004040704040008F808F087
:100C600008F00000040700070007040008F820103F
:100C700008F000000407040004070400E01008085E
:100C80000810E000010204040402010008F8100842
:100C90000810E000101F120404020100E010080810
:100CA00010F8080001020404121F100008F82010B8
:100CB000080830000407040000000000102848481D
:100CC0004890380001020404040201000808FE08EC
:100CD00008000000000003040404020008F80800F3
:100CE00008F80800000304040207040008F888005C
:100CF00088F80800000003060300000008F808C098
:100D000008F80800000306030603000008B8E040E6
:100D1000E0B80800040700000007040008F8080015
:100D200008F8080000091212110F0000180888487E
:100D300028180800060504040404060040B01C023C
:100D4000020000000001070808000000000000FE8B
:100D5000000000000000001F000000000000020270
:100D60001CB0400000000808070100000C0202044B
:100D7000080804020000000000000000C020100865
:100D80001020C000010101010101010002FE222228
:100D900022428600040704040402010002FE02024B
:100DA00002020E0004070400000000000AFA48E8EE
:100DB0000A1A0000040704040404070002DE60FEAF
:100DC00060DE020004070007000704008E04020230
:100DD00022548800010204040402010002FEC070D3
:100DE0001CFE0200040705000407040004FCC264A2
:100DF00032FC0400040704000407040000F00804A7
:100E000002FE0200040700000407040002FE0202C2
:100E100002FE02000407040004070400027E828030
:100E200042FE0200000204040403000070888AFEEF
:100E30008A8870000000040704000000027E82809F
:100E400042FE0200000000000407040002FE02F05F
:100E500002FE020004070407040704000E02FE124B
:100E60000808F000040407040402010002FE12084E
:100E7000F000FE0004070404030007008E04027261
:100E80002224F800010204040402010002FE20FCF6
:100E90000202FC000407000304040300182442C2F9
:100EA00042FE02000406010004070400F048242466
:100EB00022428000010204040402010008F84848AC
:100EC0004850A000040704040402010008F80808C0
:100ED000083800000407040000000000E0524A48FF
:100EE0004A526000010204040402010008B8C0F87C
:100EF000C0B80800040700070007040038100848BD
:100F000048A81000010204040402010008F880C08F
:100F100060F80800040705000407040008F882C40C
:100F200062F80800040705000407040008F840A060
:100F300010081800040700000106040000C020107B
:100F400008F80800040700000407040008F860C05F
:100F500060F80800040704010407040008F848408A
:100F600048F80800040704000407040008F808080B
:100F700008F808000407040004070400380808F80B
:100F800008083800000004070400000008F8080002
:100F900088F80800000001010407040008F808C0F0
:100FA00008F8080004070407040704003808F84894
:100FB0002020C000000407040402010008F84820B3
:100FC000C000F800040704040300070008F84820E4
:100FD000204080000407040404020100381008E8DF
:100FE0004850E000010204040402010008F840F047
:100FF0000808F000040700030404030060900808D8
:1010000008F80800000405030507040011241FBEAA
:10101000CFEFD8E0DEBFCDBF21E0A0E0B1E001C05E
:101020001D92A63CB207E1F70E9402370C94FE3EE7
:101030000C9400005D98559A80FD599A80FF59984C
:10104000519A539A5A9867FD5B9A67FF5B985A9A30
:101050005A9866FD5B9A66FF5B985A9A5A9865FDA6
:101060005B9A65FF5B985A9A5A9864FD5B9A64FF95
:101070005B985A9A5A9863FD5B9A63FF5B985A9AF9
:101080005A9862FD5B9A62FF5B985A9A5A9861FD82
:101090005B9A61FF5B985A9A5A9860FD5B9A60FF71
:1010A0005B985A9A5D9A5A985B98089560934601A6
:1010B0008093040186958093AD01660F660F660FDD
:1010C00060930F0108951092AD0160E080E0EECFD3
:1010D000089581E08093AD0160E082E0E7CF08955C
:1010E00082E08093AD0160E084E0E0CF089583E08A
:1010F0008093AD0160E086E0D9CF089580914601EC
:10110000809301018091AD01809303010895809146
:10111000030160910101880FC9CF0895CF93C82FB3
:10112000692F81E087DF6C2F81E084DFCF91089504
:10113000682F80E07FCF08958EEAFADF85EAF8CF46
:101140000895CF93DF93C0E080E1F2DF80E0F0DF2D
:101150008C2F806BEDDFD4E860E081E06BDFD15055
:10116000D9F7CF5FC83081F7AEDFDF91CF91089517
:1011700058985A985B985D98509A529A539A559AF3
:101180000CD45D9A559A5998519A84E10DD4589A85
:1011900084E10AD48EEACCDF82EECADF82EAC8DFBD
:1011A00080EAC6DF80ECC4DF8FE2C2DF84E2C0DF0A
:1011B00081E8BEDF82E693E00E94C03E8F73B8DF15
:1011C00080E4B6DF84EAB4DF86EAB2DFBADF8FEA12
:1011D000AFDF60E080E06ACF08950895582F28E0DF
:1011E00030E090E841E080E0642F652309F0892B2E
:1011F000440F96952150310921153105A9F708951D
:10120000A0E0B0E0E6E0F9E00C943E3EEC01C02E38
:10121000D12CC601860F911D813891050CF06BC051
:10122000F12CE40EF11C81E4E816F1040CF063C02B
:10123000142F16951695169581E0E81AF10833E0FB
:10124000F594E7943A95E1F7822F8270582E21FFAA
:101250000DC0F701FF27E11BF109EC9DC001ED9DD9
:10126000900DFC9D900D1124C80FD91F87E08E159D
:1012700010F497E0E92EF62EF2948FE0F8228F2DED
:101280008061F82E6F70462E2170322E460181E06B
:10129000881A9108E11650F1812F806B49DF8F2D5C
:1012A00047DF842D45DFA12CB12C3E01680C791C51
:1012B000A01698F4332021F0F301EA19FB0903C0CA
:1012C000FE01EA0DFB1D8491511088DF682F81E03B
:1012D000B1DE8FEFA81AB80AEBCF552019F0CC1960
:1012E000DD0902C0CC0DDD1D1F5FD4CF809104014C
:1012F0008F70806B1DDFCDB7DEB7E1E10C945A3EF5
:10130000EF920F93282F8F7330E6839FC001112433
:1013100084519D4F26FF02C038E001C038E430936D
:10132000100127FF03C01092000108C020E22093A3
:101330000001209110012D5E2093100140E2E42E67
:1013400008E120E0409100016091100159DF0F9108
:10135000EF900895EF920F93262FFC016491319640
:101360004491319604913196E49050910001450FDB
:1013700050911001650F049643DF0F91EF9008958F
:1013800060E0E8CF0895EF920F93909146019F5F40
:101390009093460140910401440F440F440F20E113
:1013A000829FC001112450E1E52E08E020E0609109
:1013B0000F0184579A4F24DF80910F01885F80933B
:1013C0000F01A8950F91EF9008958F5CDCCF0895E1
:1013D00080E2D9CF0895A1E0B0E0E1EFF9E00C940C
:1013E0004D3E18162CF48983F3DF89818150F9CFA3
:1013F0002196E2E00C94693E9091460180E1891BC0
:10140000EACF0895A1E0B0E0E8E0FAE00C944D3EA8
:101410008983F2DF9091AD019F5F9093AD01698167
:10142000943038F083E08093AD0181E080934901EE
:1014300002C0109249018091AD01880F37DE2196DC
:10144000E2E00C94693EDEDF07C408953CDED4DFA1
:101450003ACE08953EDED0DF3CCE08958DE393CFA3
:101460000895CF93DF93EC018991882311F08BDFEE
:10147000FBCFDF91CF910895CF93DF93EC01FE0175
:101480008491982F9F7719F07EDF2196F8CFDF9116
:10149000CF910895CF93DF93EC01CE010E94C03E1F
:1014A000982F9F7719F06FDF2196F7CFDF91CF91BB
:1014B0000895EF920F93FC0104913196E490029607
:1014C0009FDE0F91EF9008950F9384EA91E0E2DFA1
:1014D000409191014D3F64F460917F0170918001D2
:1014E000809181019091820103E026E4F9D002C04D
:1014F0008FE349DF0F910895909124019F709230FE
:1015000071F4A1DF82E890E0C5DFE0914701F0913E
:10151000480122E044E06FEF84819581D0C10895B5
:1015200097FF09C08F939F938DE22DDF9F918F913D
:10153000909581959F4F6CE271E04AE050E00E94E7
:101540009D3E8FCFEDDF01C0EBDF42CFEF92FF92E8
:101550000F931F93182F062FF42E86E891E09ADF41
:10156000EE24E0914701F09148018685E81611F4D8
:10157000812F09C08485E81611F4802F04C0858569
:10158000E81611F48F2DFFDEE3948E2D833049F79A
:101590001F910F91FF90EF900895EF92FF920F939C
:1015A0001F93182F062FF42E80E04DDF11DF8CE8FB
:1015B00091E070DF4F2D602F812FC8DF1F910F91B9
:1015C000FF90EF900895682F80E092E0662309F481
:1015D00091E0623009F481E008950F93082FEEEA5C
:1015E000F1E0880F880FE80FF11D60817181828121
:1015F0009381643671058105910570F42091020193
:1016000027FD0AC0802FDFDF692F0E9437266EEF8B
:1016100023E044E054D104C04FEF04E024E060D064
:10162000D7DE0F910895863058F4E1EAF1E0E80F33
:10163000F11DE80FF11D8081918163E04BD1C8CE8F
:1016400008951F93182F80917A01882319F0C0DE26
:1016500080E099DE3EDD8DE791E01CDF812F8295F1
:101660008F70E1DF812F8F70DEDF1F9108958091F1
:10167000110182958F7018D08091110183701AD05A
:1016800080911101DECFE5E9F1E0E80FF11D089549
:10169000CF93F9DF9081C681C91710F405D001C03E
:1016A00011D096DECF910895EEDF8F9380818DDE8D
:1016B0008F9100C08F9385E491E0ECDE8F91E3DFA2
:1016C000868183CEE0DF8F9386817FDE8F9100C09D
:1016D0008F9381E491E0DEDE8F91D5DF808175CE3E
:1016E000AEE0B0E0E6E7FBE00C943D3E342E222E67
:1016F0006B017C01102F1F7080E389838A838B83A9
:101700008C838D838E83F7FE0BC08DE23CDEF094DC
:10171000E094D094C094C11CD11CE11CF11C04C005
:1017200005FF02C08BE22FDE133009F4B6C014307F
:1017300009F4BAC0153051F0163081F01730B1F00D
:1017400074E6872E912CA12CB12C17C060EA862E4E
:1017500066E8962EAA24A394B12C0FC050E4852EDF
:1017600052E4952E5FE0A52EB12C07C040E8842EF0
:1017700046E9942E48E9A42EB12C3AE0432E512C90
:10178000612C712CC814D904EA04FB0470F0C70161
:10179000B6016B5F7F4F8F4F9F4FA30192010E9455
:1017A000553D69017A013394EDCF81E1830D9BEAC8
:1017B000899F912C1124969486E08319899F812C0E
:1017C00011248694982D990F980D882E891A5E0100
:1017D00087E0A80EB11C2AE0A501C701B6010E944E
:1017E0007C3EF50101900020E9F7CF0101977C01D3
:1017F000EA18FB08AE2C6701DD24282D30E02C5FB1
:101800003F4F2C153D051CF4939493E0890E892DD0
:1018100090E0865C9F4F0E94C03EB82E04FF04C03B
:10182000A11610F41E1901C010E0AE2CA818A10ECC
:101830001A1424F08EE2A7DD182D1E19811002C0A3
:1018400028EFA22E912C012F10E0C00ED11EEA2C01
:10185000FF24E7FCF094E92DF0E0EC15FD05A4F47D
:101860003696E01BF10B81E090E08C0F9D1FE80F96
:10187000F91F808188DD9394892D90E08E159F0556
:1018800051F78EE280DDE7CFBB2011F08B2D7BDDA1
:10189000222089F0822D77DD0EC098EE892E93E00C
:1018A000992EA12CB12C69CF80E1882E87E2982E49
:1018B000A12CB12C62CF2E96E2E10C94593E0F93ED
:1018C000362FBC0180E090E0022F242F432F08DF49
:1018D0000F9108950F93062FBC0180E090E026E55C
:1018E0004DEFFEDE0F9108950F93042F28E440E0A2
:1018F000F7DE8AE748DD6CDD0F910895E82FF0E010
:10190000EE0FFF1FE057FE4F85919491209100014B
:10191000420F20911001620F20E0CBCD0895CF93AC
:10192000DF93C82FD62FE0914701F091480148E19D
:101930006EE18685E3DFE0914701F09148014D2F8C
:101940006C2F8485DBDFE0914701F091480140E096
:101950006EE18585D3DFDF91CF910895089503D09F
:1019600002D001D000D000D003D002D001D000D0EE
:1019700000D003D002D001D000D000D0A89503D071
:1019800002D001D000D000D003D002D001D000D0CE
:1019900000D003D002D001D000D000D003D002D0BC
:1019A00001D000D00000089590E0893C28F0885CC8
:1019B00048EC849FC0011124009709F408952091F8
:1019C0008100277019F0DADF0197F6CF8130910599
:1019D00019F002973EE303C037E180E090E02091E8
:1019E000B200230F2093B30042E04093700027E041
:1019F00023BF889526E023BF10927000A895DCCF06
:101A00008F9384E0D1DF07C08F9382E0CDDF03C0E6
:101A10008F9381E0C9DF8F911F93182F106410936B
:101A20007C00E12FE07880913701E81759F0E093CE
:101A30003701AEDF8EE980937A0083E083BF88951B
:101A400082E083BF20E030E0A901E0E01FC08EE922
:101A500080937A0083E083BF889582E083BF6091A2
:101A6000780070917900260F371F411D511DE43019
:101A700061F480913901803041F084E020303807F2
:101A800020F417FD02C01068CACFEF5F80913601C5
:101A9000E817E8F260913A0170913B0117FF04C02A
:101AA000609138017091390180E090E00E94133D0F
:101AB0002FEF33E040E050E00E94553DB901CA01EC
:101AC0002091360130E040E050E00E94553DC901D0
:101AD0001F9108959B01281B390B50F0C9010895EF
:101AE000BC0180913A0190913B016817790718F485
:101AF000861B970B089580E090E0089589B183FBE1
:101B0000882780F94999826090911C01943050F0A7
:101B10009EE0909318018093190110921D0191E0AD
:101B200090931C01E0911C01AE2FB0E0A85EBE4F67
:101B30009C91981721F181111AC0A3E0AE0FA370F8
:101B400020911D01923041F4B0E0A85EBE4F9C91FF
:101B5000933069F42F5F09C0913049F4B0E0A85E7A
:101B6000BE4F9C91933019F4215020931D01EF5FDB
:101B7000E370E0931C01F0E0E85EFE4F808380910B
:101B80001D0187FD819580931E010895A0E0B0E0BE
:101B9000ECECFDE00C94463ED82EC92E539851989B
:101BA000F2DE10921D01E0911C01F0E03196E3702D
:101BB000FF27E85EFE4F80EF8083C5E6D9E19EDF18
:101BC0004F9905C0E4DED150D1F7C150B9F7CD2D02
:101BD000DC2DF12C05E510E0BB24B394D7FD36C015
:101BE00082E3E82E8BDFD3DEEA94E1F7000F4F9B10
:101BF0000F5F0F730F3349F4111103C0CD2DDC2D8E
:101C000014E01F5F183C28F021C0011102C011111F
:101C10001DC0A8951C161D062CF42A97209711F4B8
:101C2000CFEFDFEF80911E01882339F0F39480918C
:101C30007B01811102C0B0927B0184E18F1570F6A7
:101C400080911D01811102C0F12CC8CF812FCDB729
:101C5000DEB7E9E00C94623ECF9350DAC82F809152
:101C60004901882301F1813051F4C33041F46FE020
:101C700086E01CDA8BE287DB6FE086E017DA80E42F
:101C80009FE184DF811104C080911E018111F7CF93
:101C9000C33041F480914901813021F460E086E055
:101CA00005DAAADB34DACF9108958BE893E00E943D
:101CB000C03E382F8CE893E00E94C03E20913E0148
:101CC000230F30913F01381F2093210130932201CF
:101CD00083E0283E380720F0C901885E934002C0A7
:101CE00080E090E062E370E00E942E3D683008F0F2
:101CF00067E0E4E7F2E0E60FF11DE60FF11D459124
:101D000055912591359162E3681B421B530B649FEB
:101D1000C001659F900D1124499662E370E00E9416
:101D20002E3D620F731F70937E0160937D018DE8DD
:101D300093E00E94C03E992787FD909560913E01F7
:101D400070913F01860F971F90933901809338015E
:101D500090937901809378010895CF93DF9324E1E4
:101D600030E0B9010E942E3DDC01E6E8F2E0E60F2A
:101D7000F71FE60FF71FC591D591459155914C1B63
:101D80005D0B4A9FC0014B9F900D5A9F900D1124EF
:101D9000B9010E942E3D6C0F7D1FCB01DF91CF91C9
:101DA000089518951895CF93DF9330912301A09152
:101DB0004701B0914801E5E9F1E080E090E0831748
:101DC000C0F441911C962C911C97421731F0EC0104
:101DD000CB56DE4F4E81421302C00196F0CFFC017C
:101DE000EE0FFF1FEF55FE4F20813181293E33401A
:101DF00008F084E1DF91CF910895109225011092AF
:101E00002301109273011092590110922401109233
:101E1000450110927A0110925E0110925F011092BA
:101E2000600110928F0182E0809390011092020174
:101E300010928E0110928D011092830110928401F4
:101E4000109285011092860181EF8093920108958E
:101E500073D95E9887DD80E090E098CE0895A1E088
:101E6000B0E0E5E3FFE00C944B3E17B818B8E82F5C
:101E7000F0E0E35AFD4F949195B9262F281BE20F0D
:101E8000F11D27FDFA95E491E92BE4B96983C4DDDE
:101E90008C016981862FC0DD20913A0130913B0190
:101EA00036952795A90143505109B801625E7F4FCD
:101EB0004617570778F4255E3F4F0217130750F473
:101EC000BC01625E7F4F4617570720F441E082173E
:101ED000930708F040E014B8842F2196E4E00C94B6
:101EE000673ECF9361E080E0BADFC82F62E080E018
:101EF000B6DFC80F62E081E0B2DF8C0FCF910895AA
:101F0000A3E1B0E0E6E8FFE00C943D3EB82E10926D
:101F10002501807FA9F4E5DF833009F0BCC311D926
:101F20008DE892E0B7DAD5D88FE32DDA80ED97E02F
:101F30002DDE8B30C0F405D983E191E0ABDAABC381
:101F400006E910E0FED880EE91E0A4DACADF833023
:101F500021F41F5F143010F006C010E088E224DD89
:101F6000015081F763C0B5D80E944B218FEC90E0FF
:101F700091DA60E085E693E00E94CD3E60E086E67F
:101F800093E00E94CD3E60E084E693E00E94CD3E67
:101F900060E082E00E9437266C019A83898361E0C9
:101FA00082E00E9437267C019C838B8360E081E085
:101FB0000E9437268C019E838D8323E040E26EEFE2
:101FC000C6017DDC23E040E26EEFC70178DC23E050
:101FD00044E06EEFC80173DC2AE5C216D10424F098
:101FE00024E130E03A832983698185E693E00E9409
:101FF000CD3E8AE5E816F10424F024E130E03C838C
:102000002B836B8186E693E00E94CD3E0A35110555
:1020100024F024E130E03E832D836D8184E693E05B
:102020000E94CD3E82E08093490116DE9B2D9F7079
:102030009F87913009F04DC001E010E058EB252E4C
:1020400052ED352E57E4452E512C62E0A62E78E055
:10205000972EECE06E2EF4ECCF2EF6E3DF2EE12C83
:10206000F12C39C0839423E0281558F1F3D9EED927
:1020700084E589D9C8015FDAABD9E1E0BE1230C08E
:1020800082E091E007DA64E080913E0190913F01A7
:1020900021DC1FD88DEF90E0FDD980917D019091DA
:1020A0007E0149DA8EEB8093360117B818B814B860
:1020B00015B888EE93E06ADDF4E0BF1699F28B3034
:1020C00088F288EE93E062DD0F5F1F4F0830110544
:1020D00011F418E71CC1812CB02EB0E27B2EC6CFC4
:1020E000F2E0BF1241C020913A0130913B01A8E5D6
:1020F000BBE10E94933DA70196010E94773D81E0DC
:1021000085B985E084B980E0288B398B4A8B5B8B5D
:1021100077DC288939894A895B89821B930B9A83EA
:10212000898381E184B980E0288B398B4A8B5B8B72
:1021300067DC288939894A895B89821B930B9C83D8
:102140008B8384E085B984E184B981E0288B398B65
:102150004A8B5B8B55DC28893989821B930B9E83C4
:102160008D8387EE90E0B7C093E0B91229C0A5B87F
:10217000EAE0E4B980E044DC20913A0130913B018F
:102180003695279538872F83821B930B9A838983F3
:10219000F2E2F4B980E034DC2F813885821B930BA6
:1021A0009C838B8395B828E224B981E029DC2F81B8
:1021B0003885821B930B9E838D8389ED90E08BC0C5
:1021C00084E0B81207C083E892E064D98ADE811106
:1021D0005FC287C095E0B91213C015B8A4B880E0FB
:1021E0000FDC9A83898394B881E00ADC9C838B831B
:1021F00074B882E005DC9E838D8389EF90E06BC02C
:10220000E6E0BE1227C0A4B8A5B880E0F9DB2091B3
:102210003A0130913B01821B930B9A83898394B8D6
:1022200095B881E0EDDB20913A0130913B01821BB2
:10223000930B9C838B8374B875B882E0E1DB2091AB
:102240003A0130913B01821B930B9E838D8385EF76
:1022500090E041C0F7E0BF1240C020913A013091B8
:102260003B01A8E5BBE10E94933DA20191010E94C0
:10227000553DA5B883E084B980E0288B398B4A8B23
:102280005B8BBEDB288939894A895B89821B930B6A
:102290009A83898395B864B881E0288B398B4A8BFF
:1022A0005B8BAEDB288939894A895B89821B930B5A
:1022B0009C838B8375B890E394B982E0288B398B2B
:1022C0004A8B5B8B9DDB28893989821B930B9E830C
:1022D0008D8383ED90E0DED804C0E1E0BE1609F402
:1022E000E4CE0E94690889819A811AD971D88B81BC
:1022F0009C8116D96DD88D819E8112D9D6CEAAD84F
:1023000083E892E0C7D884E64FDB115019F0E9DD8D
:102310008111F5CF0E94A10888EC90E0BBD823E0A2
:1023200044E06FEF80913C0190913D01C8DA0E943A
:10233000690881EC90E0AED823E044E06FEF809133
:10234000430190914401BBDA82E08093490184DC2F
:10235000109225010E94A1088DEB90E09BD860E0CF
:1023600082E00E94F51D8090870190908801A090E6
:102370008901B0908A019C868B8661E082E00E9490
:10238000F51DC0908701D0908801E0908901F09000
:102390008A01DE86CD8660E081E00E94F51D009115
:1023A0008701109188011E830D8362E080E00E9406
:1023B000F51D80918701909188019C838B8362E059
:1023C00081E00E94F51D80918701909188019A8794
:1023D000898761E080E00E94F51D809187019091DE
:1023E00088019A838983EF85E13021F020914201B1
:1023F000223021F4029698878F8304C098878F83B8
:1024000010924201C401A0D8C6019ED8B801882705
:1024100077FD8095982F03E026E444EF61D96E01A3
:10242000FFE0CF0ED11CFE013196819191910A9768
:10243000853B9105E8F4EC15FD05B9F7A4E8EA2E13
:10244000A3E0FA2E8E010F5F1F4FF80160810E5F2F
:102450001F4F6E5EC7010E94CD3EFFEFEF1AFF0ACD
:102460000C151D0591F70E94690889EC91E012D8BE
:1024700082E080934901F0DB0E94AC332F8521304C
:1024800029F080914201823009F0E9C00E94A10840
:1024900080E00E94E5098FE691E00E944A0A82E00E
:1024A0000E94E50982E390E00E944A0AE0E4BE2E21
:1024B00010E0FAE0CF2ED12CE12CF12C9EDC109212
:1024C000250160E082E00E94F51D0091910160917C
:1024D0007F01709180018091810190918201073F7D
:1024E00044F4A70196010E94553D0F5FB901CA014E
:1024F000F6CF0093910160937F01709380018093E8
:10250000810190938201073F09F092C0DC01CB0169
:1025100080569109A109B10980399545A105B105F8
:1025200008F086C06091930170919401CB018B56A5
:102530009F4F8B32914008F07BC01F5F153008F42D
:1025400078C08BE893E00E94DB3E0E94A1088BE2FA
:1025500090E00E944A0A80919301909194010E9418
:10256000900AA3DB18B881E087B980E284B982E0E1
:1025700053DA853D9340DCF714B81092390110927C
:10258000380182E049DA8C018091780190917901DB
:10259000909339018093380182E03EDA7C01EE0CA1
:1025A000FF1C109239011092380182E035DAC09098
:1025B0007801D0907901D0923901C0923801080F8A
:1025C000191F0E191F090E94690884E290E00E94F9
:1025D0004A0A8DE893E00E94C03E73E0B72EB80E21
:1025E0009601D8010E94A23D9701442737FD4095EE
:1025F000542F0E94773DB20E6B2D8DE893E00E9420
:10260000CD3E8B2D992787FD90950E94900A4DDB3A
:1026100082E08093490120DB1092420184E893E03C
:102620000E94C03E682F87E893E00E94CD3E17C00D
:1026300010E00E94690860917F0170918001809193
:1026400081019091820104E026E44091910148D8F3
:102650000E94FC0988E2A8D9BA9409F02FCF8EE134
:102660008093360180E00E94BC360E94A10883E17D
:1026700091E00E944A0A0E94690885E792E00E9460
:102680004A0A1092250182E080934901E5DA03C0ED
:1026900052E0852E26CE6396E2E10C94593E80915D
:1026A000420181110DC084E893E00E94C03E61E0C8
:1026B000680F87E893E00E94CD3E81E0809342015D
:1026C0000895CF92DF92FF920F931F93CF93DF93E2
:1026D0001F92CDB7DEB7E82FF0E0E05AFD4FE4914E
:1026E000E8B9E7B915B8E62FF0E0E35AFD4FE491F9
:1026F000E4B908E813E1FE2EFF0C862F698380D928
:102700006C01F4B869818017910710F48C01F5CF42
:102710000097E1F00E9477088FE491E00E944A0A56
:10272000D60120EA36E841E050E00E94A83D28E9C1
:1027300037EB40E050E00E94553DDA01C90122E04C
:1027400041E467EFBCD817B818B814B80F90DF9100
:10275000CF911F910F91FF90DF90CF9008950F932D
:102760001F93CF93DF9385E057D985E051D98C0132
:10277000EC01CC0FDD1FCC0FDD1F2A96109240011B
:10278000C43883E0D80750F48DEB91E00E944A0AE8
:102790000E94FC0981E08093400123C08CEC91E011
:1027A0000E944A0A62E0CE0195D80E94E8090A3FD9
:1027B00086E0180780F40333164050F48DEE92E063
:1027C0000E944A0A0E94FC098DECEED841DB09C048
:1027D00084EF92E002C089EC91E00E944A0A0E94D4
:1027E000FC09DF91CF911F910F9108959C01261B49
:1027F000370BB0E0A0E0B9016A0F711D672F772792
:10280000A20F260F371FBA016B0F711D672F772795
:10281000B40FFB01EE0FFF1F4E0F5F1F6B3E28F43E
:102820008217930740F7CA01089580E090E0089569
:10283000ADE1B0E0EEE1F4E10C943D3E982E862E41
:10284000242EA895E62FF0E0E35AFD4F24912E8721
:10285000220F288F339634913B83E42FF0E0E35A24
:10286000FD4F44914C83F42EFF0C3396B490E82F27
:10287000F0E0E35AFD4F54915983550F5F8733962B
:10288000349045B96E85462B4A8744B937B838B875
:10289000882DBED8AC018C818F2985B9EE84EF28B4
:1028A000E4B8882D498F5D8FB3D87E8574B9882DA3
:1028B000AFD83C0114B861D815B88A8584B9882D81
:1028C000A7D8498D5D8DBA0105D96C019B8197B957
:1028D00018B8A981BC81AB2BAD83A5B9A4B9892D4A
:1028E00097D8FED88C0115B848D8E981E5B9892D6B
:1028F0008FD8F6D82C01F981F4B9892D89D8F0D870
:10290000A82E292FB201C8012A8FE4D82A8D498D1B
:102910005D8D803231E0930730F460E2C61661E0ED
:10292000D60608F48AC5C40CD51C840F951FC8169A
:10293000D90610F02A0102C06A2C722E209159018A
:102940008091730190E0820F911D02974CF021302D
:1029500009F073C5909156018091700198136DC56F
:1029600079817F29798784E74816510408F478C172
:10297000C201880F991F44966816790608F070C145
:1029800037B838B8E4B8882D3FD86C01822D44D8C8
:102990008C01F5B8882D38D89601295A3D4F18B8C2
:1029A0002817390708F0A1C09B8197B9A985A4B958
:1029B000A5B9822D29D888349F4028F085E08093DE
:1029C000250182E204C085E08093250184E28093A2
:1029D0002401D0924F01C0924E01B801C60185D8A2
:1029E00090935501809354019601A0E1B7E20E94B3
:1029F000933D20911F013091200140E050E00E9462
:102A0000553D3093510120935001888D8F2984B911
:102A100015B837B838B8822D0E940C0D8C01882D5E
:102A20000E94040DB80161D8909353018093520124
:102A3000209124012F70243061F540915001509174
:102A400051016091540170915501D0DE0097E9F079
:102A5000F4B8EB813E2A37B8882D0E94040D8C0112
:102A600017B89C01A0E1B7E20E94933D2091430179
:102A70003091440140E050E00E94553DA901B80169
:102A80008091520190915301B1DE90934F01809358
:102A90004E01809124018F70843009F4C6C418B8A7
:102AA000EB80EB28E7B8F981F4B92D8125B9892DA0
:102AB0000E94080D6C0114D88C01882D0E940C0D09
:102AC000E0902601F0902701BC01C6010ED89C01C0
:102AD000D7010E94933D980140E050E00E94553D8F
:102AE00030934F0120934E01A0C43B8137B94985F3
:102AF00044B945B9892D0E94040D6C01822D0E94B4
:102B00000C0D8C01598155B9892D0E94040D895AEB
:102B10009D4F8C159D0508F090C438B837B8822DAC
:102B20000E94040D813D934028F485E080932501A7
:102B300082E304C085E08093250184E3809324012F
:102B4000B601C8010E94750D90936F0180936E01CC
:102B5000C6010E94700D9C01A0E1B7E20E94933D66
:102B6000209126013091270140E050E00E94553D20
:102B700030936B0120936A0118B87B8177B98F85F8
:102B80008F2984B985B9892D0E940C0D8C01822D65
:102B90000E94040DB8010E94750D90936D01809301
:102BA0006C01209124012F70243081F540916A013D
:102BB00050916B0160916E0170916F0117DE00976B
:102BC00009F1F5B8F4B838B88B81832987B9892D14
:102BD0000E94040D0E94700D8C0117B89C01A0E1A9
:102BE000B7E20E94933D20913C0130913D0140E0CD
:102BF00050E00E94553DA901B80180916C0190916F
:102C00006D01F4DD90936901809368018091240146
:102C10008F70843009F4E1C13B2838B837B815B853
:102C20008D8184B9892D0E94080D7C01882D0E9418
:102C30000C0D6C0100911F0110912001BC01C70116
:102C40000E94750D9C01D8010E94933D960140E0C1
:102C500050E00E94553D3093690120936801BDC149
:102C600018B89B8197B9A981A5B9B985B4B9892D3F
:102C70000E94080D998B888B0E94700D8C01822D0B
:102C80000E940C0D98878F836301E4E6CE0ED11C61
:102C9000B301C801C016D106B8F40E94750D5C01DD
:102CA00080912601909127019C0140E050E060E86E
:102CB00071EA83E09CE10E94553DD5010E94A83D48
:102CC000AF81B8859D011EC00E94750D5C01BD815C
:102CD000B4B9892D0E94080D998B888B0E94700DC4
:102CE0008C01822D0E940C0D98878F83BC01C50139
:102CF0000E94750D9C01A4E6B0E00E94933DEF8117
:102D0000F8859F0140E050E00E94553D2C8B3D8BA3
:102D10004E8B5F8B14B815B838B837B881E00E9475
:102D2000D40CFA85F4B9882D0E94080D8F359D408A
:102D300008F459C1E4B8882D0E94040D5C01822D6D
:102D40000E940C0D9C8F8B8F892D0E940C0D9B8BEC
:102D50008A8B4B8D5C8D413D574008F4D2C0F5B84D
:102D6000882D0E94040D8115944098F080912501D2
:102D7000843078F48AE0809325016B8D7C8D8A897C
:102D80009B890E94750D909369018093680121E0F1
:102D90002AC484E0809325018DE0809324016A1485
:102DA0007B0430F4C501861997099A83898302C090
:102DB000BA82A982C0901F01D0902001E12CF12C91
:102DC00060E871EA83E09CE1A70196010E94553D0D
:102DD000A981BA810E94A83DAB8DBC8D9D0140E0C8
:102DE00050E00E94553D80917301882369F08091E5
:102DF000640190916501A0916601B091670182170D
:102E00009307A407B50708F5209364013093650183
:102E100040936601509367019501A0E1B7E20E94DB
:102E2000933DA70196010E94553D30936B0120937D
:102E30006A016B8D7C8D8A899B890E94750D9093A8
:102E400069018093680121E001C020E08091640164
:102E500090916501A0916601B09167014C895D89EF
:102E60006E897F8984179507A607B70730F54093C9
:102E700064015093650160936601709367016F81EF
:102E80007885888999890E94750D9093690180934E
:102E900068019801A0E1B7E20E94933D20912601CC
:102EA0003091270140E050E00E94553D205F384DB1
:102EB00030936B0120936A0103C0222309F493C36A
:102EC000C0901F01D0902001E12CF12C9301A0E1D2
:102ED000B7E20E94933DA70196010E94553D3093B1
:102EE0006D0120936C019201A0E1B7E20E94933D35
:102EF000A70196010E94553D30936F0120936E010A
:102F000046CF51E66516710408F06DC061EDA61656
:102F100067E0B60608F467C085E08093250182E18A
:102F200080932401C50186509F4FAA89BB898A17C7
:102F30009B0720F483E18093240116C000911F01B8
:102F400010912001B5018A899B890E94750D9C0111
:102F5000D8010E94933D950140E050E00E94553D0C
:102F60003093690120936801BB81B770DB2E822DFD
:102F7000806480937C005BE0F52EAA24A394B12C9E
:102F80000FEF13E0A89561E08C814ED5E4B886B1CF
:102F90008D21E9F3EE85E4B980917A008064809315
:102FA0007A0080917A0086FDFCCF80917800909124
:102FB00079009801281B390BA20EB31EFA9411F761
:102FC000C501880F991F880F991F69E070E00E9462
:102FD0002E3D70936F0160936E01809173018F5F3E
:102FE00080937301D4CEE4B8F5B8882D0E94080D03
:102FF0007C01822D0E940C0D98878F830E94700D9A
:103000005C01CE14DF04B8F4B301C7010E94750D52
:103010008C0180911F01909120019C0140E050E0C3
:1030200060E871EA83E09CE10E94553DD8010E946E
:10303000A83D95011FC03A8534B94C8145B9882D0A
:103040000E94080D7C01822D0E940C0D98878F83B1
:103050000E94700D8C01C7016E147F0410F4861954
:103060009709B8010E94750D9C01A4E6B0E00E948A
:10307000933D980140E050E00E94553D2A873B87F0
:103080004C875D875B8157B918B86D8164B965B9A4
:10309000892D0E94080D8C01822D0E940C0D6C015F
:1030A000882D0E940C0D998B888B003371E11707D6
:1030B00008F0C1C1898185B9892D0E94080D5C0184
:1030C000998194B9892D0E94080D9C0115B881E061
:1030D0002A8F398F0E94D40CA981A5B9892D0E940D
:1030E000080D2A8D398D2034364008F05FC08133B9
:1030F000914108F45BC0C8018A569F4FA816B906D3
:1031000008F054C086E080932501809159018F5FBB
:103110008093590168897989C6010E94750D909341
:103120004F0180934E0168897989C8010E94750D0D
:10313000909355018093540114B815B8FB81F8B9E8
:1031400081E00E94D40C298124B9892D0E94080DA8
:10315000853F910508F055C23D8134B9822D0E940A
:10316000080D813D934008F44CC2892D0E940C0D3E
:103170008D3D924008F445C2698164B9892D0E9451
:10318000080D8D3D924008F43CC2898185B981E0EB
:103190000E94D40C15B8892D0E94080D853F910519
:1031A00008F02FC287E0809325012BC29B8197B93D
:1031B000AC81A4B9A5B981E00E94D40CB985B4B999
:1031C000B5B9892D0E94080D5C010E94700D998B84
:1031D000888B822D0E940C0D9E838D830E94700D22
:1031E0006C01882D0E940C0D8C01EEEFCE16E9E0EB
:1031F000DE0608F4B4C084E0809325018CE080935F
:103200002401B301888999890E94750D5C01809120
:103210002601909127019C0140E050E060E871EAAE
:1032200083E09CE10E94553DD5010E94A83D960196
:1032300040E050E00E94553D80915901882369F09B
:1032400080914A0190914B01A0914C01B0914D01A8
:1032500082179307A407B50728F520934A013093F6
:103260004B0140934C0150934D01B8018D819E81DB
:103270000E94750D90934F0180934E0128893989E2
:10328000A0E1B7E20E94933D2091260130912701F1
:1032900040E050E00E94553D309351012093500191
:1032A00021E001C020E080914A0190914B01A09162
:1032B0004C01B0914D014A855B856C857D858417F5
:1032C0009507A607B70728F540934A0150934B018D
:1032D00060934C0170934D01B7018F8198850E94D6
:1032E000750D90934F0180934E019701A0E1B7E2D5
:1032F0000E94933D20911F013091200140E050E059
:103300000E94553D205F384D30935101209350016C
:1033100003C0222309F476C19301A0E1B7E20E9421
:10332000933D20911F013091200140E050E00E9428
:10333000553D30935301209352019201A0E1B7E231
:103340000E94933D209126013091270140E050E0FA
:103350000E94553D309355012093540152C151E6CE
:103360006516710408F067C06889798969347D4001
:1033700008F461C085E08093250182E080932401F8
:10338000C80186509F4F8A159B0520F483E08093E7
:10339000240117C0E0902601F0902701B801C50173
:1033A0000E94750D9C01D7010E94933DA889B9899F
:1033B0009D0140E050E00E94553D30934F01209325
:1033C0004E01032D0770822D806480937C001BE0EA
:1033D000EE24E394F12CA89560E08C8125D3B98587
:1033E000B4B9B5B986B18023E9F7E981E4B9809130
:1033F0007A00806480937A0080917A0086FDFCCF09
:103400008091780090917900E80EF91E115019F71B
:10341000C701880F991F880F991F69E070E00E940B
:103420002E3D7093550160935401809159018F5F37
:1034300080935901E6C017B818B814B815B817B872
:10344000F7EC6F16F1E07F0608F4BFC018B82F85BF
:1034500024B918EC0B81032907B981E00E94D40C30
:103460003B8137B9892D0E940C0D429710F0115005
:1034700099F74F8544B945B961E08C81D5D2892D42
:103480000E94080D6C01588D54B915B837B838B87A
:1034900060E08C81C9D2882D0E94080D0E94700DB9
:1034A0005C016E8564B9882D0E940C0D8C01892DFC
:1034B0000E94080DB8010E94750D8C01882D0E9494
:1034C0000C0D7C01892D0E94080DB7010E94750D1D
:1034D00098012C5E3F4F2817390708F479C018B8B7
:1034E0007B8177B9898184B985B961E08C819CD26F
:1034F000882D0E940C0D7C01892D0E94080DB701BA
:103500000E94750D7C010817190750F49F8594B926
:1035100095B9892D0E94080D9C01560187010EC0A6
:10352000A88DA4B915B837B838B860E08C817CD2C2
:10353000882D0E94080D0E94700D9C01083EB3E08A
:103540001B0730F4C80164E670E00E942E3D06C0FF
:10355000B80184E0769567958A95E1F7C8018759A7
:1035600091098938914188F52017310770F5C50117
:10357000B3E096958795BA95E1F7893C910510F0EF
:1035800088EC90E08A0D9B1D80179107F0F46A1576
:103590007B05D8F480912501833018F483E0809373
:1035A000250180912301E82FF0E0DF01AB56BE4FEB
:1035B0009C9216968C92EE0FFF1FEF55FE4F1183D3
:1035C00000838F5F8093230103C0682D892D28D04D
:1035D00017B818B814B815B88EE20E94C3096D96D2
:1035E000E2E10C94593E809173018F5F80937301E7
:1035F000222371F3209270018092710190927201E6
:10360000E7CF21E0809159018F5F809359012223F8
:10361000F9F2209256019092570180925801D8CF2A
:10362000A0E0B0E0E6E1FBE10C943F3E782E662E90
:10363000A895262F30E0F901E35AFD4F54903396B8
:103640001491482F50E0FA01E35AFD4FD49133967C
:10365000C491609173018091590190E0860F911D92
:10366000892B09F0DCC1A8958091290190912A014C
:10367000880F991F880F991F90933B0180933A01FF
:103680008091780190917901880F991F880F991F77
:1036900090933901809338018EEB8093360100912D
:1036A0002301E5E9F1E06BE971E0DB01240F351F4F
:1036B0008A2F861B801748F441918D9190E0840FEA
:1036C000911D82179307A1F758C018B817B9D4B93C
:1036D000D5B918E1D12E00E010E0862D0E94080D2A
:1036E000982E892E872D0E940C0D7C01801B910B3A
:1036F00097FF03C091958195910903972CF0A895A8
:10370000DA94D9F18701E9CFDD0F15B8D4B9872D47
:103710000E94080D8135910580F5D5B9872D0E944D
:10372000080D8C01C7B9C8B915B854B8C8E14C2EFA
:10373000C12CD12C872D0E94080DB82EA92E862DC4
:103740000E940C0DEC019C012C193D0937FF03C0B0
:10375000319521953109233031051CF5550C54B8AC
:10376000862D0E94080D6C0180ECE81684E4F806B2
:10377000E8F4053881E01807E8F08091290190917C
:103780002A0190933B0180933A01809178019091B6
:10379000790190933901809338018EE1809336014D
:1037A0003EC1A8954A9449F36E01C4CF003B8DE415
:1037B000180718F7C43A82E0D80708F061C088E912
:1037C000C816D104D0F2C8010E94700DAC01980156
:1037D000A8E9B7EB0E94933D9A0140E050E00E94B7
:1037E000553D49015A01C6010E94700D9C01A8E98E
:1037F000B7EB0E94933D960140E050E00E94553D9A
:1038000008378FE0180770F4C501B401B2E0660F05
:10381000771F881F991FBA95D1F7620F731F841FF6
:10382000951F12C088E7C8168FE0D806A0F4CA0119
:10383000B901A2E0660F771F881F991FAA95D1F7DB
:10384000680D791D8A1D9B1D25E030E040E050E0A9
:103850000E94553D08C0280D391D4A1D5B1D569517
:10386000479537952795A4E6B0E00E94A83D4B0107
:103870005C018CEA880E8DE0981EA11CB11C78C0FA
:10388000692D782DE616F70608F4B7010B2D1A2DD1
:103890000C171D0708F48E016B016E157F0508F4E7
:1038A0006701E0902601F0902701C6010E94750D86
:1038B0009C01D7010E94933D4B015C01C6010E940F
:1038C000700D9C0140E050E0C501B4010E94553DDF
:1038D00049015A017801C017D10708F47E01C0914F
:1038E0001F01D0912001B701C8010E94750D9C01F4
:1038F000DE010E94933D870120E030E0A90198019C
:103900000E94553D88E7C8168FE0D80670F4C501BF
:10391000B401E2E0660F771F881F991FEA95D1F77F
:10392000620F731F841F951F12C088E7E8168FE08F
:10393000F806B0F4CA01B90152E0660F771F881F7C
:10394000991F5A95D1F7680D791D8A1D9B1D25E099
:1039500030E040E050E00E94553D49015A0108C066
:10396000820E931EA41EB51EB694A79497948794B6
:1039700010912501143008F000CF7A94760C872D31
:1039800090E0EC01C25ADE4F2881880F991F880F02
:10399000991FFC01E255FE4F2223D1F1C080D18056
:1039A000E280F380A50194012C193D094E095F09BD
:1039B00057FF07C050954095309521953F4F4F4F89
:1039C0005F4FAAE0B0E00E94A83DA70196012C59E4
:1039D0003F4F4F4F5F4F280D391D4A1D5B1D0E9401
:1039E000553D232B242B252B09F0C7CE133019F07E
:1039F00081E08093250182E0888380917A01E82F1D
:103A0000F0E0EF59FE4F70828F5F80937A01B5CE60
:103A100080829182A282B38281E08883AECECDB7CC
:103A2000DEB7E0E10C945B3ECF93C82FC09595B113
:103A300060FF02C0982B01C09C2395B994B1982BCC
:103A400094B982E00E94D40C84B18C2384B985B1EE
:103A50008C2385B9CF910895A0E0B0E0E2E3FDE1C9
:103A60000C94463E8AE0D82E9FE3B92E29E0C22E60
:103A700017B818B815B8B4B880E00E94080D8C01CA
:103A800081E00E940C0DEC0182E00E940C0D20915F
:103A90002501293079F417B814B810930601009362
:103AA0000501D0930801C093070190930A01809308
:103AB000090156C00430110540F4C430D10558F452
:103AC0008430910540F321E00AC021E0083E134014
:103AD00018F020E001C021E0C83ED34008F4226085
:103AE000883E934008F4246027B9C0E0D0E0A89550
:103AF00080E00E94000D7C0181E00E940C0D8C0191
:103B000082E00E940C0D24E1E21625E0F20608F4A2
:103B1000389A043135E0130708F4399A843125E0E6
:103B2000920708F43A9A36E0E316F10428F40630D6
:103B3000110510F4069738F02196C43F81E0D807AC
:103B4000B1F6C092250100E010E00C171D0729F026
:103B50000E94C30C0F5F1F4FF8CFDA9409F088CF93
:103B6000CDB7DEB7E9E00C94623ECF92DF92EF92E0
:103B7000FF92CF9320917F0130918001409181018C
:103B800050918201C09191018AE0C82ED12CE12C84
:103B9000F12C8C2FCF5F213A96E8390791E0490745
:103BA000510538F0CA01B901A70196010E94553D9F
:103BB000F0CF80939101A0913A01B0913B010E9416
:103BC000A83D28E833E140E050E00E94553D2093B5
:103BD0007F01309380014093810150938201CF9106
:103BE000FF90EF90DF90CF900895A4E0B0E0EBEF6E
:103BF000FDE10C94433E982E862E8FEF860F992D73
:103C0000990F990D890F80935B01E92DF0E0E35A3C
:103C1000FD4F1491E62FF0E0E35AFD4FF490E62FAC
:103C2000F0E0E05AFD4F049180912501813009F4C4
:103C3000A7C2409123018BE991E061EA71E0DC01C8
:103C40002A2F281B2417A0F42D9128110EC09D01A6
:103C500027503109F9012081291107C0FB0120817A
:103C600031812C3D354008F48BC26E5F7F4FE8CF29
:103C700010928C0110928B0181EF80939101109230
:103C80007F01109280011092810110928201E4DE86
:103C900018B807B9F4B8F5B8892D0E940C0D7C014D
:103CA000882D0E940C0DE81AF90A14B810925D01D3
:103CB00010925C01C12CD12C80915C0190915D012E
:103CC000843F914050F515B914B90E94BD0C14B849
:103CD00015B80E94C40CA895892D0E940C0D6C018A
:103CE000CE18DF0880915C0190915D018E379105BF
:103CF00028F02BE4C216D1040CF43EC25DE2C516D6
:103D000051E0D50684F480915C0190915D010196AB
:103D100090935D0180935C01CFCFFDE2CF16F1E07F
:103D2000DF060CF429C280915C0190915D01892B22
:103D300021F0C60100E010E006C025E1C21625E032
:103D4000D206BCF385C020915C0130915D01201743
:103D5000310758F00E94BE0C892D0E940C0D8E195F
:103D60009F09A8950F5F1F4FEECF8601081B190B07
:103D70001016110694F4093C11050CF0FDC128EE53
:103D800033E0D8010E94A23D9601442737FD4095BB
:103D9000542F0E94553D790102C0E12CF12CA090D6
:103DA0005C01B0905D015FEFA51AB50AC501A0E006
:103DB000B0E08093870190938801A0938901B0932C
:103DC0008A01C601800F911F27D29C01D5010E9454
:103DD000933D60938701709388018093890190934C
:103DE0008A0160937F017093800180938101909399
:103DF000820187EF80939101B8DE20917F0130919D
:103E00008001409181015091820187E693E02983EE
:103E10003A834B835C830E94C03EA8EEB3E0A81BAC
:103E2000B10987FDB39529813A814B815C810E945C
:103E3000B23D24E630E040E050E00E94553D209342
:103E40007F0130938001409381015093820152C1E0
:103E500003DE15B887E087B918B8F12EFF0CF4B867
:103E600080E480937B0084E580BF892D806480930B
:103E70007C0086E180937A000E94C70C10925D015D
:103E800010925C01109280001092850010928400C4
:103E900087E286BB81E280936F0081E080937C01A2
:103EA000F5B89091250180938100953059F481E017
:103EB00090E0092C01C0880F0A94EAF7809587707A
:103EC00087B901C007B9F89483B7817F83BF809118
:103ED0007C01882389F083B7816083BF78948895BB
:103EE00083B78E7F83BFF894A89580915C019091F1
:103EF0005D018034964059F7789410928100E090EB
:103F00008600F090870010926F0086E980937A0017
:103F100014B815B8892D0E940C0D20913E013091E6
:103F20003F01821B930B0C96909394018093930115
:103F300080915C0190915D018032934008F01CC13A
:103F400080915C0190915D0190938A018093890139
:103F5000F0928801E092870184EF80939101809133
:103F60005C0190915D0182349105C8F060918701F8
:103F7000709188018091890190918A0124E630E056
:103F800040E050E00E94553D209387013093880126
:103F90004093890150938A0186EF80939101A0910B
:103FA0007D01B0917E01209187013091880140917F
:103FB000890150918A010E94A83D20E233E040E04F
:103FC00050E00E94553D2093870130938801409333
:103FD000890150938A0120937F013093800140939F
:103FE000810150938201C1DD80919101843F09F0EC
:103FF00071C0C0907F01D0908001E0908101F0906D
:10400000820120EAC2162FE0D206E104F104C0F4D6
:10401000A70196012C543F4F4F4F5F4F60EA7FE05E
:1040200080E090E00E94553D2C0D3D1D4E1D5F1D12
:1040300020937F013093800140938101509382014E
:10404000C0907F01D0908001E0908101F0908201CA
:10405000C114D10451E0E506F10428F4D092BF0167
:10406000C092BE0106C081E090E09093BF018093B2
:10407000BE0180915B0190E08C579C4F0E94C03E36
:10408000482F50E060E070E04C155D056E057F053F
:1040900068F4C41AD50AE60AF70AC0927F01D092E2
:1040A0008001E0928101F092820114C084E1C80E87
:1040B000D11CE11CF11CC416D506E606F70610F467
:1040C0000E944F1310927F01109280011092810183
:1040D0001092820114B980917F0190918001A0918A
:1040E0008101B09182014997A105B10508F444C04E
:1040F000E12CF12C80912301882321F0809125016E
:104100008530D1F588E0809325012091910180913F
:1041100092018217BCF028132FC040917F0150916B
:104120008001609181017091820180918301909161
:104130008401A0918501B091860184179507A60797
:10414000B707D0F480917F0190918001A091810107
:10415000B09182018093830190938401A0938501A3
:10416000B093860120939201F0928E01E0928D012E
:1041700080928F019092900117B818B814B815B8B2
:104180002496ECE00C945F3E1F920F920FB60F92B4
:1041900011248F939F93B59904C080917C01811164
:1041A00009C0B59B10C080918600909187008A3F1E
:1041B000910548F480915C0190915D010196909386
:1041C0005D0180935C019F918F910F900FBE0F90C6
:1041D0001F9018951F920F920FB60F9211248F9374
:1041E0009F9310927C01B09B10C0809186009091AB
:1041F00087008A3F910548F480915C0190915D01B0
:10420000019690935D0180935C019F918F910F9037
:104210000FBE0F901F9018950F9221E08C329207DD
:1042200010F48CE291E08C52914069E170E00E94C0
:104230002E3D99E16B3210F0982F6BE2981BE8E06D
:10424000F3E0E60FF11DE60FF11D9F93CF010E94F1
:10425000C03E482F3196CF010E94C03E582F319664
:10426000CF010E94C03E282F3196CF010E94C03E50
:10427000382F6F91421B530B649FC001659F900DB7
:1042800011240C9669E170E00E942E3D620F731FAD
:10429000CB010F900895A0E0B0E0E1E5F1E20C94CD
:1042A000433E88E893E190932A01809329019093FB
:1042B0003B0180933A018EEB8093360118B880E180
:1042C00087B90E94CC0C17B884E00E94080DAC019D
:1042D0008B5C9840833F9140A0F481E0809345013E
:1042E00020913A0130913B01AFEBB9E00E94933D40
:1042F0009A0140E050E00E94553D30932A012093FE
:1043000029018091290190912A0190933B0180938A
:104310003A018EE00E940C0D8EE00E94080D9093F1
:104320003F0180933E010E94550E96DB18B8C1E014
:10433000C7B985E185B9C4B980E00E94080D7C0148
:1043400002E007B914E014B981E00E94080DE80EFC
:10435000F91E17B980E1D82ED4B882E00E94080D6A
:10436000E80EF91E15B8C8B9C7B9C4B980E00E94F3
:10437000080D0E94700DEC0108B907B914B981E06D
:104380000E94080D0E94700DC80FD91F18B917B9E7
:10439000D4B882E00E94080D0E94700DC80FD91F8A
:1043A00017B818B814B880913A0190913B014C01AC
:1043B000880C991C880E991E8E189F088C1A9D0ACD
:1043C000A12CB12C9701A0E9BAE10E94933DA5016F
:1043D00094010E94553D69017A0130934401209374
:1043E00043019E01A0E9BAE10E94933DA501940119
:1043F0000E94553D30933D0120933C012057354E9E
:10440000309327012093260180E7C81A85EED80A49
:10441000D0922001C0921F018EE180933601CDB76A
:10442000DEB7ECE00C945F3EFF920F931F93CF93A7
:10443000DF93C82FD62FF42E0E94E50986E291E083
:104440000E944A0AE9D16D2F8C2F0E944035C1E0AD
:104450000091C2011091C3012091C4013091C501A6
:10446000011511052105310509F0C0E08091020117
:1044700087FD02C0C11104C082E291E00E944A0A95
:104480008D2F0E94E509C11106C00E94E8098091A4
:1044900061010E94ED0AFF2049F0809146018D30B4
:1044A00028F490E088579C4F0E944A0A80E00E94BE
:1044B000230AC1111BC06091C2017091C301809198
:1044C000C4019091C50103E028E447EF0E94700BFE
:1044D00085E391E00E944A0A89E993E00E94C83E80
:1044E00023E046E464EF0E945F0C1AC080916101F2
:1044F0000E94ED0A809102018E3F94F483E591E0E1
:104500000E944A0A60910B0170910C0180910D018B
:1045100090910E0103E028E4409102010E94700B8B
:104520008091BA019091BB01A091BC01B091BD01F5
:10453000892B8A2B8B2BF1F080E00E94230A60915B
:10454000BA017091BB018091BC019091BD0104E062
:1045500028E440E00E94700B80E391E00E944A0A48
:1045600023E040E26FEF8091C0019091C1010E9471
:104570005F0C07C080E00E94020A8091490181110E
:1045800002C00E94FC09CDB7DEB7E5E00C94663EA0
:104590000F931F93CF93DF93082F0E94630880919E
:1045A0008F010E94E5098FE691E00E944A0A07D533
:1045B00060918F01809190015AD390938C018093E8
:1045C0008B0111E08A3F9F4F08F010E0C0918D01F0
:1045D000D0918E01112321F087E291E00E944A0AD6
:1045E000809190010E94E509002359F090914601C5
:1045F0008DE0891B0E94EB0987E890E00E944A0A3F
:1046000002C00E94FC090E946908609183017091B8
:104610008401809185019091860104E026E4409117
:1046200092010E94700B112369F08EE591E00E94C7
:104630004A0A22E044E06EEF80918B0190918C0158
:104640000E945F0C0E94FC090E947008CD2B69F04B
:1046500087E591E00E944A0A22E045E26FEF8091EF
:104660008D0190918E010E945F0C0E94FC09DF91E8
:10467000CF911F910F9108958F7021F40E947708B8
:104680000C94AF1308958F3021F490914001913034
:1046900011F08F5F089580E00895CF9382E990E054
:1046A0000E94262FC0E00E94FD0E60E082E00E9482
:1046B000101B62E080E00E94101B0E946308809142
:1046C0007A01882329F041E062E080E0ADDE12C08B
:1046D00082E990E00E944A0A82E993E00E944A0A35
:1046E0000E9469088FE30E94C30980E00E94020AC9
:1046F0000E94FC098C2FC0DF88EE93E00E94C60D5B
:10470000811109C080911E01843028F48C2FBBDFF9
:10471000C82F8A3F40F20E94A108CF9108950F93BD
:104720001F93CF93DF93C0E0D8E012EF0DE00E941B
:10473000FD0E60E082E059DAD0932501809191016D
:10474000843FE1F440917F015091800160918101AB
:1047500070918201443651056105710578F440E09D
:1047600060E082E00E94BA3260937F017093800122
:104770008093810190938201109391018091910126
:10478000823FACF08093920140917F015091800173
:104790006091810170918201409383015093840163
:1047A000609385017093860181E0F2DE1CC00E9457
:1047B00063088BE890E00E944A0A80914601902F9E
:1047C000981B892F0E94EB0987E890E00E944A0A13
:1047D0000E9469088FE30E94C3090E94FC090E949D
:1047E00070080E94FC098C2F47DF88EE93E00E943E
:1047F000C60D81110AC080911E01843030F48C2FC7
:1048000042DFC82F8A3F08F492CF0E94A108DF91AF
:10481000CF911F910F910895A3E1B0E0E2E1F4E29E
:104820000C943D3E82E0809302018091250181300D
:1048300009F019C280917A01813009F014C22090E8
:10484000610124E0229EF0011124E255FE4F808197
:104850009181A281B381893032E59307A105B10529
:1048600008F001C29B8B8A8B312C61E0822D63158D
:1048700028F00E94E30AB82EA92E03C00E94E30A82
:104880005C01EA2DF0E0E05AFD4F7490EB2DF0E072
:10489000E35AFD4FE49115B818B88A899B89803F87
:1048A000910590F430FC10C000911F01109120017F
:1048B00000591A4181E090E00B2C01C0880F0A9446
:1048C000EAF7872987B906C0E4B977B800911F01D4
:1048D0001091200144E1642E8B2D0E94040D4C01A7
:1048E0008A2D0E940C0D24E08216910410F4049786
:1048F00010F06A9489F730E430937B0064E560BF80
:104900008B2D806480937C0086E180937A00E12C7B
:10491000F12C10928000109285001092840087E2A2
:1049200086BB0E94C70C932D9170998B30FC05C0FB
:1049300081E88093810078B808C078B80E94D00CD4
:1049400080E286BB81E88093810046B345FF12C0B8
:1049500018B81092810080E286BB80918600909109
:1049600087006C01209184003091850082179307A5
:1049700068F013C040FFE9CF21E026BBA895C7012E
:1049800001967C018035910501F7E2CF40FF05C01B
:1049900031E036BB6FEFE61AF60A86E980937A00BB
:1049A00034E1732E8B2D0E94040D4C018A2D0E9440
:1049B0000C0D24E08216910410F4049710F07A9400
:1049C00089F780904301909044018A899B89880EE1
:1049D000991E800E911E20912101309122010039F3
:1049E0009AE11907B0F461EEC616D104E104F104AE
:1049F00038F4C60165E070E00E942E3D645101C0AC
:104A000069E128523109261B310967FD339586E09B
:104A100009C0C40160EB76E30E942E3D87E0860F5B
:104A2000285D3F4F90E0A0E0B0E08C159D05AE05FD
:104A3000BF0528F4C81AD90AEA0AFB0A03C0C12C28
:104A4000D12C76018989882329F092E2C90ED11CE4
:104A5000E11CF11C60E5E616F10418F0C12CD12C24
:104A600076018BE0C816D104E104F10428F091E04E
:104A7000C91AD108E108F10840913A0150913B016F
:104A8000A12CB12CA8EEB3E00E94933D2B013C0178
:104A90009801DA010E94933DA50194010E94553DC1
:104AA00044275527C301B2010E94553DC9010E9408
:104AB000AD0EFC01A5019401C701B6010E94133D92
:104AC0004B015C01BF0180E090E023E0660F771F9F
:104AD000881F991F2A95D1F76B5F7F4F8F4F9F4F8C
:104AE0002AE030E040E050E00E94553DC501B401AD
:104AF0000E94553D832D90E0E1E0F0E0EC0FFD1FBA
:104B000064E0369EE00DF11D112420833183428341
:104B100053836989611117C06CE0C616D104E104A2
:104B2000F10488F0FC013196EE0FFF1FEE0FFF1F1E
:104B300081E090E08C0F9D1FE80FF91F20833183E7
:104B4000428353833394A895339493E0931508F0EC
:104B50008CCE18B884E00E94D40C21E04D815E8197
:104B60006F81788589819A81AB81BC818417950793
:104B7000A607B70708F020E04D855E856F85788928
:104B800089859A85AB85BC8584179507A607B707E5
:104B900010F032E001C033E0E22FF0E0EE0FFF1F33
:104BA000EE0FFF1F81E090E08C0F9D1FE80FF91FB3
:104BB000DC0194E0399FA00DB11D11244D915D9150
:104BC0006D917C9180819181A281B38148175907B1
:104BD0006A077B0708F0322FE1E0F0E0EC0FFD1FE1
:104BE00024E0329FE00DF11D112480819181A2818A
:104BF000B38180930B0190930C01A0930D01B093AE
:104C00000E0130FD09C02A893B89203F310520F47F
:104C10008BEF8093020117C02CEF20930201BC019F
:104C2000CD016B5F7F4F8F4F9F4F2AE030E040E018
:104C300050E00E94553D20930B0130930C014093AE
:104C40000D0150930E0180910B0190910C01A091E8
:104C50000D01B0910E01892B8A2B8B2B11F4109230
:104C6000020117B814B86396E2E10C94593EAEE124
:104C7000B0E0EDE3F6E20C943D3E662EB82E860FD2
:104C8000898320912501283059F5209183013091A5
:104C90008401409185015091860157FD15C0109106
:104CA000920109C0CA01B9012AE0312D412D512DCF
:104CB0000E94553D1F5F173FACF391F4243160E033
:104CC00036074105510518F48FEF9FEF45C1173F97
:104CD00039F480E028178DE738074105410510F0C9
:104CE00020E03DE72C8B3D8B26EDA22EE0E6F2E0A6
:104CF000E60DF11D859180608E87E0E6F2E0EB0D18
:104D0000F11D859180608F87EDE5F2E0E60DF11DE4
:104D10007590EDE5F2E0EB0DF11DC59090EC692A80
:104D2000B92A81E0E82EF12C012D112D8E831F82EE
:104D3000188619861A861B861C861D86188E198E63
:104D40001B8E1A8E0E942C1D80E088B960927C0018
:104D50000E94C80C3F8537B975B874B852E05A95AF
:104D6000F1F70000000014B815B8DD243E8537B90E
:104D700075B874B860927C00A895A0927A00809172
:104D80007A0086FDFCCF2090780030907900B092B8
:104D90007C004C2DE5D02091780030917900288B53
:104DA000398B3F8537B9C5B8C4B8A895B0927C0097
:104DB000A0927A0080917A0086FDFCCF6091780005
:104DC0007091790060927C00472DCAD040917800A4
:104DD0005091790014B8CB01820D931DE80EF91E95
:104DE000011D111DEA82FB820C831D83888999892C
:104DF000840F951F2E813F8168857985280F391F83
:104E0000611D711D2E833F836887798722E32417F4
:104E1000150650F075B874B80E94D20C14B815B8C5
:104E2000888D8395888F07C0483E73E0570718F038
:104E30008A8D83958A8F888999892817190660F049
:104E40003E8537B9C5B8C4B80E94D20C14B815B89D
:104E5000898D8395898F07C0883E73E0970718F086
:104E60008B8D83958B8FD3945D2D5F3F49F05F379A
:104E700031F45C2D550FC50E572D550F750E76CF9D
:104E80004090430150904401440C551C9201E4E0D1
:104E9000240D351DEA95E1F72901570168016E805F
:104EA0007F8088849984209125012830C1F46C8901
:104EB0007D89812D912D65507040804090409B01EF
:104EC000AC010E94133D9B01AC0160E779E786E1EC
:104ED00090E00E94553D621A730A840A950AA6144E
:104EE000B704C804D90428F46A187B088C089D0804
:104EF00003C0662477244301B20180E090E093016F
:104F0000A4010E94133D9501A6010E94553D83E630
:104F100093E07981870F911D0E94C03E682EC901E0
:104F200060E170E00E942E3D260F371FC901681610
:104F3000190618F4861991090FC08C5E9F4F8615CB
:104F4000910540F48C899D89843981E1980710F09E
:104F50000E944F13812D912D6E96E2E10C94593EE3
:104F6000109281001092800010926F0010928B00BE
:104F700010928A0057E056BB5FEF50938500509324
:104F8000840055E050937B0056EB50937A0051E03B
:104F90005093810058E25A95F1F7000045B944B9A1
:104FA00055E05A95F1F7000014B815B81092810039
:104FB00080917A0084FFFCCF80937A000895A4E06A
:104FC000B0E0E5EEF7E20C94453E80918D019091C2
:104FD0008E01892B09F0B2C0E0918F01F0E0E05A18
:104FE000FD4F0491E0919001F0E0E35AFD4F1491E0
:104FF0000E942C1D18B815B807B914B980919001FA
:105000000E940C0D5C01009192018CE0800F8430B5
:1050100008F094C0015F8091830190918401A09178
:105020008501B09186012AE0C22ED12CE12CF12C11
:10503000BC01CD016B5F7F4F8F4F9F4FA701960142
:105040000E94553D0F5F073019F0DA01C901F0CF1A
:10505000293883E138074105510508F06FC0253034
:10506000310508F46BC015B914B900E010E002175F
:10507000130768F429833A834B835C830E94CE0C28
:105080000E5F1F4F5C814B813A812981F0CF14B8AC
:1050900015B8A89585E08093360180919001298309
:1050A0003A834B835C830E940C0D29813A814B81AA
:1050B0005C81A816B90620F47C01EA18FB0802C03E
:1050C000E12CF12C00E010E00217130768F42983AB
:1050D0003A834B835C830E94CE0C0F5F1F4F5C8131
:1050E0004B813A812981F0CF809190010E940C0D73
:1050F0002EE120933601A895A816B90618F48A194E
:105100009B0902C080E090E08E159F0588F497010E
:10511000281B390B69F0A4EFB1E00E94933D970181
:1051200040E050E00E94553D30938E0120938D0168
:105130000E942C1D17B818B814B815B82496EAE0C8
:105140000C94613EA5E0B0E0E8EAF8E20C943D3E44
:1051500080E592E07BD620EF2B8354980E94C30C0D
:1051600014BC16BC1092120110921301109214017B
:105170001092150131E035BB30936E001092800023
:1051800083E19AE790938B0080938A00E1E0F0E05E
:10519000F0938900E09388001092850010928400BB
:1051A00083B5816083BDF6E0F6BBF0936F00789421
:1051B00024E02093810012E31A820E94BC0CA8957F
:1051C0004F9902C031E03A8385B5811127C015BCE3
:1051D00086B5809312010E9470080E94FC090E940B
:1051E00077080E94FC090E942A0A86E60E94C309E9
:1051F0000E942E0A60911201709113018091140196
:105200009091150147E00E94740C549880918100A0
:10521000882339F08FE30E94C30903C0115069F657
:10522000D6CF1092810010926F0020911201309120
:1052300013014091140150911501DA01C901019740
:10524000A109B109813F9048A105B10508F0FAC054
:10525000AAE0B0E00E94A83D685F7F4F8F4F9F4F4C
:1052600023E096958795779567952A95D1F7660FF0
:10527000771F709375016093740154980E94C30C5A
:1052800016BC109212011092130110921401109288
:10529000150181E085BB80936E001092770110921A
:1052A000760194E09BBB80916800846080936800E5
:1052B000789480916D00806180936D0019820E94C6
:1052C000BC0CA8954F9902C0E1E0EA8380916D0083
:1052D00084FF05C0F981FF5FF983FA3F81F715BCB0
:1052E00080916D008F7E80936D00809168008B7F30
:1052F0008093680086B5809312010E94700884E54F
:105300000E94C3090E942E0A60911201709113013C
:1053100080911401909115012091740130917501D3
:105320003D832C8328EA31E640E050E00E94B83DFE
:10533000EC81FD815F01C12CD12CE12CF12C00E02E
:1053400010E00E94E13D39014A011B012C012C8132
:105350003D812038310530F007E023E745EFB30108
:10536000C40116C084E6A82EB12CC12CD12CE12C8E
:10537000F12C00E010E09301C2010E94E13DE22F18
:10538000F42F07E023E747EF6E2F732F8F2F952F12
:105390000E94700B39813A3F21F48FE30E94C309C8
:1053A00051C09301A401B101C201263E354B410514
:1053B0005105610571058105910509F008F442C0A8
:1053C0000E94770886E60E94C3090E942E0A930174
:1053D000A401B101C20153016401710182012115CF
:1053E0003A4C4A495B43610571058105910589F095
:1053F00080F020E030E04AE85DE568E775E483E6A8
:1054000091E00E94E13DE22FF42F07E028E44AEF0B
:105410000FC020E030E44AE750E163EF7AE580E036
:1054200090E00E94E13DE22FF42F07E028E44DEFE9
:105430006E2F732F8F2F952F0E94700B8AE70E947B
:10544000C309549810926E0080ED97E00E94C60D3B
:105450002A81820F49F480911E01833028F43B8118
:1054600031503B83311179CE2596E2E10C94593EBF
:105470001F920F920FB60F9211248F939F93AF93A9
:10548000BF9378948091120190911301A09114011F
:10549000B09115019F5FAF4FBF4F80931201909362
:1054A0001301A0931401B0931501BF91AF919F9187
:1054B0008F910F900FBE0F901F9018951F920F9213
:1054C0000FB60F9211248F9386E085BD8F910F90B8
:1054D0000FBE0F901F9018951F920F920FB60F924C
:1054E0001124A8951092810015BC0F900FBE0F904B
:1054F0001F9018951F920F920FB60F9211242F93A1
:105500003F938F939F938091760190917701892BA0
:1055100011F481E085BD2091760130917701809171
:105520007401909175012817390730F015BC8091EE
:105530006D008F7E80936D00809176019091770150
:10554000019690937701809376019F918F913F917F
:105550002F910F900FBE0F901F9018958D3008F06F
:105560008D50811103C08BE592E03BC0813019F46E
:1055700080E592E036C0823019F480E292E031C0DA
:10558000833019F485E192E02CC0843019F48DE960
:1055900090E027C0853019F482E990E022C086307F
:1055A00019F48BE890E01DC0873019F485E092E093
:1055B00018C0883019F48CEE91E013C0893019F4CA
:1055C00086E492E00EC08A3019F482ED91E009C0C1
:1055D0008B3019F486E392E004C08C3021F48CE225
:1055E00092E00E944A0A0C94FC0908950F93CF930D
:1055F0008DE990E02BD4C0E01092250160E082E0BC
:1056000041D4809125018830C1F50E94690883E466
:105610000E94C3090E942E0A609183017091840147
:10562000809185019091860103E026E440919201EA
:105630000E94700B0E94FC0960918F018091900183
:1056400016DB90938C0180938B010E9470088FE58C
:1056500091E00E944A0A80918B0190918C018A3FCF
:105660002FEF920730F422E044E06EEF0E945F0CCF
:1056700008C08FE30E94C30904C00E942A0A0E9446
:1056800070080E94FC098C2F0E943C2388EE93E056
:105690000E94C60D81110BC080911E01843038F428
:1056A0008C2F0E944323C82F8A3F08F4A5CFCF91A7
:1056B0000F9108951F93CF93DF9386E492E0C6D3B2
:1056C000C0E0D0E01AE00E94690889E491E00E94FD
:1056D0004A0A86E00E94080D63E09C01129FC00107
:1056E000139F900D11240E946A0C0E94FC098C2FBC
:1056F0000E943C2388EE93E00E94C60D90911E010B
:10570000811102C0992361F0C0E0963080F48F359A
:1057100010F0DF5F02C0882319F0D53010F007C009
:10572000D0E08C2F0E944323C82F803F60F2DF918E
:10573000CF911F910895A5E0B0E0E1EAFBE20C945F
:105740003D3E80E292E082D380E18093800010921F
:105750006F0081E090E09093890080938800109220
:105760008B0010928A0083E086BB1092820088E052
:105770008093810015B881E184B918B881E087B9B8
:10578000229A89E080938100212C1B822AE02983C0
:1057900033243394812C912C5401839411E1822D74
:1057A00090E00A966EE170E00E94423D662E562E11
:1057B0003B81631789F00E94630880E292E00E94B7
:1057C0004A0A712C751428F48EE20E94C30973945E
:1057D000F9CF0E94FC096B821231C8F0C701B601F3
:1057E000A50194010E94553D2B013C01832D698147
:1057F0000E94223DA92FB0E0A50194010E94A83D7E
:105800006B017C01C40CD51CE61CF71C0CC0832D5D
:1058100069810E94223DA92FB0E0A50194010E9458
:10582000A83D6B017C010E9469088981381208C07B
:1058300081E0123108F480E08A83811106C001C042
:105840001A82163120F48EE303C08CE301C082E596
:105850000E94C3090E94E809412FC701B6010E94B6
:10586000740CC701B6017E5E85489F4FA701960163
:10587000220F331F441F551F0E94553DCA014F3F41
:10588000510539F030F08DE08093810080E094E0A4
:105890001FC04034510530F08CE08093810080E0DF
:1058A00091E016C04830510530F09BE090938100A4
:1058B00080E490E00DC0892B31F0EAE0E0938100B4
:1058C00088E090E005C0F9E0F093810081E090E08D
:1058D0002C01612C712CCA01B901A30192010E9413
:1058E000553DC9010197909389008093880080916C
:1058F000880090918900892B31F421E030E03093C9
:105900008900209388000E94FC090E94700886E6A6
:105910000E94C3090E94E809809188009091890043
:105920009D838C8360E079E08DE390E0A301920198
:105930000E94553DA4E6B0E00E94A83DEC81FD81A7
:1059400031969F0140E050E00E94553D29013A0107
:10595000A4E6B0E0A70196010E94A83D461A570AA6
:10596000680A790A05E228E44EEFC301B2010E94F9
:10597000700B8AE70E94C3090E94FC0980ED97E042
:105980000E94C60D811105C080911E01811142C087
:1059900042C0883C58F0109281001092800017B8E5
:1059A00014B822982596E2E10C94593E813578F19D
:1059B000FA81FF23D9F01150C501B4012AE030E08B
:1059C00040E050E00E94553D49015A01C701B6012F
:1059D0000E94553DCA01B9012AE030E040E050E0A4
:1059E0000E94553D362E2AE029833DC0163190F5A0
:1059F0001F5F163111F435E13983AAE0B0E0A5014B
:105A000094010E94A83D4B015C01312C2CC08B30CD
:105A100008F03394212C80911E018B3008F0BBCF0D
:105A200080911D0187FF03C08F5F9981890F830DCE
:105A300090E0E9816E2F70E06F5F7F4F0E94423DE2
:105A4000382E822D0E944323282EFFEEF81708F0EF
:105A5000A6CEA1CF2AE0298333243394812C912C24
:105A60005401839411E1212C9ACEA4E0B0E0EBE341
:105A7000FDE20C94413E85E192E0E8D183E280931F
:105A8000800010926F008FEF90E090938B008093D6
:105A90008A0083E086BB1092820015B881E184B948
:105AA00018B881E087B9229A81E090E0909389004C
:105AB0008093880089E08093810010E000E0A2E3F9
:105AC0007A2E612CB4E6CB2ED12CE12CF12C88243B
:105AD0008A9483E0982EA12CB12C7016E9F183E60C
