:100000000C9458050C946A050C946A050C946A05C6
:100010000C946A050C946A050C946A050C940B1FE9
:100020000C946A050C946A050C946A050C946A0594
:100030000C946A050C946A050C946A050C946A0584
:100040000C946A050C946A050C946A050C946A0574
:100050000C946A050C946A050C946A050C946A0564
:100060000C946A050C946A05872B952C8B2E8D2E8B
:10007000912E942EF332442FBA2FF332D02F0B301F
:10008000F332F332F332F332F3324130F332F332FC
:10009000F332F332F3327531E731F332BE3200001E
:1000A00000008060101008C8C40404048448281F9D
:1000B0001060800000000808083EC908080808FF12
:1000C000FF14224180C000000000C13E000000007B
:1000D00000000003040408091110101111090A7C22
:1000E000040300000000000000008060101008C839
:1000F000C40404C48448281F10608000000008085D
:10010000083EC908080808FFFF14224181010000C9
:100110000000C13E000000000000000304040809C4
:100120001110101010090A7C0403000000000000E8
:10013000000080601010C808E44444444448487FEC
:100140001060800000000000003EC1000000FF00C1
:100150009C08081C3E0808F80000C13E0000010190
:100160000101010305050908131111111109097F86
:1001700004030000000040404040C0605050C808E8
:10018000E4444444444848FF1060800000000000FC
:10019000003EC1000000FF009C08083E1C08080F3C
:1001A0000000C13E00000000000000030404090834
:1001B000131111111109097F040300000000000050
:1001C000000080601010C808E44444444448487F5C
:1001D0001060800000000000003EC1000000FF0031
:1001E000FF08081C3E0808F80000C13E000001019D
:1001F0000101010305050908131111111109097FF6
:1002000004030000000040404040C0605050C80857
:10021000E4444444444848FF10608000000000006B
:10022000003EC1000000FF00FF08083E1C08080F48
:100230000000C13E000000000000000304040908A3
:10024000131111111109097F0403000000000000BF
:10025000000080601010080804E48484848888FF0B
:10026000106080000000808080BEC1808080E0C07F
:1002700080FF8080808080800000C13E0000000000
:100280000000000304040B09101310101008087F6D
:100290000403000000008080808080E09090C8E827
:1002A00084E48484848888FF10608000000000005B
:1002B000003EC1000000010300FF8080808080803C
:1002C0000000C13E00000000000000030404080814
:1002D000101310101008087F040300000000000035
:1002E0000000806010108808C40404048448281F9B
:1002F0001060800000000808083EC9080808FF00D8
:10030000FF14224180C000000000C13E0000000038
:1003100000000003040408081110101111090A7CE0
:100320000403000000000000000080601010880836
:10033000C40404C48448281F10608000000008081A
:10034000083EC9080808FF00FF142241810100008F
:100350000000C13E00000000000000030404080883
:100360001110101010090A7C0403000000000000A6
:10037000000000000020E0E0E0E0FEE0E0E0E0203F
:1003800000000000000000000000000000808083EA
:100390008FBFFFBF8F838080000000000000000837
:1003A000080808080808080402017F00000000008F
:1003B00000000000000000000080808080808080BD
:1003C0008080FE80808080808080808000000000AF
:1003D0000080E0F8FEFFFEF8E0800001071F7FFFCD
:1003E0007F1F070100001010101111090503010102
:1003F0000101FF01010101010101010100000010E3
:1004000010101010101010204080FE00000000009E
:100410000000000000000000000000000001071FB5
:100420007FFFFFFF7F1F07010000000000000000AA
:10043000000000000004040404057F050404040413
:1004400000000000000040404040C06090100808DC
:1004500004E48484848888FF106080000000000029
:10046000003EC1000005060708FF80808080808074
:100470000000C13E00000000000000030404080862
:10048000101310101008087F040300000000000083
:10049000000000000000087F3E1C087F7F08087FE6
:1004A0007F081C3E7F08087F7F00007F7F084C5E2E
:1004B0007202725E4C00C07E3E403E7E4000087F6D
:1004C0007F414141414141414141417F7F08C07CE1
:1004D0007E43417F7FC07F7F40407F7FC0007F7F22
:1004E0004444447C3800667F1909097F7F00C07C42
:1004F0007E427E7EC0007E7E40407E7EC0007E7E4C
:1005000048487830000000000205020000000000AA
:100510000000000000000000006F6F000000000BF2
:100520000700000B0700147F7F147F7F1400042E48
:100530002A6B2A3A10006373381C0E676300367FFB
:10054000494F3E7848000000070B00000000000003
:100550001C3E63410000000041633E1C0000002A75
:100560001C3E3E1C2A000018187E7E181800000051
:10057000B070000000000808080808080800000023
:100580006060000000006070381C0E0703003E7FB2
:100590004141417F3E000000427F7F400000627386
:1005A0005159494F46002263414949773600181C8A
:1005B00016137F7F100027674545457D38003E7F35
:1005C0004949497B3200030371790D070300367FE7
:1005D0004949497F3600266F4949497F3E0000005E
:1005E000003636000000000000A66600000000088B
:1005F0001C36634100001414141414141400004138
:1006000063361C0800000203595D070600003E63C4
:100610005D555D6B2E007C7E1311117F7F007F7F07
:100620004949497F36003E7F4141416322007F7F37
:100630004141633E1C007F7F4949494141007F7F22
:100640000909090101003E7F414149793A007F7F54
:100650000808087F7F000000417F7F410000307064
:1006600040417F3F01007F7F0C1E336140007F7F50
:100670004040406060007F7F060C067F7F007F7FE8
:100680000C18307F7F003E7F4141417F3E007F7FDD
:100690001111111F0E003E7F4141713F5E007F7FAF
:1006A0000909097F7600266F4949497B3200030119
:1006B000017F7F0101033F7F4040407F3F000F1FCC
:1006C0003060301F0F003F7F4038407F3F00617334
:1006D0001E0C1E73610000070F78780F070063710E
:1006E000795D4F47630000007F7F414100000307B1
:1006F0000E1C38706000000041417F7F0000080C34
:100700000603060C08008080808080808000000046
:10071000070B00000000307A4A4A7E3C40007F7F91
:100720004444447C38003C7E424242662400387C8B
:100730004444447F7F003C7E4A4A4A6E2C000008B5
:100740007E7F090A00001C3EA2A2927E3C007F7FB1
:100750000404047C78000000487D7D4000000040D7
:10076000C088FD7D00007F7F081C366240000000CD
:10077000017F7F0000007C7E023C027E7C007E7E4A
:100780000402027E7C003C7E4242427E3C00FEFE31
:100790001212121E0C001C3E222222FEFE007E7E41
:1007A0000402020E0C00246E4A4A4A7A3000040405
:1007B0003F7F446420003E7E4040207E7E000E1E2F
:1007C0003060301E0E003E7E4038407E3E00426665
:1007D0003C183C6642000E1E909090FE7E004262E5
:1007E000725A4E46420000083E7741410000000028
:1007F000007F7F00000000004141773E08000808AC
:1008000008080808080800000000000000007F7FBA
:100810004949497B30007F7F0101010303007E7F4E
:100820004A4A4B4A0000637F0C7F0C7F63002263BF
:100830004949497F36007F7F30180C7F7F007F7FDA
:1008400030190C7F7F00407C3E03017F7F007F7F5B
:100850000101017F7F004F5F5050507F3F001C3EE1
:10086000227F223E1C000F1F1010107F7F007F7F11
:10087000407E407F7F00017F7F44447C38007F7F43
:10088000447C38477F0022634149497F3E007F7F97
:10089000083E417F3E00667F1909097F7F003C7E4C
:1008A0004A4A4A7B31007E7E4A4A4E7C30007E7E38
:1008B0000202020200003C7E4B4A4B4E2C00667E38
:1008C000087E087E66002466424A4A7E34007E7EA8
:1008D0002010087E7E007E7E2011087E7E007E7EB7
:1008E000081C3662400040783C06027E7E007E7E18
:1008F0000C100C7E7E007E7E0808087E7E007E7EC8
:100900000202027E7E0006027E7E020600000E1EAD
:100910001010107E7E007E7E407C407E7E00027E37
:100920007E48487830007E7E4878304E7E007E7E5D
:100930004848783000002466424A4A7E3C007E7E69
:10094000083C427E3C004C7E3212127E7E00C07C0F
:100950007E43417F7FC0C07C7E427E7EC000387C6B
:1009600044FE447C38007F7F4040407F7FC07E7ED5
:1009700040407E7EC0007F7F407E407F7FC07E7E85
:10098000407C407E7EC0FF01020304050607FFFF96
:10099000FFFFFFFFFFFFFFFFFFFFFFFFFFFFFFFF67
:1009A000FFFFFFFFFFFF1011121314151617181980
:1009B0001A1B1C1D1E1F202122232425262728291F
:1009C0002A2B2C2D2E2F303132333435363738390F
:1009D0003A3B3C3D3E3F40414243444546474849FF
:1009E0004A4B4C4D4E4F50515253545556575859EF
:1009F0005A5B5C5D5E5F60616263646566676869DF
:100A00006A6B6C6D6EFFFFFFFFFFFFFFFFFFFFFFD5
:100A1000FFFFFFFFFFFFFFFFFFFFFFFFFFFFFFFFE6
:100A2000FFFFFFFFFFFFFFFFFFFFFFFFFFFF72FF63
:100A3000FFFFFFFFFFFF0FFFFFFFFF05FFFF85FF2A
:100A4000FFFFFFFFFFFF3170327108357374757659
:100A50003B773D383F78403344797A48097B7C9D29
:100A60007D7E0A7F8081518283840C5586878889A8
:100A70008A8B8C8D5F8E60538F699A680D90919EE2
:100A800092930E959697050A0605060A050A060929
:100A9000060A050A0609060A050A0609060A050ADB
:100AA0000609060A050A06050A06090A06090A06CB
:100AB00011241FBECFEFD8E0DEBFCDBF21E0A0E004
:100AC000B1E001C01D92A73EB207E1F70E943224B7
:100AD0000C9481350C940000A0E0B0E0E2E7F5E072
:100AE0000C945535613039F0623071F06330A9F003
:100AF00080E090E04DC0CCE6D2E0E7E0F0E002E339
:100B000010E028EE33E011C0C0E1D2E0ECE2F0E00A
:100B100009E110E02CE231E008C0C0EDD1E0EEE1E7
:100B2000F0E009E110E028EC30E08217930768F16B
:100B3000821B930BB8010E94B234D02ED81ACB017D
:100B40009927E817F90708F46E2FC60FD11DC60FB5
:100B5000D11DCE010E9464347C01CE0102960E9418
:100B60006434FC01E81AF90ADE9C9001DF9C300D28
:100B70001124C80196958795820F931FB8010E9492
:100B8000B234CF01860F971F03C0D02E60E0DDCFB7
:100B9000CDB7DEB7E7E00C947135CF93C82FC09581
:100BA00095B160FF02C0982B01C09C2395B994B108
:100BB000892B84B963FF03C00E94212402C00E94D4
:100BC0001C2484B18C2384B985B1C823C5B9CF91C5
:100BD0000895A0E0B0E0EFEEF5E00C945435E62E79
:100BE000042FCCE8D1E0888369834A83C82ED12CB6
:100BF000C60189539E4F0E945C348E83F12CC7013D
:100C000089539E4F0E945C348F8310E0C801895342
:100C10009E4F0E945C348887C60186539E4F0E9477
:100C20005C348987C70186539E4F0E945C348A8753
:100C3000C80186539E4F0E945C348B87C601835344
:100C40009E4F0E945C348C87C70183539E4F0E9445
:100C50005C348D87C80183539E4F0E945C348E871D
:100C6000C6018C539E4F0E945C348F87C7018C5302
:100C70009E4F0E945C34888BC8018C539E4F0E940B
:100C80005C34898BCDB7DEB7E8E00C947035ECE8C6
:100C9000F1E04581648183810E94E9050895CF9345
:100CA000DF938F70C82FC064C0937C00DC2FD07C92
:100CB00080916C01D81721F00E942624D0936C01FA
:100CC00080917A00806480937A0080917A0086FD1A
:100CD000FCCF20E030E0A90180E0E0916A018E17AE
:100CE00008F590917A00906490937A0090917A0040
:100CF00096FDFCCF6091780070917900260F371F28
:100D0000411D511D843061F4211594E0390740F4F0
:100D1000D03C31F090916B01913011F4C06CC4CF94
:100D20008F5FDBCFD03C29F4A0916D01B0916E01B3
:100D300004C0A0916F01B09170010E9437352AE084
:100D400096958795779567952A95D1F72E2F30E060
:100D500040E050E00E94DA34C901DF91CF9108955C
:100D6000A6E0B0E0E6EBF6E00C94513517B818B801
:100D700015B88FE384B980E00E944F069A83898377
:100D800081E00E944F069C838B8382E00E944F0685
:100D90009E838D83E12C12E008E2FF24F394AA24C1
:100DA000A394B12C1F5F133009F410E0C12ED12C95
:100DB0008E2D90E0012E02C0959587950A94E2F75A
:100DC00080FDF0CF812F0E944F06F601EE0FFF1F2E
:100DD00021E030E02C0F3D1FE20FF31F2081318115
:100DE0008217930768F491838083202F30E02F19B6
:100DF00031092431310564F40B3E50F40C5E08C017
:100E00008A30910518F4083209F400E5F39402C021
:100E1000FF24F3948330910540F4C5010C2C01C0EC
:100E2000880F0A94EAF7E82A0BC08032934040F416
:100E300097B0C60183539E4F0E945C34892987B9BD
:100E400087E0E81681F10F1540F581E08093D0012D
:100E50008093D1011093D601C60183539E4F0E9407
:100E60005C3497B18095982397B9C60186539E4FFD
:100E70000E945C34082FC60189539E4F0E945C3447
:100E800094B1802B8095892384B9812F0E944F06CD
:100E90009093D8018093D70106C0A89582E390E093
:100EA0000E94171F7FCF14B817B82696EBE00C945A
:100EB0006D35CF93C82F0E941B248C2F0E944F06A4
:100EC000CF910895CF93C82F0E941D248C2F0E948C
:100ED0004F06CF910895A0E0B0E0E1E7F7E00C9471
:100EE0004F359091D001913009F490C4C62ED82E80
:100EF000A8950E94E90515B88091930184B9809165
:100F0000980187B988B960E1809194010E94CD056C
:100F100080919C010E9462078C01813D934050F0BA
:100F200061E1809194010E94CD0580919C010E9415
:100F300062078C010031110528F48091D2018111E2
:100F400096C17BC18091D201811171C10B3E31E00C
:100F5000130728F098EEA92EBB24B39403C088E2AF
:100F6000A82EB12C9091930180919701892B84B97F
:100F700080919C010E9459074C018091970185B98D
:100F800080919C010E945907EC01C4018A0D9B1DB0
:100F90008C179D0708F068C08091940184B985B9C9
:100FA00018B88091990187B980919D010E945907D5
:100FB00017B8772473948C3B924008F0712C809181
:100FC000980187B980919D010E9459077C01809109
:100FD0009B010E944F0617B88E159F0548F4E81A2A
:100FE000F90A82ECE81681E0F80610F4772473948D
:100FF0008091990188B987B9909192018091970168
:10100000892B84B915B880919B010E9459077C01F6
:101010008091970185B980919B010E9459078E1993
:101020009F097C0118B88091990187B9909192012C
:1010300080919701892B84B985B980919D010E9487
:10104000590788349F4028F089E18093D10184E0DA
:1010500006C0711009C089E28093D10186E08093B7
:10106000D901C819D90959C018B88091990187B90F
:101070009091920180919701892B84B985B98091D3
:101080009B010E9459077C018091920185B9809152
:101090009B010E945907E701C81BD90B8A0D9B1DB4
:1010A0008E159F0508F0C3C08091940184B915B8CE
:1010B0008091990187B988B980919D010E94590753
:1010C0005C0118B88091980187B990919301809143
:1010D0009701892B84B985B980919C010E94590799
:1010E0007C018091930185B980919C010E945907F0
:1010F000E81AF90A15B88091980188B987B98091E2
:101100009D010E945907813D934008F022C38AE166
:101110008093D10185E08093D9018FE18093D00144
:101120008091D20181608093D20140918E014093E1
:10113000740180918C0190918D01EC16FD0608F0F0
:1011400013C38093750190937601CE0162E370E042
:101150000E94B234CE01861B970BE816F90608F000
:1011600008C360917601809175010E94E905909114
:10117000990180919A01892B87B99091920194B934
:101180002091D10120FF01C318B895B9C0916F011A
:10119000D091700180919B010E9459079E01281BEC
:1011A000390BC9014091AE015091AF014057554EE6
:1011B0009C01A0E1B7E20E9421359A0140E050E095
:1011C0000E94DA342093820130938301409384019A
:1011D000509385018AEF80938601909196018091CA
:1011E0009701892B84B99091980197B92091D101E9
:1011F00020FFD6C215B898B90E941C2480919C018A
:101200000E944F06EC0180919D010E944F068C1BAD
:101210009D0B90937D0180937C012091D10120FF53
:10122000C2C280549D4E813C924108F0C0C2013D33
:1012300083E0180708F028C180CE8091930184B91B
:1012400015B88091980187B988B90E941D249091A2
:10125000930180919401892B84B98C2D0E9462079F
:101260008F359D4020F0B80182E00E94811080916E
:10127000D201811143C28091990187B918B8909128
:10128000920180919401892B84B985B98D2D0E949A
:1012900062078034964008F08AC080919D010E94C8
:1012A0004F06EC0180919C010E944F067C0160E199
:1012B000809194010E94CD0580919B010E9462075C
:1012C0006C0115B80E941D248091920185B980910E
:1012D0009B010E94620740E4C41646E0D40608F071
:1012E0005EC08133914108F45AC014B815B880919A
:1012F000990188B90E941D248091920184B980913E
:101300009B010E946207853F910508F048C060E19B
:10131000809194010E94CD0580919B010E946207FB
:101320006C018D3D924060F482E28093D001809107
:10133000D20181608093D2018AE08093D9013CC2BE
:101340008091920185B90E941D2415B880919B015E
:101350000E946207853F910510F58091D00181328E
:1013600029F48091D20181608093D20181E280933F
:10137000D0018BE08093D90180917E0190917F0113
:101380008C159D05A0F4C601A0E0B0E080937E011D
:1013900090937F01A0938001B09381010DC2809151
:1013A000D001813221F0B80181E00E94811080914A
:1013B000D2018111A3C18091D40181119FC10E94EA
:1013C000AD1A8091D401813009F098C1C091BD015E
:1013D0008090BE019090BF01A090C001B090C1016B
:1013E000E12C08EB1BE020E030E04C2FC501B401FC
:1013F0000E94A621813061F408E91AE320E030E080
:101400004C2FC501B4010E94A62191E08F3F09F045
:1014100090E01092D401992309F470C115B880911D
:10142000930184B98091980188B987B980919C0112
:101430000E946207EC018091940185B9909193011B
:10144000892B84B980919C010E946207C817D90733
:1014500008F054C19C012C1B3D0B293E334008F47D
:101460004DC12091D301243209F0B9C12091D2019C
:1014700022602093D20120910D0130910E0182173C
:10148000930708F43BC1ABC18091D201811146C0E2
:1014900080919B010E944F06EC0180919C010E946B
:1014A0004F067C0180919D010E944F068C0117B868
:1014B0008091980188B98091970185B990919301A5
:1014C000892B84B982E390E00E94171F80919801D4
:1014D00087B980919C010E944F060A97F8F483E235
:1014E0008093D3018CE08093DA0180918E01809308
:1014F0000A0180918C0180930B0180918D01809372
:101500000C01CE018E199F0990930E0180930D015D
:10151000C01BD10BD0931001C0930F01A8950E945E
:10152000B0068091D001813009F40EC118B88091C5
:10153000990187B980919B010E944F064C018091CF
:10154000950184B985B961E1809194010E94CD052E
:1015500080919B010E9462075C018091920184B995
:1015600085B961E1809194010E94CD0580919B0134
:101570000E9462078C0180919C010E944F066C01C1
:101580000E94B0068091D001813009F4DDC018B806
:101590008091990187B980919B010E944F067C013F
:1015A00017B88091980188B987B915B880919601CC
:1015B00084B960E1809194010E94CD0580919B01E6
:1015C0000E946207EC0180919C010E944F06C8179F
:1015D000D90718F0C81BD90B02C0C0E0D0E00C1925
:1015E0001D098091930184B960E1809194010E946A
:1015F000CD0580919B010E9462076C0180919C0146
:101600000E944F06C81AD90A17B8C016D10630F47E
:10161000C8018C199D097401E50104C0C601801B35
:10162000910B8601893E934008F068C0C630D10511
:1016300008F464C0EC16FD0620F4CE018E199F0953
:1016400003C0C7018C1B9D0B33E0E316F10420F0AF
:101650008436910508F452C0C832D10538F0C8016B
:10166000875991098938914158F148C015B880913E
:10167000930184B98091980188B987B980919C01C0
:101680000E9462077C018091920184B98091990146
:1016900088B987B980919B010E9462079C01C701AC
:1016A00064E170E00E94B234C701861B970B821779
:1016B0009307A8F66E0D7F1D2617370780F61EC00C
:1016C0008091D001882311F08A3019F484E180934D
:1016D000D0018091D50196E0899FF0011124EF5E41
:1016E000FE4F90918C01908390918D019183138393
:1016F0000283D583C4838F5F8093D5018091D0010D
:10170000882311F08A3019F40E94AD1A1DC08F3160
:10171000D9F42091D10124FF17C0809176019091D6
:10172000750120FF03C0682F892F01C0692F0E9417
:10173000D50C892B49F01092D0011092D1018091E3
:10174000D2018E7F8093D20117B818B814B815B89B
:101750005DC04DECA41640E1B40608F068CD8AE205
:101760008093D10187E0D7CC909375018093760167
:10177000ECCCC60FD71FCE15DF0508F4F2CC809154
:10178000D10180648093D101ECCC88B915B88091E7
:101790009B010E9459074091AC015091AD0106CDCB
:1017A00085B918B829CD813C924108F440CD1092FA
:1017B0007D0110927C013BCD80918E01809374015C
:1017C00080918C018093750180918D0180937601C9
:1017D000CE19DF09D0937901C0937801E8CD24E2D6
:1017E0002093D3012DE02093DA0120918E012093E4
:1017F0000A0120918C0120930B0120918D012093EF
:101800000C0190930E0180930D0178CFCDB7DEB718
:10181000EDE00C946B35CF93DF9340E00E94E90537
:1018200017B89091920195B980919301892B84B951
:1018300080919B010E946207EC0180919C010E94B3
:101840004F06AC0120916F013091700136952795BC
:10185000C9014E978C179D0760F4225E3F4FC21757
:10186000D30738F48417950720F481E04217530713
:1018700008F080E014B8DF91CF910895CF9361E034
:1018800080E00E940B0CC82F62E080E00E940B0CED
:10189000C80F62E081E00E940B0C8C0FCF9108957D
:1018A0000F931F93CF93DF9381E08093A1010E9458
:1018B000301780EC91E00E94A21ECCEAD1E0688152
:1018C000798180E090E024E04FEF0E94461D8CEB90
:1018D00091E00E94CD1E6A817B8180E090E024E04F
:1018E0004FEF0E94461D89EB91E00E94CD1E6A8554
:1018F00070E080E090E026E444EF0E94461D86EB15
:1019000091E00E94CD1E6C817D8180E090E020E01E
:101910004EEF0E94461D0E94621E6E817F8180E014
:1019200090E020E04EEF0E94461D0E94A71E0E94FC
:10193000621E6885798580E090E024E04EEF0E9489
:10194000461D81EB91E00E94CD1E07E611E0F801F3
:101950006681778180E090E026E54DEF0E94461D8C
:101960008DEA91E00E94CD1EF8016085718580E0CE
:1019700090E026E54DEF0E94461D87EA91E00E9427
:10198000CD1E6C85062E000C770B880B990B26E577
:101990004DEF0E943F1E65E188EB9BE00E94C41F53
:1019A000DF91CF911F910F9108959091D501E1E1C1
:1019B000F1E0992349F02081281303C021812617E3
:1019C00029F091503696F5CFE0E0F0E0CF01089590
:1019D000CF92DF92EF92FF92CF93C82F15B88091EC
:1019E000930184B98091980187B988B980919C014D
:1019F0000E9462078430910500F1C090AC01D09044
:101A0000AD01E12CF12C893725E0920770F0C1304F
:101A100061F414B89091980180919901892B87B94C
:101A200080919C010E944F0606C020E9C20E2AE167
:101A3000D21EE11CF11CC9EF0FC08091960184B940
:101A400080919C010E94620720EFC22E2BE2D22ED1
:101A500027E0E22EF12CC8EF17B818B814B815B863
:101A6000DC0120EA36E841E050E00E943735A7016A
:101A700096010E94DA3420938201309383014093CF
:101A8000840150938501C0938601CF91FF90EF9020
:101A9000DF90CF900895A0E0B0E0E1E5FDE00C9488
:101AA0004F35A42EB12C2FE0429FF0011124EB5CA6
:101AB000FE4F1082118294EF928317821086118656
:101AC0001286138214821582168213861486158656
:101AD00016869091D001913009F40EC3D62EF82EBF
:101AE0009A3041F59090D401CBEBD1E0C12CC914D0
:101AF000F0F488818F1103C099819D1529F08D1113
:101B000013C08981F81210C06B817C818D819E8108
:101B1000E12C0AE010E020E030E04A810E94A6219A
:101B20008F3F11F4B3E6CB2EC3942796E0CF84E623
:101B3000C812E2C26D2D8F2D0E94D50C009739F08E
:101B4000FC01828193818C3D954008F4D5C240E030
:101B50006D2D8F2D0E94E905F1E19F2EA3E07A2ED5
:101B60000E94B0068091D001813009F43EC218B8BD
:101B70008091990187B915B814B880919B010E9492
:101B80004F068C01E12CF12C2FEFE21AF20A692D9D
:101B9000809192010E94CD0580919B010E944F0689
:101BA0000817190708F03BC2EC01C01BD10B8EE7E8
:101BB000E816F10429F4CB34D10508F08EC208C030
:101BC000CC3291E0D90720F481E003C0C0E0D0E03E
:101BD00080E0E4EFEE16E1E0FE0609F480E0A8956F
:101BE0008111D2CFCC32F1E0DF0710F47724739467
:101BF00021E0E216F10491F4C53185E0D80770F0D8
:101C0000892D8071E9E09E2E09F0AACF0E94B006CE
:101C10008091D001813009F0E6C0E7C193E07912EC
:101C2000DEC0670180E090E0C114D10459F0E1E02A
:101C3000CE1AD10880919B010E944F06801B910B08
:101C4000A895F2CF8C179D0748F46E01C81AD90ADF
:101C5000F5E6CF16D10420F0712C02C0C12CD12C96
:101C600080919B010E944F068C01292D2071822EAC
:101C700019F00E94112402C00E94162480919B0139
:101C80000E944F068017910718F4081B190B02C019
:101C900000E010E083E07812A2C062E0C6018C0F81
:101CA0009D1F0E946C059C01D7010E9421356B018C
:101CB0007C01882039F1AAE0B0E09B01AC010E94D0
:101CC00037356B017C0198E3C91699E8D90691E490
:101CD000E906F10408F408C2C701B60128EE33E0B2
:101CE00040E050E00E94DA3469017A01A8EEB3E0E6
:101CF0000E943735CAEF882089F022E434E040E0C2
:101D000050E010C0683379488144910528F7A8EE67
:101D1000B3E0A70196010E943735C7EF20E134E018
:101D200040E050E00E94DA348FE08A9DF0018B9D04
:101D3000F00D1124EB5CFE4F80918D01808380912A
:101D40008C018183C283C782D086E186F286238399
:101D50003483458356837AE0C72ED12CE12CF12CB5
:101D60002130E5E33E07ECE04E07510540F0CA01A3
:101D7000B901A70196010E94DA34CF5FF1CFD801F3
:101D80000E94373528EE33E040E050E00E94DA341C
:101D900093FCCF5F6AE0C62ED12CE12CF12CC83F1A
:101DA00089F044F4CA01B901A70196010E94DA340E
:101DB000CF5FF5CFAAE0B0E00E9437359B01AC01C0
:101DC000C150EDCF8FE08A9DF0018B9DF00D112465
:101DD000EB5CFE4F2387348745875687F1C0F2E0DE
:101DE0007F12EEC013CF15B887E087B918B880917D
:101DF000950184B980E480937B0084E480BF809166
:101E00009B01806480937C0086E080937A000E942E
:101E1000252410928000109281001092850010926B
:101E2000840087E286BB8091950185B98091D001BD
:101E30008F3129F4809198018095877002C080913C
:101E4000990191E09093810087B9E12CF12C86B340
:101E500085FD0CC080FFFBCF96BBA8952FEFE21A43
:101E6000F20AE0E4EE16E6E0FE0689F71092810041
:101E700090E296BBC0908600D090870014B8209165
:101E8000840030918500C216D30638F480FF05C067
:101E900081E086BBFFEFEF1AFF0A86E980937A00A4
:101EA00080917B008F7B80937B0080919B010E94BF
:101EB0004F06EC0115B88091950184B920E4E21633
:101EC00026E0F20608F07CC0C601A0E0B0E06701A1
:101ED000E12CF12C7601DD24CC24C82AD92AEA2A67
:101EE000FB2AE3E0CE16D104E104F10408F4A0C01B
:101EF00082E0C81AD108E108F10898E3C91699E808
:101F0000D90691E4E906F10408F492C0C701B601CC
:101F100028EE33E040E050E00E94DA3469017A01B3
:101F200017EF2091B80180916D0190916E0161E0F1
:101F3000820F911D27FD9A950E946C05DC01A70177
:101F400096010E94373520E233E040E050E00E94E5
:101F5000DA34143F09F06EC08091B60190E0A0E041
:101F6000B0E0281739074A075B0708F466C0690123
:101F70007A01C81AD90AEA0AFB0A8FE08A9DF001A1
:101F80008B9DF00D1124EB5CFE4F80918D018083C1
:101F900080918C0181831283278330874187528708
:101FA000C382D482E582F682143F09F04AC0E0EA97
:101FB000CE16E6E8DE06E1E0EE06F10408F04CC0DD
:101FC0008091D001843120F58A3079F48FE08A9DA8
:101FD000F0018B9DF00D1124EB5CFE4F82818A3F56
:101FE000BCF08BE08093D00113C08FE08A9DF0019C
:101FF0008B9DF00D1124EB5CFE4F8281853F8CF7A9
:1020000083819481A581B6810597A105B10548F723
:102010000E94B00617B818B814B815B86DC09EE77E
:10202000E916F10409F4D2CD81E0C0E0D0E0D1CDD1
:1020300014EF77CF69017A01A0CFC12CD12C7601A2
:102040009CCF173F09F0BCCFF1E2CF16FEE4DF06CC
:10205000E104F10408F0B4CF80919B010E944F0687
:10206000853D9340C8F714B810926B0180919B0195
:102070000E944F068C0181E080936B0180919B014F
:102080000E944F06AC018091950184B9D801A41B30
:10209000B50B00916D0110916E01CD010496099769
:1020A00088F098010E9430359A0140E050E00E948B
:1020B000FC348091B701280F2093B7010C0D111D3E
:1020C000C7FC1A95C01BD10BCE01C1968336910572
:1020D00008F076CFC093B80173CF81E0CC32F1E045
:1020E000DF0708F47CCD7ACDA8EEB3E0A701960116
:1020F0000E943735C7EF01CECDB7DEB7EDE00C94C7
:102100006B35A5E1B0E0E7E8F0E10C944C358D8B40
:102110007B0180918C0180938F0180918D01809350
:10212000900180918E0180939101809197012D897A
:10213000213071F590919201892B84B985B90E9463
:10214000182400916F011091700180919B010E94F1
:102150004F06081B190BC0906F01D0907001809141
:102160009D010E944F06F601E81BF90BC801A0E093
:10217000B0E08D839E83AF83B887C090AE01D090CE
:10218000AF0188E49DE02DEF39E0A1E0A98726C0EA
:1021900090919301892B84B980919C010E946207E0
:1021A0008C0180919D010E944F06FC01C801A0E0B6
:1021B000B0E022273327A901281B390B4A0B5B0B00
:1021C0002D833E834F835887C090AC01D090AD01E2
:1021D00080ED97E021ED33E042E049872E173F077D
:1021E00008F0EEC18091D0018E31D9F48091D101F7
:1021F0009D89982311F484600CC05D89513059F495
:102200009091750180918C01981305C05093D00175
:1022100082E08093D1018091D20181608093D201CC
:1022200006C08EE18093D0018D898093D101E016A4
:10223000F10610F40E191F09D80120EF3BE247E028
:1022400050E00E9437359F0140E050E00E94DA34B0
:10225000AAE0B0E00E943735A0E7CA1AA5EEDA0A74
:10226000960140E050E029873A874B875C870E94BF
:10227000DA342D873E874F87588B29833A834B83E7
:102280005C83809194013D89313001F590919801F2
:1022900097B998B990919301982B94B985B9809189
:1022A0009C010E9462075C0100916F011091700116
:1022B00080919D010E944F06081B190B2501612C7E
:1022C000712CE091AC01F091AD0127C018B890914C
:1022D000990197B99091920195B9892B84B9A090F1
:1022E0006F01B090700180919B010E946207A81A53
:1022F000B90A80919D010E944F068C012501612C35
:10230000712C7094609450944094411C511C611C39
:10231000711CE091AE01F091AF010115110511F4AE
:1023200001E010E0C501801B910BB8010E94B2349E
:102330006B01E12CF12CA0E1B7E2A30192010E9414
:102340003735E057F54E9F0140E050E00E94FC34E5
:1023500030937B0120937A010031110508F07DC094
:10236000809197014D894130E9F490919301982B28
:1023700094B985B980919C010E9462075C0100912B
:102380006F011091700180919D010E944F06F8012C
:10239000E81BF90B2501612C712C8090AC01909009
:1023A000AD0122C090919201892B84B9A0906F0158
:1023B000B090700180919B010E946207A81AB90A2F
:1023C00080919D010E944F06FC012501612C712C1A
:1023D0007094609450944094411C511C611C711C79
:1023E0008090AE019090AF01309711F4E1E0F0E001
:1023F000D50120EF3BE247E050E00E9437359F01D6
:1024000040E050E00E94DA3480E7881A85EE980AAE
:10241000AAE0B0E00E943735A12CB12CA5019401AF
:102420000E94DA34298B3A8B4B8B5C8BC216D30615
:10243000E406F50690F4A0E1B7E2A30192010E9440
:102440003735A50194010E94FC3430937B01209321
:102450007A01C988DA88EB88FC882D853E854F850E
:1024600058892C153D054E055F0598F0A0E1B7E2AF
:102470002D813E814F8158850E94373529853A85C7
:102480004B855C850E94FC3449015A0131E03D8353
:102490000EC080907A0190907B01092C000CAA0854
:1024A000BB08C982DA82EB82FC8242E04D83C09095
:1024B0007E01D0907F01E0908001F09081015D89E4
:1024C00040E0513029F460918E0180918D0104C06B
:1024D00060918C0180918E010E944B0D0E944706F5
:1024E0008091D10182FF1EC0009138011091390105
:1024F00020913A0130913B016091870170918801F0
:102500008091890190918A01E090370140918B017F
:102510000E94A621813009F467C18D89846080936F
:10252000D1010AC089819A81AB81BC81C816D906C4
:10253000EA06FB0608F058C180E00E94E80C2981F9
:102540003A814B815C8120937E0130937F014093DF
:102550008001509381013D813093770190927D01FC
:1025600080927C018091380190913901A0913A01CB
:10257000B0913B018093870190938801A0938901DA
:10258000B0938A018091370180938B0180918E01F5
:102590008093740180918C0190918D014D8941301F
:1025A00039F480937501909376011092D9011CC182
:1025B000909375018093760181E08093D90114C1D5
:1025C00051E6E516F10408F00FC18017910708F0F5
:1025D0000BC180919B010E944F067C0180919C0160
:1025E0000E944F06D701A81BB90BCD01AA3FB10528
:1025F00008F042C02FE12093D00129852461209367
:10260000D101B985B13041F4A091AE01B091AF01D3
:10261000A057B54E22E007C0A091AC01B091AD012A
:10262000A057B54E23E02093D9014AE0489F90017E
:10263000499F300D11240E942135980140E050E05F
:102640000E94DA34E0918D0180918C01E80FE15015
:10265000F0E0EE0FFF1FE055FE4F80819181821761
:10266000930718F4281B390B02C020E030E03093A8
:102670007901209378010FC080E28093D001898591
:1026800084608093D1012985213011F488E001C054
:1026900089E08093D90139853170932E498540FFB7
:1026A00008C00091920150919801598320E1822E37
:1026B00007C00091930180919901898391E1892E4E
:1026C00099819770998380919D01806480937C00AB
:1026D0000E9426241AE0C12CD12C7601AA24AA94A7
:1026E00083E0B82EA895682D809194010E94CD05B5
:1026F00080919701802B84B9992029F086B1A98116
:102700008A23E1F704C086B1B9818B23E1F304B9D0
:1027100080917A00806480937A0080917A0086FDAF
:10272000FCCF8091780090917900992029F0C80E13
:10273000D91EE11CF11C07C09501281B390BC21AD8
:10274000D30AE108F108115069F6C701B6012AE081
:1027500030E040E050E00E94FC34A0916F01B09165
:1027600070010E94373520E034E040E050E00E94E4
:10277000FC3430937B0120937A0180E480936C01D8
:102780008091D20181608093D20180918E018093EB
:10279000740190918C0120918D013985313029F49B
:1027A000909375012093760104C020937501909356
:1027B000760140E0609176010E944B0D80913801D6
:1027C00090913901A0913A01B0913B01809387012A
:1027D00090938801A0938901B0938A018091370179
:1027E00080938B010E9447066596E0E10C94683562
:1027F000A4E0B0E0EEEFF3E10C944A35009729F441
:102800006FEF7FEF7C836B8381C19C838B83FC01A3
:10281000638174818581968157EFE52E0AE010E08F
:1028200020E030E042810E94A62187FDE9CF0E948E
:10283000B0068091D001813019F3EB81FC811181C8
:10284000008117B818B814B815B840E0612F802F70
:102850000E94E9058091980187B980919C010E94AE
:102860004F067C018091990187B980919B010E945C
:102870004F06E816F90628F440E0602F812F0E94E9
:10288000E9058091980187B98091930184B912E399
:1028900080919C010E944F069C018039914038F044
:1028A000115069F084E690E00E94171FF1CF87B1C4
:1028B00090919901982B97B92832310588F717B86C
:1028C00014B840E0EB81FC81618180810E94E905C0
:1028D00000919B0180919C01006C806C8A8315BCE7
:1028E00082E084BD81E287BD18B800937C000E941D
:1028F0001C24FFEFF983812C912C54018394412CEB
:10290000512C3201439422E3C22ED12C80E090E07E
:1029100016EDA895C29758F48091990187B98091D6
:10292000920185B984B90E942F2414B815B822E306
:10293000C216D10458F48091980187B9809193010F
:1029400085B984B90E942F2414B815B880919801D4
:1029500087B98091920185B984B900937C00109366
:102960007A0080917A0086FDFCCF10937A008091E6
:102970007A0086FDFCCF20907800309079006A8143
:1029800060937C0010937A0080917A0086FDFCCFE2
:1029900010937A000E942B240E94CD1980919301FC
:1029A00085B984B90E942F2414B880917A0086FDDD
:1029B000FCCFC0907800D09079008091990187B9C0
:1029C0008091930185B984B97A8170937C001093CA
:1029D0007A0080917A0086FDFCCF10937A00809176
:1029E0007A0086FDFCCFE0907800F09079000093AB
:1029F0007C0010937A0080917A0086FDFCCF1093C2
:102A00007A000E942B240E94CD198091920185B9F1
:102A100084B90E942F2414B880917A0086FDFCCFDF
:102A20008091780090917900A70160E070E0420DFC
:102A3000531D611D711D440E551E661E771EAC018F
:102A400060E070E04C0D5D1D611D711D840E951ED2
:102A5000A61EB71EE981E150E983E1115ACF17B8EC
:102A600015B8481459046A047B0408F046C08091E4
:102A7000AC019091AD012AE0289FD001299FB00DB3
:102A80001124A501940124193509460957090E940A
:102A90003735A30192010E94DA34E0918D019091C3
:102AA0008C01E90FE150F0E0EE0FFF1FE055FE4F03
:102AB000808191818217930720F4B901681B790BFB
:102AC00019C0EB81FC8163817481858196813AEF25
:102AD000E32E08EE13E020E030E042810E94A621C0
:102AE00021E030E0181614F420E030E06627772764
:102AF000621B730B7C836B8304C08FEF9FEF9C83FF
:102B00008B8380EC80936C010E94B0068B819C814A
:102B10002496E2E10C94663598E087FF02C05B9A48
:102B200001C05B985A9A5A98880F9150B1F708954E
:102B3000A0E0B0E0EEE9F5E10C945435EC01162F7D
:102B400015B818B890919801062F017060FF05C064
:102B50008091930184B997B905C014B88091990107
:102B6000892B87B986E080937A0080E480937B008C
:102B700080919C01806C80937C0084E480BF0E94E3
:102B80002124A89510928000109281001092850057
:102B90001092840087E286BB90919801612F647047
:102BA00012FF0EC098B988E000008150E9F78091CB
:102BB000810081608093810020E030E081E009C0E5
:102BC0008091810081608093810098B9F5CF40FDAC
:102BD00004C046B345FFFBCF08C086BB2F5F3F4F05
:102BE00020323105B1F710E001C013E010928100EE
:102BF00080E286BB8091860090918700709193015E
:102C000050919201572B54B917B8E0918400F0917C
:102C100085008E179F0730F440FF04C041E046BB9B
:102C20002F5F3F4F46E940937A0040917B004F7BF6
:102C300040937B00112309F44AC0A0E0B0E0690191
:102C4000E12CF12C7601DD24CC24C82AD92AEA2AE9
:102C5000FB2A662339F08FE1C80ED11CE11CF11C60
:102C600083E001C084E001118F5F90E0A0E0B0E05C
:102C70008C159D05AE05BF0538F4A7019601281BEC
:102C8000390B4A0B5B0B03C020E030E0A901A2EE38
:102C9000B4E00E9437356B5F7F4F8F4F9F4F2AE024
:102CA00030E040E050E00E94DA34288339834A83E0
:102CB0005B83002331F0223E34404105510530F062
:102CC00006C0253631054105510508F412E080ECB7
:102CD00080936C01812FCDB7DEB7E8E00C9470359E
:102CE000EF920F931F931092D40140E00E94E905E8
:102CF0000E94AD1A8091D4018130A1F40091BE01EF
:102D00001091BF012091C0013091C101E090BD013F
:102D100043E069E170E080E090E00E94A62191E04C
:102D2000813009F090E0892F1F910F91EF90089565
:102D3000599A5D980E948C155D9A089559985D98EE
:102D40000E948C155D9A0895CF93C82F81E80E9448
:102D50009E168C2F0E949E16C093B901CF910895A4
:102D6000CF93DF93C82FD62F8F700E949E168C2F83
:102D700082958F7080610E949E168D2F806B0E94BD
:102D80009E16DF91CF910895EF92FF920F931F93BC
:102D9000CF93DF930091A201013130F5E82FF0E0ED
:102DA000EA57F64FC491CF3FF9F088E0C89FE001A1
:102DB0001124C257DB4F10919F016091A001812F18
:102DC0000E94B0167E01E8E0EE0EF11CFE01849137
:102DD0000E9498162196EC16FD06C1F70F5F00932E
:102DE000A201185F10939F01CDB7DEB7E6E00C9407
:102DF0007235E1EAF1E0818362838150880F880FA8
:102E0000880F80939F0161506093A0010E94B016CB
:102E100008951F93CF93DF93682F811105C06091B0
:102E2000A3018091A20101C081E00E94F916C09126
:102E3000A00111E01C0FC11778F4D0919F016C2FF5
:102E40008D2F0E94B016D43828F480E00E94981686
:102E5000DF5FF9CFCF5FEFCFDF91CF911F91089563
:102E6000CF93C1E08C2F0E940917CF5FC930D1F7F3
:102E700061E081E00E94F916CF910895CF93DF932E
:102E8000D82FC0E0CD1731F00E942B24CF5F319BAB
:102E9000F9CF01C0C0E08C2FDF91CF910895CF937F
:102EA000DF93D82FC0E0CD1731F00E942B24CF5FE5
:102EB0003199F9CF01C0C0E08C2FDF91CF910895F7
:102EC00090919E0128E03CE8492F4827969540FDC7
:102ED000932786952150C1F790939E010895CF9333
:102EE0003E9A0E942C243E980E942C240E942E245C
:102EF000C6B10E9427240E942C240E942F24C6FBC6
:102F0000882780F9CF910895CF93DF93D8E0C0E070
:102F1000C6950E946F178111C068D150C9F78C2FD8
:102F2000DF91CF9108953E9A882341F00E942C248E
:102F30003E980E9427240E942C2405C00E9427242A
:102F40000E942B243E980E942B240895CF93DF9358
:102F5000D82FC8E08D2F81700E949317D695C1504D
:102F6000C9F7DF91CF910895CF933E9A0E94222412
:102F70003E980E9427240E942A24C6B10E9423243E
:102F80000E942924C6FBCC27C0F981E08C27CF9171
:102F900008950F931F93CF93DF938C01909192012B
:102FA00080919301892B85B984B918B880919A01D1
:102FB00087B90E94222426B190919801922311F49E
:102FC000D0E001C0D2E080919901822309F0D16064
:102FD00014B817B8F8018081982F96959695492FC7
:102FE0004370969596954330C9F18370D817C1F117
:102FF0002D2F282720FF26952130A1F5880F2DE8B9
:1030000030E002C0359527958A95E2F72370D217F4
:1030100011F0C2E001C0C1E0C41326C09F5F94302C
:1030200021F50E94331E80918C0190918D01C13059
:1030300029F4809374019093750104C090937401F6
:103040008093750180918E018093760143E462E460
:1030500081E40E94B5238C2F90E008C0C0E005C039
:10306000C42F03C0C3E001C091E080E0CC0FCC0FBF
:103070009295907F9C2B9D2BF8019083DF91CF91AF
:103080001F910F910895CF93C82F0E94331ECC2318
:1030900041F0C13051F0C23061F44AE260E08AE2AE
:1030A0000BC04DE263E78DE207C04DE260E08BE2CA
:1030B00003C040E060E080E00E94912360E188E886
:1030C00093E10E94C41F0E94331ECF910895A4E093
:1030D000B0E0EDE6F8E10C944C35109262011092EC
:1030E00063011092640110926501109266010097CD
:1030F00009F45FC06C01FC01638174818581968154
:10310000E12C00ED17E020E030E042810E94A62192
:1031100087FF4FC040E0F601618180810E94E90590
:103120000E94B0068091D001813039F40E94B0062F
:103130008091D001813099F43CC065E0CE010196C8
:103140000E949815833091F589819A81AB81BC8169
:1031500089389341A105B10548F315E02CC061E021
:10316000CE0101960E9498158230E1F4F601638148
:10317000748185819681E12C08E210E020E030E046
:1031800042810E94A62187FF14C00E94B006809150
:10319000D001813071F062E0CE0101960E94981555
:1031A00012E001C011E0833031F003C0882309F43C
:1031B000BDCF80E0EEC0F601028183809480A580BF
:1031C000B6808AE0C82ED12CE12CF12C0F3FA9F05B
:1031D00054F4C501B401A70196010E94DA344901F3
:1031E0005A010F5FF3CFAAE0B0E0A50194010E945D
:1031F00037354B015C010150E9CFE0918D018091A1
:103200008C01E80FE150F0E0EE0FFF1FE055FE4F9C
:10321000808191810596E091AC01F091AD016091C2
:10322000AE017091AF016F01C60ED71E6AE070E06B
:103230000E94B2346C0D7D1D680D791D89809A80C5
:10324000AB80BC8010FF15C06057754EE057F54E3F
:1032500020E7821627E19206A104B104B0F08CE1C8
:10326000881685E29806A104B10490F024E130E0CC
:1032700017C089819A818C3D25E0920760F08838DB
:10328000934160F028E13CEF0BC026E230E008C03B
:1032900026EF3FEF05C024ED3EEF02C02CED30E0FD
:1032A0004091B80180916D0190916E01840F911D44
:1032B00047FD9A958901330F220B330BA901980121
:1032C000280F391F411D511D6B01E12CF12CC70145
:1032D000B6010E9488349F0140E050E00E94DA3439
:1032E000CA01B90125E030E040E050E00E94DA3444
:1032F00063E0C9010E946C058C01A501940167EF90
:10330000B62E7AE0472E512C612C712C213A86E89A
:10331000380781E04807510560F0CA01B9016B5FC9
:103320007F4F8F4F9F4FA30192010E94DA34B394D5
:10333000EDCFD8010E9437352AE0422E512C612C66
:10334000712C613AE6E87E07E1E08E07910560F0B6
:103350006B5F7F4F8F4F9F4FA30192010E94DA3422
:10336000CA01B901B394EDCFA70196010E94883438
:10337000B092620120E137E240E050E00E94DA348E
:10338000209363013093640140936501509366017B
:1033900081E02496E0E10C94683516BC81E085BD9F
:1033A000A99BFECF15BC82E085BB08954F925F922A
:1033B0006F927F928F929F92AF92BF92CF92DF9245
:1033C000EF92FF921F93CF93DF93C82F0E94B00616
:1033D0008091D001813009F456C018B880919901CC
:1033E00087B98091920185B984B90E941C24C12CAF
:1033F000D12C760181E0182F117080FF03C08091DD
:103400009B0102C080919C01A895806C80937C00F8
:103410000E94262480917A00806480937A008091B3
:103420007A0086FDFCCFD4E6812C912C540180914A
:103430007A00806480937A0080917A0086FDFCCFC8
:103440008091780090917900880E991EA11CB11C82
:103450000E942324D15059F7A0916D01B0916E01C3
:10346000A50194010E9437354B015C019AE0B694A6
:10347000A794979487949A95D1F782E0112331F01D
:1034800075016401B8CF60E070E056C015B8909146
:10349000990180919801892B87B98C149D04AE0401
:1034A000BF0408F044C020916F0130917001A4E680
:1034B000B0E00E9421359B01AC012C193D094E0959
:1034C0005F090E9437352B013C01A701960128199D
:1034D00039094A095B09A8EEB3E00E9437356B0150
:1034E0007C012091AE013091AF012057354E40E074
:1034F00050E0C301B2010E94DA34C701B6010E9454
:10350000DA34B901C130A9F4E0918D0190918C01B8
:10351000E90FE150F0E0EE0FFF1FE055FE4F808114
:1035200091818217930718F4681B790B02C060E041
:1035300070E080EC80936C01CB01DF91CF911F9103
:10354000FF90EF90DF90CF90BF90AF909F908F90C3
:103550007F906F905F904F900895A8E0B0E0E3EB0C
:10356000FAE10C944A35A89518B88091990187B969
:103570008091920184B985B980919C010E94620773
:103580004C0180919B010E944F069B838A8315B852
:103590008091950184B980919B010E9462074597B3
:1035A00008F070C28091950185B980919B010E94BD
:1035B00062076C018091980187B988B915B880912C
:1035C000930184B980919B010E9462072C01809134
:1035D0009C010E944F063C018091960184B9809124
:1035E0009C010E9462075C012A813B8120333141AA
:1035F00028F452E6C516D10438F044C26CE6C6166B
:1036000063E1D60608F03EC289EA6816710408F044
:1036100073C096E2A916B10408F434C2D60120EFB3
:103620003BE247E050E00E943735A0916F01B09136
:103630007001BB83AA839D012C193D0940E050E035
:103640000E94DA3429013A01AA81BB81AA19BB0977
:1036500020EF3BE247E050E00E943735850120E053
:1036600030E0A90198010E94DA34BEEDCB16B3E038
:10367000DB0680F4D301C20162E0880F991FAA1F04
:10368000BB1F6A95D1F7BC01CD01620F731F841F68
:10369000951F14C0EEEDAE16E3E0BE06B0F4DA01FD
:1036A000C90122E0880F991FAA1FBB1F2A95D1F7D5
:1036B000BC01CD01640D751D861D971D25E030E010
:1036C00040E050E00E94DA340CC0D301C201820F06
:1036D000931FA41FB51F9C01AD01569547953795C3
:1036E0002795225A3E4F4F4F5F4FAAE0B0E00E940D
:1036F00037354B015C0199C12A813B812815390579
:1037000008F48BC04614570408F487C040916F0139
:10371000509170012417350721F4215031093B8362
:103720002A832091AE013091AF012057354EAA81F6
:10373000BB81A819B9090E9421359A01AA81BB81D0
:103740002A1B3B0B40E050E00E94DA3449015A0149
:103750002091AC013091AD012057354ED201A61910
:10376000B7090E942135830120E030E0A9019801CA
:103770000E94DA34EA81FB81EE3DF34080F4D5010A
:10378000C401F2E0880F991FAA1FBB1FFA95D1F759
:10379000BC01CD01620F731F841F951F1BC08EEDEE
:1037A000681683E0780660F5283F94E2390791E0D7
:1037B00049075105A0F4DA01C901E2E0880F991F19
:1037C000AA1FBB1FEA95D1F7BC01CD01680D791D79
:1037D0008A1D9B1D25E030E040E050E00CC0A9E0D0
:1037E000B0E00E943735680D791D8A1D9B1D2AE0C7
:1037F00030E040E050E00E94DA3449015A0115C13E
:10380000D501C401820F931FA41FB51F4C015D0198
:10381000B694A7949794879408C1AFE86A16A2E17A
:103820007A0608F01FC181E00E94D6192C01612C94
:10383000712C812C912C540120E030E0A901280D3D
:10384000391D4A1D5B1DAAE0B0E00E9437356115A5
:1038500071058105910521F464E670E080E090E057
:10386000461657066806790628F453014201EEEF22
:10387000EF8302C0FFEFFF832091D40128873091AE
:103880008C01398330908D014091D0014E8320E02E
:10389000A8852A1708F0ADC0C22ED12C57E05C9D38
:1038A000C0015D9D900D1124DC01A554BE4F3D016A
:1038B0008C91B9818B1399C0F3018181831195C0DB
:1038C000E12C02E010E020E030E04F81C501B401BE
:1038D0000E94A6218F3F09F04BC0D3011296FC90A5
:1038E000129713962C90139714964C901497159644
:1038F0005C90159716967C9002E010E020E030E096
:103900004F2D622D742D852D972D0E94A6218F3F5E
:1039100041F5BF81BF1519F066246A9402C0662480
:103920006394EF80950184014F2D622D742D852DB8
:10393000972D0E94A621681679F027E02C9DF001B2
:103940002D9DF00D1124E554FE4F83829482A582B3
:10395000B6823F81328305C0FF82822C942CA52C35
:10396000B72C2401350176946794579447940AC084
:10397000C501B40124E130E040E050E00E94DA34B7
:1039800029013A0147E04C9DF0014D9DF00D1124B5
:10399000E554FE4FF28083819481A581B6818A83AC
:1039A0009B83AC83BD83EF809501840104191509C5
:1039B000260937094F2DBC01CD010E94A62187FDA4
:1039C00016C095018401040D151D261D371DEF80BD
:1039D0004F2D6A817B818C819D810E94A6211816C2
:1039E00034F09AE09E8324E653CF2F5F51CF28EC2A
:1039F0004FCFBE81B093D001243609F443C0A33029
:103A000008F040C027E0A29FF0011124E554FE4FCA
:103A100030823981318383829482A582B6824F813C
:103A20004283AF5FA093D4012DC054E68516910464
:103A3000A104B104A0F481E00E94D6192C01612CEC
:103A4000712CA5019401220F331F441F551FB5E0AF
:103A50008B169104A104B10408F4F1CEF4CE6FEFFB
:103A60006F830ACF81E00E94D6192C01612C712C42
:103A70008AE0882E912CA12CB12C24E130E040E08A
:103A800050E0E1CE2896E2E10C946635A0E0B0E08B
:103A9000ECE4FDE10C9450356B017C01C42F122F36
:103AA0009AE0892E912CA12CB12C80E1C81687E2D6
:103AB000D806E104F10470F0C701B6016B5F7F4FD7
:103AC0008F4F9F4FA50194010E94DA3469017A015A
:103AD000CF5FEBCFC13FACF08FE08C0F23E0622FC4
:103AE0000E94A434D92F992319F08F5F291BD22F5C
:103AF000883040F490E082589D4F0E945C34082F3B
:103B000002C0D0E000E04AE06BED71E0C6010E9427
:103B10003234EBEDF1E001900020E9F73197EB5DF5
:103B2000F140BE2ECE2FCD1B1C165CF080E30E9410
:103B3000C4168CE20E94C416CC2319F080E30E94C4
:103B4000C416D11101C0CFEFC1508BEDC82E81E05A
:103B5000D82EE12CF12C0C2E000CDD0BEB1478F49C
:103B6000F60181916F010E94C416CE15DF0519F48C
:103B70008CE20E94C416FFEFEF1AFF0AEFCF00237A
:103B800019F0802F0E94C416112319F0812F0E9472
:103B9000C416CDB7DEB7ECE00C946C35CF92DF9253
:103BA000FF920F931F93CF93DF93D42F022F2AE01E
:103BB0004BED51E00E941034EBEDF1E0019000205C
:103BC000E9F73197CF018B5D9140F82EDD2369F045
:103BD0008D1728F0C82FCD1BD0E041F401C0D81BB1
:103BE00080E30E94C416C0E001C0C4E68BEDC82E7D
:103BF00081E0D82E10E01F1598F41C130AC08CE247
:103C00000E94C416DD2329F080E30E94C416D1501F
:103C1000F9CFF60181916F010E94C4161F5FEBCFAF
:103C2000002319F0802F0E94C416DF91CF911F91BD
:103C30000F91FF90DF90CF900895CF93C82F82957A
:103C40008F708A3010F4805D01C0895A0E94C416BA
:103C50008C2F8F708A3010F4805D01C0895A0E94C9
:103C6000C416CF91089582E00E94091762E081E0B6
:103C70000E94F91608958DE20E94C4160895CF920D
:103C8000DF92EF92FF92CF93DF936B017C01C42F01
:103C9000D22F97FF0AC00E943B1EF094E094D0946C
:103CA000C094C11CD11CE11CF11C2D2F4C2FC7014D
:103CB000B6010E94461DDF91CF91FF90EF90DF90FB
:103CC000CF90089580E20E94C41608958F5C0E94F0
:103CD000C4160895CF939091D901292F220F920FE6
:103CE000E62FF0E0E90FF11DEA57F54FE491EE23DE
:103CF000C1F09091AA0191506091AB01E1FF04C025
:103D00002091A8012F5F920FE2FF04C02091A9012A
:103D1000620F6150C82F892F0E94F9168C2F0E94C4
:103D2000661ECF910895CF93DF93EC01CE010E94E0
:103D30005C34882321F00E94C4162196F7CFDF91CE
:103D4000CF9108950E94931E0E94621E0895CF9302
:103D50006091A3018091A501681319C0C091A101D0
:103D6000C0FF05C065E188EB9BE00E94C41FC1FF56
:103D70000BC0C091A501C23028F08C2F0E940917FA
:103D8000C150F9CF62E004C00E94301704C06F5FD9
:103D900081E00E94F916CF910895CF93DF93EC0153
:103DA0000E94A71ECE010E94931E0E94621EDF91F8
:103DB000CF910895CF93DF93EC010E94A71ECE010F
:103DC0000E94931EDF91CF910895ECEAF1E080E02C
:103DD0009191890F91E0EA3BF907D1F7811101C078
:103DE00081E00895ECEAF1E088EC90E09183808333
:103DF0008CED90E09383828384E190E095838483CB
:103E000097838683918780878BE2828713861486C7
:103E100086E1858708951F920F920FB60F921124A5
:103E20001092B1000F900FBE0F901F901895209127
:103E30006901A0E0B0E0F3E0880F991FAA1FBB1F43
:103E4000FA95D1F72630D1F4492F5A2F6B2F7727C7
:103E50004F5F5F4F6F4F7F4FE4E0440F551F661F6A
:103E6000771FEA95D1F7481759076A077B0728F4A7
:103E7000841B950BA60BB70B01C020E01092B1007C
:103E80001092B20032E03093B0003093700033B73C
:103E9000317F232B23BF0FB607FC03C0789430E09B
:103EA00001C031E047E00097A105B105F9F0A89500
:103EB0008F3F9105A105B10509F010F4282F01C02D
:103EC0002FEF821B9109A109B10921502093B30062
:103ED0004093B1002091B100222329F323B7216040
:103EE00023BF889523B72E7F23BFF4CF311101C0A4
:103EF000F8940895EF92FF920F931F93CF93DF935F
:103F0000E82E623019F0CFEDD2E002C0CEEED2E062
:103F10000E94E51E8093BA018FE0F82E0CEA11E0B2
:103F200082E0E81206C0F8016081CE010E946A3486
:103F300005C0CE010E945C34F80180830F5F1F4FE3
:103F40002196FA94F110ECCFF2E0EF16C1F00E9446
:103F5000E51E9091BA01992391F0891781F00E9492
:103F6000301782ED92E00E94931E8AEC92E00E944C
:103F7000DA1E80ED97E00E94171F0E94F21ECDB757
:103F8000DEB7E6E00C947235A0E0B0E0EAECFFE1C9
:103F90000C9450356C01162F8091680185FF04C088
:103FA00098E7E92EF12C02C0E12CF12C12FF08C099
:103FB0008091670180FD02C01C7F02C0C12CD12C02
:103FC000812F8370B82E39F068E080E10E94F916E5
:103FD0008EE30E94C416C0E0D1E000E084E1A82E88
:103FE000812F8270982E812F8071882E1870C114B5
:103FF000D10449F086E0C816D10420F085E0C81A43
:10400000D10801C0D0E04F9935C08EE190E00E9408
:10401000171FC0E0DD2311F04F9B04C0CB3108F027
:104020005FC008C0CF5FCB31C8F78AE090E00E9444
:10403000171FF0CF112309F456C082E390E00E94CD
:10404000171FC4E101E04F990CC08EE190E00E947F
:10405000171F4F9906C088EC90E00E94171FC1E01F
:1040600003E0C1508AE090E00E94171FC111EBCF1E
:10407000D0E041C085E090E00E94171FCF5F8C2FF9
:104080006A2D0E94983491110BC080917301823087
:1040900020F081508093730103C081100E9466223A
:1040A000C43649F5992089F068E080E1D13039F4CF
:1040B0000E94F91680E20E94C416D2E006C00E9457
:1040C000F9168EE30E94C416D1E0E114F10471F0F8
:1040D00081E0E816F10461F081E0E81AF10806C019
:1040E000D0E002E008C0D0E001E005C0C0E003C0BD
:1040F000C0E0D0E007E68091680180FF06C08091B3
:1041000068018E7F8093680102C0D11170CFBB20FF
:1041100039F068E080E10E94F91680E20E94C4163E
:10412000073611F40E944722802FCDB7DEB7ECE0AE
:104130000C946C35A0E0B0E0E0EAF0E20C944E356F
:10414000862E742E652E5901CC24CA94C80E9090E8
:10415000A501DD24DA94D90C8AE30E94C416D2E0CA
:10416000F12CC0E09A949A9481E0D81202C0DF5FEB
:10417000FC2E072D162D0F0D111D0F0D111DE12CFD
:10418000ED14B8F562E06E0D81E00E94F916E1E0F1
:10419000DE1651F08F2D8E0D8C1304C08AE20E9422
:1041A000C41602C00E94621ED130E1F0F1E08F120D
:1041B00006C0F801808191810E94931E0AC0C80147
:1041C0000E946434BC0180E090E020E040E00E9466
:1041D000461DA114B10419F0C5010E94931E80E090
:1041E0000E9409170E5F1F4FE394CE1448F6ED2C82
:1041F000C7CFF1E0DF1209C06091A5018091A40151
:104200000E94F9168CE30E94C41684E690E00E9496
:10421000171F60E180E090E00E94C41F813081F4AC
:10422000CC1204C0CD14E0F0D2E01BC0CF5F892DCA
:104230008F0DC81319C0CC15B8F4F394D2E094CF05
:10424000D1E0823009F090CF0E94301784EF91E0E6
:104250000E94171F8C2FCDB7DEB7EEE00C946A35A5
:10426000D1E0F12CC0E080CFD1E07ECFA9E0B0E07A
:10427000ECE3F1E20C945935182F87EC92E09A8325
:10428000898381E08F8384EC92E09C838B8382E03E
:1042900088878EEB92E09E838D8319860E9430176B
:1042A000123019F484EB92E002C08AEA92E00E9494
:1042B000931E20E030E0AE014F5F5F4F61E083E08E
:1042C0000E949A20FE01E80FF11D6781662319F014
:1042D000812F0E947A1F2996E3E00C9475350F9385
:1042E0001F93CF93DF93D82F882321F006E912E0A4
:1042F000C3E003C00FE912E0C0E00E943E0CC81703
:10430000F9F00E943017C8010E94931E0E94A71E58
:1043100086E892E00E94931E0E943E0CC81305C0DE
:1043200088EC90E00E94171F0BC060E184E690E0EB
:104330000E94C41FD13081F7882371F380E001C04F
:1043400081E0DF91CF911F910F910895A0E0B0E03F
:10435000ECEAF1E20C944B354B015C01342E280160
:1043600039011E2D9B01AC01D1E09AE0C92ED12C60
:10437000E12CF12C2A3031054105510540F0CA01EC
:10438000B901A70196010E94DA34DF5FF3CFA301E0
:104390009201C1E08AE0C82ED12CE12CF12C2A3008
:1043A00031054105510540F0CA01B901A701960147
:1043B0000E94DA34CF5FF3CF81149104A104B104D9
:1043C00059F1411451046104710409F1432D4D0F59
:1043D000E12EEC0EE4164CF14E1129C0ED2FCD1755
:1043E00054F4AAE0B0E0A30192010E9437352B01FA
:1043F0003C01CF5FF4CFEC1754F4AAE0B0E0A50184
:1044000094010E9437354B015C01EF5FF4CF4814F3
:1044100059046A047B0448F081E084149504A604DE
:10442000B70408F080E0819503C081E001C08FEF00
:10443000CDB7DEB7E1E10C94673580E693E00E94EA
:10444000A21E80917101909172016AE070E00E9459
:10445000B23480E090E026E54EEF0E94461D0E94B7
:10446000621E8091710190917201811529E192077C
:1044700018F48AE593E008C0883E9C4118F483E56F
:1044800093E002C080E593E00E94931E08950E948D
:10449000301783E493E00E94931EF8940FB6F894CB
:1044A000A895809160008861809360001092600000
:1044B0000FBE5E9883B7817F846083BF83B78160BE
:1044C00083BF889583B78E7F83BF089585E00E9460
:1044D0004F069C01AEEBBFE00E94213528EE33E091
:1044E00040E050E00E94DA342E5D3E4F309372017E
:1044F0002093710184E6809373012115394150F4B2
:104500000E9430170E941D2288EB9BE00E94171F1B
:104510000E94472208950E94621E8091D10182FF6D
:1045200003C087E293E002C082E293E00E94931E00
:1045300008950E94621E8091D10180FF02C08EE426
:1045400001C080E50E94C4168EE193E00E94931E94
:104550000895FF920F931F93CF93DF938091D10122
:10456000909176016091750180FF03C0892F02E070
:1045700003C0862F692F01E09091D0019F3121F077
:1045800015E423E4F22E03C013E594E4F92E0E940F
:10459000D50CEC01892B59F00E94621E8F2D0E94D0
:1045A000C416802F0E94C416812F0E94C4168091C9
:1045B000D10183FD49C080917A0190917B01892BC3
:1045C00081F08AE193E00E94CD1E60917A017091A2
:1045D0007B01072E000C880B990B26E54DEF0E94FE
:1045E0003F1E86E193E00E94CD1E6091870170918D
:1045F00088018091890190918A0126E440918B0184
:104600000E94461D8091780190917901892B71F06B
:1046100082E193E00E94CD1E609178017091790152
:1046200080E090E024E04EEF0E94461D209761F06C
:104630008BE590E00E94CD1E6A817B8180E090E056
:1046400026E54DEF0E94461DCDB7DEB7E5E00C94A0
:10465000733540E0FC01608181810E944B0DE5E3F0
:10466000F1E0638174818581968126E442810E9414
:10467000461D0895EF920F931F93CF93DF93EC01A4
:1046800060918201709183018091840190918501F4
:1046900027EFE22E02E310E020E030E040918601B7
:1046A0000E94A62187FD10C0CE010E94CD1E609100
:1046B000820170918301809184019091850121E4B0
:1046C000409186010E94461DDF91CF911F910F916D
:1046D000EF900895CF93C62F0E94C41681E890E012
:1046E0000E94931E8C2F0E94C4160E94621EEBEB48
:1046F000F1E0638174818581968124E042810E948A
:10470000461DCF91089585E093E00E94931E8DEFA2
:1047100092E00E94DA1E809100018F5F8093000179
:104720000895A3E0B0E0E7E9F3E20C9456358983FD
:104730006A834B83CE0101967C0110E0F701019161
:104740007F01002359F0812F0E94661E8AE30E9498
:10475000C416802F0E94C4160E94621E1F5F133071
:1047600069F72396E6E00C9472350F931F93CF936D
:10477000DF93D82F162F042F80E00E94661E81E061
:104780000E94661E82E00E94661E8DE30E94C4168F
:10479000C0E080917401C81731F080917501C8178D
:1047A00021F0802F03C08D2F01C0812F0E94C416DD
:1047B000CF5FC33071F7DF91CF911F910F910895B3
:1047C0008091D001823249F48AE393E00E94931EE3
:1047D0000E94A71E43E461E408C081E393E00E94C5
:1047E000931E0E94A71E41E362E387E40E94B52363
:1047F0008091780190917901892B71F08CE293E09E
:104800000E94CD1E609178017091790180E090E066
:1048100026E54DEF0E94461D089503D002D001D039
:1048200000D000D003D002D001D000D0A89500D095
:1048300003D002D001D000D000D003D002D001D0EC
:1048400000D000D003D002D001D000D000D003D0DF
:1048500002D001D000D000D003D002D001D000D0CF
:1048600000000895ADE3B0E0E8E3F4E20C944A35CB
:1048700080E48AB98BB980E185BF86E880937A00AD
:1048800014B7187084B7877F84BF0FB6F894A895C3
:1048900080916000886180936000109260000FBE7C
:1048A00081E08093670182E08093680186E08093D5
:1048B00069018AB18C608AB98BB1837F8BB9809191
:1048C00067018860809367018AB183628AB95D9AC3
:1048D000589A3E984698112389F00E94301789E92A
:1048E00091E00E94931E8AEC92E00E94DA1E80ED15
:1048F00097E00E94171F5E980C940A344F9912C0DB
:1049000084E190E00E94171F4F9906C01F5F153683
:10491000B9F713E00C940334103110F00C94023406
:1049200011E001C010E08091670180FF05C0809117
:10493000680180628093680158980E943024589AD8
:104940000E94302480E40E949E1680EA0E949E16F7
:1049500080EC0E949E1682EA0E949E168FE20E94C0
:104960009E1688EF0E949E1680E00E949E1687E2A7
:104970000E949E1686E10E94A4168CEA0E949E1652
:1049800080E00E949E168FEA0E949E1680E180932E
:10499000A40188E08093A5018FE38093A60183E0C2
:1049A0008093A8018093A9010E9430171092A10161
:1049B000133019F40E94F21E04C061E081E00E94ED
:1049C0007A1F8091B901803410F40E94A41688E8FF
:1049D00091E00E94931E81E891E00E94DA1E8CED26
:1049E00095E00E94171F1092000184E680936A01EF
:1049F00081E080936B0180936C0189E893E190934F
:104A0000700180936F019FE088E10FB6F894A8953C
:104A1000809360000FBE909360007894AE014A5F6F
:104A20005F4F5FA74EA71092D0011092D101109254
:104A3000D2011092D3011092D5011092D40110929C
:104A40007701109279011092780110927B011092F7
:104A50007A0110927D0110927C0110927E011092D9
:104A60007F011092800110928101109282011092B8
:104A70008301109284011092850110920E01109210
:104A80000D011092100110920F0183E08093A70195
:104A900017B882E08093A1010E9430178EE00E9437
:104AA0004F0690936E0180936D0188EC80936A01AC
:104AB0008EE00E944F062091B701820F911D27FDC5
:104AC0009A9590936E0180936D0184E680936A01BC
:104AD0000E9466220E941D2281E791E00E94DA1E58
:104AE0000E94B0068091D001813009F44CC00E9430
:104AF0003E0C833009F485C542E061E080E00E940D
:104B00006B0742E060E081E00E946B0741E062E0F9
:104B100080E00E946B0741E060E082E00E946B074A
:104B200040E062E081E00E946B0740E061E082E0EB
:104B30000E946B078091D301882359F09091D20194
:104B400090FD07C091FD38C59091D0019E3108F4C9
:104B500033C58091D001882311F08A30A1F40E94DE
:104B6000621E83E40E94C41640E060E082E00E947E
:104B70004B0D41E061E082E00E944B0D42E060E0BD
:104B800081E00E944B0D0E94301783E08093A101C9
:104B90008091D0018F3109F48CC288F48B3009F4F4
:104BA000CBC330F48130B9F18A3009F40DC338C475
:104BB000843109F44CC08E3109F482C131C482328F
:104BC00009F4D7C238F4803209F4C1C2813209F441
:104BD000D0C226C4833209F4CFC2843209F020C483
:104BE00084E790E00E94931E0E94A71E41E362E3C7
:104BF00085E40E94B5238FE690E00E94CD1E60916F
:104C0000BE017091BF018091C0019091C10124E06B
:104C10004091BD01D6C28091D1018130A1F480E0E4
:104C200090E00E94931E0E94A71E8091D6010E94D0
:104C3000661E8AE30E94C4160E94621E6091D7011C
:104C40007091D801BAC2823009F0F0C3E9C38091F3
:104C5000D501813051F4A090120155E0C52E65E0D8
:104C6000D62E85E0E12CF12CC5C48230F9F4D09029
:104C70001101C0901701B090120180911801DC1051
:104C800006C0C82E45E0A42E992493945EC0A82E99
:104C9000B81609F4AAC4D812A2C4CB10A0C4AD2C73
:104CA00085E0C82E95E0B92E912C4FC0833009F0D5
:104CB00042C080E066E0282F30E090E0629FF00183
:104CC000639FF00D1124EE5EFE4F492F50E09817C0
:104CD00069F0649FD001659FB00D1124AF5EBE4F97
:104CE00010817C91171302C095E085E09F5F93309F
:104CF00060F38F5F8330F8F2853058F066E0649F90
:104D0000C001659F900D1124FC01EF5EFE4F7F01F5
:104D100002C0E12CF12C86E0829F8001839F100D60
:104D200011240F5E1E4FF801A18025E0C22E35E050
:104D3000D32E83E061C483E190E00E94A21E8091A3
:104D4000D501805D0E94C4166DC3F2E0FD1590F0A0
:104D5000809112010E94661E8FE090E00E94931ED7
:104D60008D2D0E94661E07E1E02E01E0F02E01E18C
:104D700011E011C017E1E12E11E0F12E01E111E087
:104D8000F80180810E94661E83E190E00E94931EDC
:104D90008A2D0E94661EE114F10411F40C94D433A0
:104DA000AD1441F0F3E0FD1528F0F701A18083E197
:104DB00090E004C0F701A0808FE090E00E94931E75
:104DC0008A2D0E94661EF4E0FB1508F45CC06C2D71
:104DD0008B2D0E9470168130C1F40E94621E22E069
:104DE0002D1518F087E290E002C08BE290E00E945F
:104DF000931E8FE30E94C4160E94A71E61E36C0DF0
:104E000081E38B0D0E946A23912C8BE590E00E9438
:104E1000CD1EF8016281738180E090E026E54DEFC0
:104E20000E94461D0E94621EE114F104D9F5F801AA
:104E3000848195818A3F910578F488E20E94C416A6
:104E4000F8016481758180E090E020E040E00E94FC
:104E5000461D89E20E94C41640E0F801608181810C
:104E60000E94E90581E00E94E80C8BE090E00E943E
:104E70003A23F1E09F12D6C289E090E00E94CD1E55
:104E8000C8010C94F4338BE590E00E94CD1EF8012C
:104E90006281738180E090E026E54DEF0E94461D1F
:104EA0000E94621EF7016281738180E090E026E536
:104EB0004DEF0E94461DF1E09F12B4C20C94EA33FC
:104EC0009091D1011091740100917601809175014A
:104ED00090FF0DC0E82E982EA12EF02EBB24B39487
:104EE000A2E08A2EBBE2CB2EB0E0DB2E0DC0780113
:104EF000082F9F2CA82E1E2DE2E0BE2E882483941E
:104F0000F7E2CF2EF0E0DF2E8FE290E00E94A21EAB
:104F1000C6010E94931E8091D10182FF03C08BE2E3
:104F20000E94C4160E94A71E45E463E482E40E9426
:104F3000B5236E2D802F0E94D50C892B59F00E942D
:104F4000621E83E40E94C416882D0E94C41685E464
:104F50000E94C416612F8F2D0E947016813049F473
:104F60000E94A71E65E482E40E946A2384E0809385
:104F7000A70183E290E00E94CD1E60917E017091B6
:104F80007F01809180019091810120E040E00E94AA
:104F9000461D0E94621E8091770180FF02C085E657
:104FA00003C081FF03C083E60E94C41680E290E044
:104FB0000E94DA1E8091770180FF02C083E403C063
:104FC00081FF03C085E40E94C4160E94621E6091A6
:104FD0007C0170917D01072E000C880B990B21E458
:104FE0004AEF0E943F1E6F2D812F0E94D50C7C013D
:104FF000892BA1F18CE190E00E94CD1EF701028186
:10500000138124813581C0907E01D0907F01E09092
:105010008001F0908101F4E6CF16D104E104F1049F
:1050200098F0C801821B930B63E070E00E94C634C5
:105030004AEFC416D104E104F10418F4061B170B5F
:1050400003C08B01020F131FC801A0E0B0E026E5EA
:105050004DEFBC01CD010E94461D02C000E010E0F2
:1050600087E190E00E943A23053F51E0150708F4DC
:10507000D9C1692D8A2D0E94D50C8C01009709F4A5
:10508000D1C1FC0182819381823C914008F0CAC168
:105090000E94A71E82E40E94C4168B2D0E94C41693
:1050A00083E40E94C4160E94621EF801628173812B
:1050B00084C08091D10184FF05C082E590E00E9408
:1050C000931E03C08AE40E94C4168EE490E00E94FE
:1050D000931E0E9499228091D10184FD0E948B220F
:1050E0000E94A71E8091D10186FF03C048E768E7B0
:1050F00002C043E564E487E40E94B5238091D101B6
:1051000084FD0E94A9228091D10183FF8BC189E493
:1051100090E00E943A2380917C0190917D01892B3F
:1051200009F480C18FE390E00E94CD1E0E94A71E6B
:105130000E94621E60917C0170917D01072E000C1F
:10514000880B990B26E54DEF0E943F1E6BC186E54B
:1051500090E00E94931E0E9499220E948B220E943E
:10516000A71E45E463E487E40E94B5230E94A922B8
:1051700059C10E94E02356C181E690E00E94931E2F
:105180000E94A71E43E461E487E40E94B5238EE5F4
:1051900090E00E94CD1E60910F017091100180E09F
:1051A00090E026E54DEF0E94461D8BE590E00E94C1
:1051B000CD1E60910D0170910E0180E090E026E51A
:1051C0004DEF0E94461D2EC18091D401813039F4EB
:1051D000D090BB01E12CF12C0BEB11E063C08330CC
:1051E00009F04FC00091BE011091BF012091C00194
:1051F0003091C1016091C5017091C6018091C701D4
:105200009091C801E090BD014091C4010E94A62187
:10521000813029F472ECC72E71E0D72E04C06BEBFD
:10522000C62E61E0D62EF6010381148125813681D8
:105230006091CC017091CD018091CE019091CF0110
:10524000E2804091CB010E94A621813021F459ECEB
:10525000C52E51E0D52EFBEBCF16F1E0DF0619F499
:1052600002EC11E002C00BEB11E0780127E0E20E46
:10527000F11CEC14FD0459F478014EE0E40EF11C2D
:1052800006C042ECE42E41E0F42E0BEB11E0F801F5
:105290008081F701D0808D1529F0D1808D1511F016
:1052A000F801D180F80180818D1102C0F80181815F
:1052B0000E94661E81E890E00E94931E8D2D0E9440
:1052C000661EE114F10461F081E890E00E94931EF3
:1052D000F7018081D81202C0F70181810E94661E09
:1052E0000E94A71EF801638174818581968124E064
:1052F00042810E94461DE114F10451F00E94621E99
:10530000F701638174818581968124E0428159CFC0
:10531000C8010E946718813009F084C00E94621E93
:1053200060916301709164018091650190916601C3
:1053300028E44091620145CF009138011091390174
:1053400020913A0130913B016091470170914801F1
:105350008091490190914A01E090370140914601C6
:105360000E94A621813029F434E4C32E31E0D32EEB
:1053700004C025E3C22E21E0D22EF6010381148160
:1053800025813681609156017091570180915801B5
:1053900090915901E280409155010E94A6218130EF
:1053A00021F493E5C92E91E0D92EF60180810E9467
:1053B000661E8AE890E00E94931EF60181810E9499
:1053C000661E0E94A71EF601638174818581968105
:1053D00026E442810E94461DC6010E94F8138C01FA
:1053E000019649F00E94621EB80180E090E024E03E
:1053F0004EEF0E94461DF60183859485A585B685EE
:10540000892B8A2B8B2B71F086E890E00E94CD1EB1
:10541000F601638574858585968521E448EFD1CEB4
:105420000E9483238091D0018E3140F48091D0017D
:105430008A3008F4A6C010920001A3C09091A70181
:105440009923A1F32091A9013091A501231770F7A9
:105450008091A401803118F0290F231738F0309380
:10546000A3010E94A71E83E092E003C02091A8013F
:10547000821B8093AA019093AB0160E0809174013C
:105480000E946A1E61E0809175010E946A1E62E0BE
:10549000809176010E946A1E6091AB018091AA0101
:1054A0000E94F9160091D901F8E40F9F80011124A0
:1054B00002561F4FC090A001DD24D394780128E14B
:1054C000E20EF11CF80184910E9498160F5F1F4FA5
:1054D0000E151F05B9F7D394F4E0DF1609F4A6CF33
:1054E000C3946C2D80919F010E94B016E7CF9FE07E
:1054F000B912A9C3C1016FE070E00E94B234609399
:10550000B60111E00F30F1F425E030E089A99AA945
:10551000B9010E94B2347093B1016093B0018BA9BC
:105520009CA9B9010E94B2347093B3016093B20197
:105530008DA99EA9B9010E94B2347093B501609300
:10554000B4011F5FE9ADEF3009F47FC30E94500C36
:1055500001E0143009F039C70E94301701110C9492
:10556000F6328AEC92E00E94931E8091670180FFE0
:1055700005C0809168018062809368012DAD209301
:1055800069011092A1016EE180E197E20E94C41FBF
:10559000811105C0809100018F3050F444CA8330DE
:1055A00081F1823029F0853661F1873609F03BCAF6
:1055B0000E9447220C940A348093D00180910A0102
:1055C0008093740180910B018093750180910C018F
:1055D000809376018091DA018093D901BACA25E0DF
:1055E000C22E35E0D32E45E0A42E85E097E1E92ECA
:1055F00091E0F92E01E111E0BD2CD82E992493946D
:10560000BFCB409169014DAF109269018091670154
:1056100080FF05C0809168018F7D809368018DE6D1
:1056200091E09A83898386E08F8F86EE90E09C8359
:105630008B8388E088A381EF90E09E838D8389E04F
:1056400089A385E491E098878F838BE18AA38EEF0D
:1056500090E09A8789878BE08BA389EB90E09C8709
:105660008B8789E18CA380E191E09E878D8782E121
:105670008DA388E191E0988B8F8788E18EA38CEAD7
:1056800090E09A8B898B81E08FA38EE990E09C8BD0
:105690008B8B82E088A787E091E09E8B8D8B8CE0DE
:1056A00089A784EB92E0988F8F8B83E08AA78AEAA0
:1056B00092E09A8F898F84E08BA787E990E09C8F96
:1056C0008B8F85E08CA78EEB92E09E8F8D8F1DA631
:1056D0000E9430178EE890E00E94931E20E030E098
:1056E000AE014F5F5F4F61E08FE00E949A20FE01A4
:1056F000E80FF11DE78D8E2F90E0FC013197EB3123
:10570000F10508F070C7EC5CFF4F0C941B3581E08D
:105710000E946F21882309F466C7A12CB12CC12CEB
:10572000D12CE12CF12C11E002E0702E88E0682EE3
:1057300001E00E94301784E50E94C41680E3810FC7
:105740000E94C4160E94621E133009F46EC0D8F580
:10575000113009F454C0123009F0ABC083ED90E071
:105760000E94A21E88ED90E00E94931E20916F017E
:1057700030917001A0E7B3E00E94213524EF36E0BC
:1057800040E050E00E94FC3419012A0181E085B913
:1057900025E024B982E00E9459075C01A218B308F1
:1057A00041E144B981E00E9459076C01C218D30855
:1057B00054E055B984E184B980E00E9459077C0126
:1057C000E218F30876C0153009F45EC008F456C03C
:1057D000163009F06EC086EC90E00E94931E75B8FA
:1057E00074B880E00E9459077C0165B864B881E014
:1057F0000E9459076C0140E245B944B956C08EE099
:105800000E944F068EE00E944F064C0181EB91E012
:105810000E94931E0E94A71EB40180E090E026E53E
:105820004DEF0E94461D80E045C08EEC90E00E9446
:10583000A21E88ED90E00E94931EE0906F01F09010
:105840007001F694E79475B89AE094B982E00E94EA
:1058500059075C01AE18BF08E2E2E4B981E00E949A
:1058600059076C01CE18DF0865B8F8E2F4B980E09A
:105870000E9459078E199F097C011BC080E00E947D
:105880006F2180E004E616C08AEC90E00E94931E2F
:1058900015B874B880E00E9459077C0164B881E0B3
:1058A0000E9459076C0120E224B982E00E94590746
:1058B0005C0181E014B815B8882309F10E94A71E85
:1058C00020E040E0B7010F2C000C880B990B0E94E0
:1058D0003F1E0E94621E20E040E0B6010D2C000C2D
:1058E000880B990B0E943F1E0E94621E20E040E040
:1058F000B5010B2C000C880B990B0E943F1E04363F
:1059000059F060E188EE93E00E94C41F882321F0E3
:10591000823009F414E604E60F5F063008F409CF7C
:105920001F5F173008F404CF5EC681E00E946F212C
:10593000811102C01AE001C012E01BAE1AAE1CAE0B
:1059400018AE1FAA19AE1EAA1DAA1CAA1BAA1AAA23
:1059500019AA00E0212C312CB12CC12CD12CE12C26
:10596000F12C412C512C77247394F2E0AF2EA4E05B
:105970006A2E173008F0BBCD81E088AB58A95630AD
:1059800008F05FC10E94301781E40E94C41680E3D2
:10599000810F0E94C4160E94621E143009F458C080
:1059A00060F4123089F0133009F00DC180E00E94DC
:1059B0006F2180E054E658AB07C1153009F473C07D
:1059C000163009F4AAC0FFC086EB91E00E94A21E27
:1059D00088ED90E00E94931E40E060E081E00E942C
:1059E000E90580E00E94D6192C018639910538F42A
:1059F00089A99AA9840D951D9AAB89AB0F5F40E0E8
:105A000060E082E00E94E90580E00E94D6197C01F6
:105A100096E9E916F10438F4EBA9FCA9EE0DFF1D97
:105A2000FCABEBAB0F5F40E061E082E00E94E90578
:105A300080E00E94D6196C018639910508F0C3C038
:105A40004DA95EA9480F591F5EAB4DAB0F5FBBC0A0
:105A500080EC91E00E94931E18B877B875B874B8BE
:105A600080E00E9462072C01A7B815B914B981E043
:105A70000E9462077C014201880E991E8FA998AD91
:105A8000880E991E17B990E195B994B982E00E94E9
:105A900062076C01F401E80FF91FF8AFEFABF9AD45
:105AA000FD5FF9AF90C08CEB91E00E94931E15B89A
:105AB00078B877B874B840906F015090700180E06A
:105AC0000E946207481A590AA8B8A7B864B8E090BB
:105AD0006F01F090700181E00E946207E81AF90AF4
