:200000000C94A3030C94C0030C94C0030C94C0030C94C0030C94C0030C94C0030C94F203B3
:200020000C94C0030C94C0030C945D190C94C0030C94C0030C9446190C94C0030C94C00359
:200040000C94C0030C94C0030C94C0030C94C0030C94C0030C94F3030C94C0030C94C00355
:200060000C94C0030C94C0030000140029003E005300690080009700AE00C600DF00F80021
:2000800012012D01490165018201A001BE01DE01FF012102440268028E02B502DE020903A7
:2000A000350364039403C803FE0337047304B404F90443059305EA054906B3062907AE071B
:2000C0004808FF08DE09BA03870358032E030703E402C302A40288020104100102042D5E83
:2000E0003E2C257E21203D5B5D2E303132333435363738394142434445464748494A4B4C34
:200100004D4E4F505152535455565758595A6162636465666768696A6B6C6D6E6F707172E3
:20012000737475767778797A0000080808080000002F0000000041221408000000503000BD
:20014000002313086462005C6202625C00FE4040207E00000000000000141414141400009D
:200160007F414100000041417F00000060600000003E5149453E0000427F4000004261516D
:200180004946002141454B31001814127F10002745454539003C4A494930000171090503E6
:2001A00000364949493600064949291E007E1111117E007F49494936003E41414122007FB8
:2001C0004141221C007F49494941007F09090901003E41515172007F0808087F0000417FC0
:2001E0004100002040413F01007F08142241007F40404040007F021C027F007F0408107F28
:20020000003E4141413E007F09090906003E4151215E007F0919294600464949493100014D
:20022000017F0101003F4040403F001F2040201F003F4038403F0063140814630003047895
:200240000403006159494D43002054545478007F4844443800384444442800384444487F36
:2002600000385454541800087E090102000C5252523E007F080404780000447D4000002038
:2002800040403D00007F102844000000417F4000007C04180478007C0804047800384444CE
:2002A0004438007C141414080018242418FC007C0804040800485454542400043F444020AB
:2002C000003C4040207C001C2040201C003C4020403C004428102844000C5050503C004492
:2002E00064544C440056322E3037554400E0000000E00003040804030040202020C00008C2
:200300000C0A090800000000000000000C0C000000C02020A0C000070A09080700202020B5
:20032000A06000000E01000000004040FF4040000203FF03020040C0FFC040000202FF02A2
:2003400002326C6668794A462D454F534E507C3C3E204D5465737472696E672E526F44642A
:200360004975634361707B7D000038040404C438000018141211101800000404FC00000095
:20038000000010101F10100000004040F84444440C0010101F1010000004FC80404040808F
:2003A00000101F100000101F1040C040000040C040404047380C03000000000404FC040425
:2003C00000604040403F00000004FC4444F4040800101F10000100000000808080808080F6
:2003E00080000000000000000004FC4444F4040800101F101011100C00F00804040408F07D
:200400000007081010100807000038448484041C00001C101010110E0004FC18608004FC87
:2004200004101F1000030C1F0004FC848484847800101F10000000000040FEFE0000FEFE4C
:2004400040000F0F00000F0F00FC80C0E0F0F8FC801F000103070F1F00FCF8F0E0C080FC48
:20046000801F0F070301001F000000000000000000000000000000000004FC7C807CFC042C
:2004800000101F001F001F10000C0404FC04040C000000101F10000000008040404040807C
:2004A00000000F111111110900008040404040C0000019121212120C00004040F040400043
:2004C000000000000F101000004040C0804040C00010101F101000000000404CCC00000036
:2004E000000010101F1010000040C0804040408000101F100000101F100080404040C0401F
:200500000000354A4A4A4930000000000000000000001818000000000004FC4444C4443857
:2005200000101F1000010618100080404040408000000F101010100F0004FC04040408F0EB
:2005400000101F101010080700000080404044FC000007081010081F10000404FC0404007B
:20056000000010101F1010000040C000000040C000000F101010081F1000008040404080E6
:20058000000007081010100800E018040404041C00030C10101008040000804040404080A5
:2005A00000000C121111111F1040C0804040800000407F501010080700008898B8F8B898DD
:2005C0008F10100804020100FFC8E8F8E8C8880000000000000000000020313233456544DA
:2005E00064706E4A6A543F0000000000000000000000000000000000000000000000FFFF74
:20060000FFF7F70303FFFFFFFF7F7F7F6F6F60606F6F7F7FFFFFC7C3FBFB3B03C7FFFF7FF4
:200620007F6763696C6E67677F7FFFFFE7E3BBBB1B43E7FFFF7F7F73636F6F6770787F7FE2
:2006400000FCFC00E782E2C2828300101F1F007320232120FF0000FCFC00E782C2E2828342
:2006600000101F1F007320212320FF0000FCFC00FF82E2C2828300101F1F007F20232120C3
:20068000FF0000FCFC00FF82C2E2828300101F1F007F20212320FF0000FEFE402010080471
:2006A00002010001FFFF043818284080000000FEFE402010080402010001FFFF040810A0C6
:2006C000C0E0000000FCFC00FE020202020300101F1F003F2070F820E00000FCFC00FE026C
:2006E0000202020300101F1F003F20F87020E00008183878FF78381808000011090503FF1C
:200700000101010100000018180606060686867878000000000066660101000000010203BD
:20072000040506070800000102030405001C31323300003132332D0000313233000001027E
:2007400003040500C07811241FBECFEFD8E0DEBFCDBF14E0A0E0B1E0ECEDFDE502C005908D
:200760000D92A630B107D9F714E0A6E0B4E001C01D92A13BB107E1F70E9484110C94EC2EA1
:200780000C94000080FD5C9A80FF5C98549A00005D9A559A589859985A985B9864FD589AE6
:2007A000509A65FD599A519A66FD5A9A529A67FD5B9A539A00005D980E940A1987FD11C077
:2007C0005D9A589859985A985B9860FD589A61FD599A62FD5A9A63FD5B9A00005D980E947D
:2007E0000A19089518951895AC0192E01DC04230510520F440E050E027E103C042505040CA
:200800002EE38091B200280F2093B3009093700083B7817F866083BF83B7816083BF8895F8
:2008200083B78E7F83BFA8954115510501F71092700008951F93182F60FF03C085B1812BA2
:2008400003C095B18095892385B984B1812B84B982E090E00E94F40384B1912F9095892341
:2008600084B985B1982395B91F91089508951F93CF93DF93162FE82FF0E0E852FF4F9491B3
:2008800095B9E62FF0E0E852FF4FE491E92BE4B90E94611FEC01812F0E94611F2091580489
:2008A0003091590436952795B901645170406C177D0778F4A9014C5E5F4FC417D50748F40C
:2008C0006817790730F420E08417950718F421E001C020E014B8822FDF91CF911F91089556
:2008E0000F931F9380E061E00E943704082F80E062E00E943704182F81E062E00E943704A9
:20090000100F810F1F910F9108952F923F924F925F926F927F928F929F92AF92BF92CF9280
:20092000DF92EF92FF920F931F93DF93CF93CDB7DEB766970FB6F894DEBF0FBECDBF8A8B9A
:200940006B8B4C8BA895262F30E0F901E852FF4F54915B878C89E82FF0E0E852FF4F949136
:200960009A87990F9F87AA896A2F70E0CB0188529F4FFC01F491F987FF0FFE8765527F4FBE
:20098000FB01F491FD8725523F4FF901F4912D8528602D87F860FC8715B854B927B928B96A
:2009A0008A8560E00E941A048B890E945B1F9E838D83815D934048F08A8561E00E941A04CE
:2009C0008B890E94611F9E838D834D815E81485C514008F4BDC08F859B85892B84B98B891C
:2009E0000E944F1F7C018C890E94611F8C01AF85A5B98B890E944F1F970128513E4F281713
:200A0000390708F048C080911F04833009F443C088E088B9BC85B7B98F85E9858E2B84B9DD
:200A200085B98C890E944F1F88549F4028F083E080931F0484E004C083E080931F0486E0C0
:200A400080931E04F0927004E0926F04C701801B910B9093780480937704B70180E090E0D2
:200A600028EE33E040E050E00E94192E20911A0430911B0440E050E00E94582E30937204B4
:200A8000209371042C89209373043A89309374044B894093750488E088B95C8557B98F8583
:200AA0009985892B84B985B98A890E944F1F8C018C890E94611F7C01A985A5B98A890E9444
:200AC0004F1F88519E4F8017910708F041C080911F048330E9F1BD85B8B9B7B98C890E941F
:200AE0004F1F815D934028F483E080931F0485E004C083E080931F0487E080931E04E01ACA
:200B0000F10AF0927804E09277046091580470915904601B710B80E090E028EE33E040E034
:200B200050E00E94192E209120043091210440E050E00E94582E3093720420937104FC8983
:200B4000F09373042B89209374043A893093750488E088B94C8547B9598555B98A85582BC5
:200B6000598B54B900915804109159048A890E945B1F7C018C890E94611F1C019AE02916E0
:200B80003104B0F58F85A9858A2B84B9E0915804F0915904F887EF838A890E945B1F2F81CC
:200BA0003885281B390B38872F838C890E94611F1C014F8158857A0100E010E0209120045F
:200BC0003091210440E050E060E677EB87E490E00E94582EC801B7010E94192E910140E018
:200BE00050E00E94582EC901DA014C015D010DC0C8018E199F0998878F8382199309B1014E
:200C00000E94442E4B01AA24BB249B8594B915B8AD85A7B9A8B981E090E00E94F403ED81C2
:200C2000FE81E15DF34008F0BFC23A854B85342B388B34B98B890E945B1F8F559D4008F4C0
:200C4000EDC08F859B85892B8C8384B98B890E945B1F2C018C890E94611F3C0180911F04AE
:200C60008250823018F481E080931C0480911C04082F10E08A890E94611F000F111F01592A
:200C80001B4F86199709D8018D939C93B5E36B16710418F495E3692E712CED81FE81E41557
:200CA000F50510F0720105C072012D813E81E21AF30A80911C04482F50E05E8B4D8B6A0125
:200CC000CC0CDD1CCC0CDD1C87E694E0C80ED91E00E010E020911A0430911B0440E050E0F5
:200CE00060E677EB87E490E00E94582EC801B7010E94192E930140E050E00E94582ED601FC
:200D00002D933D934D935C931397281539054A055B05C0F4F60180829182A282B3822D89D1
:200D20003E89220F331F21593B4F80915804909159044F815885841B950B82199309D9017D
:200D40008D939C9380911F04853009F467C0B2ED6B16B3E07B0630F082E080931F04809338
:200D60001E0453C0ED81FE81E136F10508F04DC0F1ED4F16F7E05F0608F447C083E0809347
:200D80001F0480931E040C8507708C89806480937C0081E090E0909378048093770410E07D
:200DA000A8958A8561E00E941A042C8124B986B18023E9F33B8534B980917A008064809377
:200DC0007A0080917A0086FDFCCF8091780090917900209177043091780421503C4F281BF5
:200DE000390B30937804209377041F5F1B30C1F6C901880F991F880F991F69E070E00E941F
:200E0000442E70937804609377044C89409373045B89509374048A8980937504988994B908
:200E2000AA85A5B98B890E945B1F9B838A8380905804909059048C890E94611F881A990A65
:200E4000BAE08B16910498F58F85EB858E2B84B9FF85F5B98B890E945B1F9B838A8380901E
:200E60005804909059048C890E94611F881A990A2A813B81790100E010E020911A043091DC
:200E80001B0440E050E060E677EB87E490E00E94582EC801B7010E94192E940140E050E0E9
:200EA0000E94582EC901DA011C012D010AC08A819B8188199909B4010E94442E1B01442499
:200EC00055243C8537B988E088B9498944B945B98A890E945B1F8054964008F061C180916E
:200EE0001C04813009F4F3C18A8560E00E941A048A890E945B1F8C0115B881E090E00E9465
:200F0000F403898585B98A890E945B1F0054164008F046C08153914108F442C085E080939B
:200F20001F0414B815B8EC85E8B981E090E00E94F403F985F4B98A890E945B1F853F9105C5
:200F400008F025C1298924B98C890E945B1F815D934008F41CC18A890E94611F8D5D924078
:200F600008F415C1598554B98A890E945B1F8D5D924008F40CC1B985B5B981E090E00E94E1
:200F8000F40315B88A890E945B1F853F910508F0FEC084E080931F0481E080931C04F7C069
:200FA000EF85F985EF2BE983E4B9E5B98AE090E00E94F40360905804709059048A890E94AD
:200FC000611F681A790AA0905804B09059048C890E94611FA81AB90A80911F0482508230EF
:200FE00018F481E080931C0480911C04E82EFF2400915804109159040A191B098B890E94FF
:20100000611FEE0CFF1C2FE634E0E20EF31E081B190BD7010D931C93B5E3AB16B10418F489
:20102000A5E3AA2EB12CED81FE81E615F70510F0730105C073012D813E81E21AF30A80916B
:201040001C04482F50E05E8B4D8B6A01CC0CDD1CCC0CDD1C87E694E0C80ED91E00E010E07D
:20106000209120043091210440E050E060E677EB87E490E00E94582EC801B7010E94192E50
:20108000950140E050E00E94582ED6012D933D934D935C9313972215330544055505C0F49C
:2010A000F60120823182428253822D893E89220F331F21593B4F80915804909159044A8191
:2010C0005B81841B950B88199909D9018D939C93BEEFAB16B9E0BB0638F082E080931F0401
:2010E00081E080931E0453C0ED81FE81E136F10508F04DC0F9E46F16FDE07F0608F447C081
:2011000083E080931F0482E080931E040D8507708C89806480937C0081E090E0909378049E
:201120008093770410E0A8958A8560E00E941A04298124B925B986B18023E9F7398534B91B
:2011400080917A00806480937A0080917A0086FDFCCF8091770490917804209178003091A7
:201160007900280F391F30937804209377041F5F1B30C9F6C901880F991F880F991F69E0C1
:2011800070E00E94442E70937804609377044C89409373045A89509374048B898093750401
:2011A00088E087B988B993C088E088B910E00C859D85092B07B981E090E00E94F403AC8518
:2011C000A7B98A890E94611F429718F01F5F183C89F7BE85B4B9B5B98A8561E00E941A0419
:2011E0008A890E945B1F7C018A8560E00E941A048A890E945B1FD82EC92EE985E4B9E5B95F
:201200008A890E945B1F5C018B890E94611FA81AB90A8A8561E00E941A048A890E945B1F48
:201220008C018B890E94611F081B190BFE85F4B9F5B9A016B10610F4580108C08A8560E0E5
:201240000E941A048D2D9C2D9C0179018A890E945B1F9C01C5018759904089589141B8F592
:201260002A153B05A0F5C70163E0969587956A95E1F78E0D9F1D8A159B0548F554E0EE0C30
:20128000FF1C5A95E1F7AE14BF0408F580911F04882311F0863019F481E080931F0480919F
:2012A0001D04E82FF0E0EE0FFF1FEE0FFF1F9F0120573B4F4A89D9014C935B8911965C9349
:2012C000EE56FB4FB182A0828F5F80931D0480911D04882309F0F7C1A895809158049091B0
:2012E0005904880F991F880F991F90935904809358048091560490915704880F991F880F37
:20130000991F90935704809356048EEB8093540488E088B98C8587B9998594B995B9FF2470
:20132000F394CC24DD248B890E945B1FA82E792E8A890E94611F8C018C199D0997FF03C022
:20134000909581959F4F03975CF415B8AE85A4B98A890E945B1F8135910508F099C107C089
:20136000A895F3946801B9E1FB16E9F691C1EE85E5B98A890E945B1F4C01FD85F7B9F8B9F4
:2013800015B82B8524B9DD24D394442455248A890E945B1FC82EB92E8B890E94611F7C01EB
:2013A0008419950997FF03C0909581959F4F039764F43B85330F34B98B890E945B1F2C0132
:2013C00044E4003C140740F00EC0A895D394270159E1D516E1F65CC185E8881681E09806A1
:2013E00008F056C106C090EB89169DE4990608F04FC1A4EAEA16A2E0FA0608F06FC0B8E9FE
:201400004B16510408F444C1E0905804F0905904B40180E090E028E937EB40E050E00E94C2
:20142000192E97012819390940E050E00E94582E59016A01E418F50800E010E0C801B701C3
:2014400028E937EB40E050E00E94192E920140E050E00E94582EB901CA01E8E78E16EFE04E
:201460009E0640F412E0AA0CBB1CCC1CDD1C1A95D1F70CC0F8E74F16FFE05F06B0F4B2E033
:20148000660F771F881F991FBA95D1F76A0D7B1D8C1D9D1D25E030E040E050E00E94582ECC
:2014A000C901DA01BC01CD0108C06A0D7B1D8C1D9D1D969587957795679524E630E040E039
:2014C00050E00E94192E7B018C012CEA3DE040E050E0E20EF31E041F151F77C08A2D972D5D
:2014E0009C01A9010217130708F4A8018C2D9B2D9C0139012E153F0508F437014A01401718
:20150000510708F44801B401641B750B80E090E0209120043091210440E050E00E94192EB6
:2015200020915804309159042819390940E050E00E94582E59016A018301E614F70408F44B
:201540008701601A710AB30180E090E020911A0430911B0440E050E00E94192E980140E0E9
:2015600050E00E94582EB901CA0138E783163FE0930640F4F2E0AA0CBB1CCC1CDD1CFA951B
:20158000D1F70AC008571F40B0F4E2E0660F771F881F991FEA95D1F76A0D7B1D8C1D9D1D72
:2015A00025E030E040E050E00E94582EC901DA017C018D010AC07B018C01EA0CFB1C0C1DE5
:2015C0001D1D16950795F794E79480911F04823030F420917604E0E3F4E090E03EC0863094
:2015E00009F056C0F6CFAF0183853C96AC898A1799F5FA01A080B180C280D380C801B701C7
:201600006A197B098C099D0997FF07C090958095709561957F4F8F4F9F4F2AE030E040E022
:2016200050E00E94192E24E630E040E050E0A20EB31EC41ED51EAE0CBF1CC01ED11EA601C8
:2016400095010E94582E211531054105510501F586E080931F041CC09F5F921720F2ECE0D1
:201660002E9FF0011124E05DFB4FE082F1820283138314821582168217823B8931874A8953
:2016800042875C895387809176048F5F809376048091580490915904969587959695879543
:2016A0009093590480935804809156049091570496958795969587959093570480935604DB
:2016C00082E38093540488E087B988B914B815B866960FB6F894DEBF0FBECDBFCF91DF91A5
:2016E0001F910F91FF90EF90DF90CF90BF90AF909F908F907F906F905F904F903F902F9078
:2017000008952F923F924F925F926F927F928F929F92AF92BF92CF92DF92EF92FF920F934C
:201720001F93DF93CF93CDB7DEB72E970FB6F894DEBF0FBECDBF88E088B987B90E947004FF
:20174000833009F060C30E94942380E091E00E944325A8EAB4E0E2EAF3E089E001900D9228
:201760008150E1F785E090E064E00E948D2389E091E00E94B62485E090E066E00E948D2392
:201780008EE191E00E94B62488EC90E00E94F40388EC90E00E94F40388EC90E00E94F40376
:2017A0000E94942381E00E94852D86E690E060E00E94B92E87E690E060E00E94B92E85E665
:2017C00090E060E00E94B92E82E060E00E94C11F9A83898382E00E94852D82E061E00E9488
:2017E000C11F9C838B8383E00E94852D81E060E00E94C11F8C019E838D8384E00E94852D8C
:2018000069817A816C33710524F486E690E00E94B92E6B817C816C33710524F487E690E05E
:201820000E94B92E0C3311052CF485E690E0602F0E94B92E15E084E690E00E94F403D12E50
:20184000D394812F0E94852D4F9B05C02BE1D21611F01D2DF0CFCC24C39432E0A32E28E03E
:20186000B22E90E2992E88E2482E05E0302E11E1212E1CC18D2D94E0C91609F469C0D39474
:201880000E94852DE1E0CE1629F40E944A2250925404EFC0F2E0CF1651F5609158047091F0
:2018A000590480E090E028E53BE140E050E00E94192E24EC36E340E050E00E947A2E79015C
:2018C0008A0181E085B934B880E00E944F1F8E199F099A83898324B880E00E944F1F8E1917
:2018E0009F099C838B8375B864B881E0BCC023E0C21659F5A5B88AE084B980E00E944F1F50
:2019000020915804309159043695279538872F83821B930B9A83898392E294B980E00E947D
:201920004F1F9C018F819885281B390B3C832B83B5B844B881E00E944F1F9C018F819885D7
:20194000281B390B3E832D8394C0E4E0CE16F1F48BE090E067E00E948D2382E391E00E94C2
:20196000B62484E690E00E94F4038BE090E067E00E948D2385E491E00E94B6240E9470043A
:20198000882309F476C0A2E08A2E73C0F5E0CF1691F415B8A4B880E00E944F1F9A838983FB
:2019A000B4B881E00E944F1F9C838B8394B882E00E944F1F5CC026E0C21631F5A4B8A5B886
:2019C00080E00E944F1F2091580430915904821B930B9A838983B4B8B5B881E00E944F1FBE
:2019E0002091580430915904821B930B9C838B8394B895B882E00E944F1F2091580430917B
:201A00005904821B930B33C087E0C81691F5609158047091590480E090E028E53BE140E0AC
:201A200050E00E94192E28EB32ED47E450E00E947A2E79018A01A5B893E094B980E00E9492
:201A40004F1F8E199F099A838983B5B8ECE0E4B981E00E944F1F8E199F099C838B8395B890
:201A6000F0E3F4B982E00E944F1F8E199F099E838D83B7B8B8B814B815B84F9B0FC084E15E
:201A800090E00E94F4034F9B09C084E190E00E94F403839423E0281508F0ECCE84E190E03E
:201AA0000E94F403C39488E0C81649F08D2D8824F4E07F2EE4E16E2E7EEB572EDCCE7D2C2E
:201AC0001D2D145FBD2CB3948D2D0E94852D84E690E00E94F403DB2CB116A1F718861F82F3
:201AE00010921F0482E060E00E94B21980918204909183049C878B8782E061E00E94B2198E
:201B000080918204909183049E878D8781E060E00E94B21980918204909183049E838D83CF
:201B200080E062E00E94B21980918204909183049C838B8381E062E00E94B2198091820483
:201B4000909183049A87898780E061E00E94B21980918204909183049A8389836E0108942B
:201B6000C11CD11C76019E01215F3F4FF701808191818734910524F08B2D072D005E1AC0E3
:201B800082E090E0E80EF91EE216F30679F70DE510E0F60160816E5EC8010E94B92E82E0CB
:201BA00090E0C80ED91E0F5F1F4FCE14DF0489F7E3CF812F182F1F5F0E94852D84E190E077
:201BC0000E94F4031017A9F764E1A62EAB0CDD2400E05AE7E52E54E0F52E84E090E066E02F
:201BE0000E948D2388E591E00E94B6248EE190E067E00E948D238DE691E00E94B6241092BF
:201C00001F0482E060E00E94B21984E090E066E00E948D2388E791E00E94B6248EE190E0EB
:201C200067E00E948D238DE891E00E94B62460917A0470917B0480917C0490917D041091E6
:201C40008C040BC02AE030E040E050E00E94582EC901DA01BC01CD011F5F173F9CF3609311
:201C60007A04F70171838283938310938C04173F09F0ADC0603671058105910508F4A7C065
:201C8000605F75458040904008F0A1C00F5F023008F49EC060918E0470918F048BE590E0F1
:201CA0000E94C72E88E088B989E087B980E284B982E00E94611F855D9340D4F714B810922A
:201CC00057041092560482E00E94611F9A8389838AE590E00E94AB2E992787FD909520918C
:201CE0005C0430915D04820F931F909357048093560482E00E94611F9C838B831092570486
:201D00001092560482E00E94611F6C019E838D838AE590E00E94AB2E992787FD90958090D2
:201D20005C0490905D04880D991D9093570480935604EB80FC808AE590E00E94AB2EB82E65
:201D4000EE0CFF1C69817A816E197F096C0D7D1D882777FD8095982F2B2D332727FD3095CD
:201D6000280D391D40E050E00E94192E0027F7FC0095102FA80197010E947A2E83E0B80EFD
:201D80002B0D8AE590E0622F0E94B92E84E090E066E00E948D2388E791E00E94B6248EE1DB
:201DA00090E067E00E948D238DE891E00E94B624072D0E5C1A2D1F5F8A2D0E94852D8CE3DB
:201DC00090E00E94F403101761F0A12EF3CF00E088E290E00E94F403D39490E4D91609F0DB
:201DE000FCCE82E38093540486E290E067E00E948D2388E991E00E94B62410921F0488EC41
:201E000090E00E94F4032E960FB6F894DEBF0FBECDBFCF91DF911F910F91FF90EF90DF9011
:201E2000CF90BF90AF909F908F907F906F905F904F903F902F9008957F928F929F92AF92BC
:201E4000BF92CF92DF92EF92FF920F931F93DF93CF93CDB7DEB72F970FB6F894DEBF0FBE8B
:201E6000CDBF6B017C01142F722E033019F488EE93E01EC0043019F480E197E219C084E6A5
:201E800090E016C085E090E0A0E0B0E0C80ED91EEA1EFB1EC701B6012AE030E040E050E040
:201EA0000E94582EC901DA016C017D011F5F03C04C01AA24BB24C814D904EA04FB0410F782
:201EC000412F445F47FF02C040E003C0433108F042E1842F63E00E94382EE82F842F0E940B
:201EE000382EB92E992321F0EF5F83E0891BB82EF0E0E257FD4FA080C6018E010F5F1F4FE6
:201F0000B8014AE050E00E94952EF80101900020E9F731971E2F101B412F4B19141614F479
:201F200090E00DC090E390930A048EE280930B04442311F492E003C090930C0493E0BB200C
:201F400009F44FEFBE016F5F7F4FDB0121E030E0552747FD50950EE213C0E92FF0E0E65F69
:201F6000FB4F8C9180839F5F2417350731F4E92FF0E0E65FFB4F00839F5F11962F5F3F4FA2
:201F80008A2F861B811748F3AA2031F0E92FF0E0E65FFB4FA0829F5F772031F0E92FF0E0F2
:201FA000E65FFB4F70829F5FE92FF0E0E65FFB4F10822F960FB6F894DEBF0FBECDBFCF912D
:201FC000DF911F910F91FF90EF90DF90CF90BF90AF909F908F907F9008950F93E82FF0E054
:201FE000E552FF4FE491E860E8B9E7B9E62FF0E0E852FF4FE49115B8EE0FE4B9862F0E94BE
:202000005B1F0097E1F0BC0180E090E020EA36E841E050E00E94192E28E937EB40E050E06C
:202020000E94582E40E050E0CA01B90147EF21E402E00E941C0F88E087B988B914B80F9164
:2020400008950F9390E0FC01EE0FFF1FE80FF91FEE0FFF1FEE0FFF1FE05DFB4F208131819A
:20206000428153812436310541055105C0F48091340490913504A0913604B09137040097C8
:20208000A105B10561F4818562850E94C11FA0E0B0E0BC01CD014EEF2EE703E005C0CA01C0
:2020A000B9014FEF2EE704E00E941C0F0F9108950F93833088F4E82FF0E0EE0FFF1FEE0F55
:2020C000FF1FEE56FB4F6081718180E090E04DEF26E503E00E941C0F0F9108951F93182F84
:2020E00080E090E062E00E948D2382EA91E00E94B624812F82958F700E94581080E090E083
:2021000064E00E948D2387EA91E00E94B624812F8F700E9458101F9108951F93182F8CEA56
:2021200091E00E94B624812F82958F700E945810812F8F700E9458101F910895CF93DF9308
:202140008BE590E00E94B32E20915C0430915D04280F391F43E0283E340718F4E0E0F0E0FA
:2021600003C0F901E85EF340CF0162E370E00E94442E262FCF0162E370E00E94442E482F6B
:20218000283008F027E0822F90E0880F991FFC01EA53FF4F2591349188539F4FFC01C59159
:2021A000D49182E3841B90E02C1B3D0BAC01429FC001439F900D529F900D1124499662E302
:2021C00070E00E94442EC60FD71FD0939602C0939502DF91CF910895AF92BF92CF92DF921A
:2021E000EF92FF920F931F93CF93DF93DD24B8E0CB2EAAE2AA2EF5E1BF2EC7B8C8B815B820
:20220000A4B880E00E945B1FEC0181E00E94611F8C0182E00E94611FBC0180911F048830BC
:20222000C1F080E0C430D10508F481E020E00430110508F421E08223282F30E040E050E0C3
:202240006430710510F441E050E024233523232B21F088E087B914B84CC0C85ED34010F464
:2022600089E001C088E0085E134008F48260685E734008F4846087B9B4B800E010E0A89523
:2022800080E00E944F1F7C0181E00E94611FEC0182E00E94611F24E1E21625E0F20608F467
:2022A000389A25E0C431D20708F4399A25E08431920708F43A9A26E0E216F10420F42697C3
:2022C00010F4069740F00F5F1F4F81E0043F1807B1F6C0921F04C0E0D0E003C00E94FB18AA
:2022E0002196C017D107D0F3D3949AE0D91609F084CFDF91CF911F910F91FF90EF90DF90FC
:20230000CF90BF90AF9008952F923F924F925F926F927F929F92AF92BF92CF92DF92EF92A7
:20232000FF920F931F93DF93CF93CDB7DEB72A970FB6F894DEBF0FBECDBF80E48AB98BB9D8
:2023400086E880937A0014B784B7877F84BF88E10FB6F89480936000109260000FBE86EAC7
:202360008093640088E380937E001092B00087E08093B10078940E94EE2D0E94942313FF39
:202380000CC080E090E060E00E948D2380EB91E00E94B62488E592E0D8C080E185BF1092F9
:2023A000620410922304DD2467E0662E712C6C0E7D1E2E010894411C511C54E0252E312CE7
:2023C0002C0E3D1E10921F0410921D0410921C0410921E04109261040E94942388E087B952
:2023E0001092760410928A0410928B04109255040E944A228AE590E00E94AB2E992787FDB9
:20240000909520915C0430915D04820F931F909357048093560485E00E94611F85E00E94A8
:20242000611F85E00E945B1F9093700480936F0485E00E945B1F9093700480936F0484E874
:2024400090E090931303809312038BEB91E00E94432560916F0470917004660F771F660F61
:20246000771F6A567F4F80E090E060937A0470937B0480937C0490937D044DEF26E503E014
:202480000E941C0FA8EAB4E0E4EBF3E089E001900D928150E1F784E190E063E00E948D23FB
:2024A00083EC91E00E94B624A8EAB4E0E2EAF3E089E001900D928150E1F780916F04909114
:2024C000700426E08A3F920708F05CC08353964008F058C00E94942385E090E061E00E943F
:2024E0008D238EEC91E00E94B6248EE190E066E00E948D2383EE91E00E94B6248AE094E012
:202500000E94B6248AEE91E00E94B62480E991E00E94F40383E290E064E00E948D238CEE82
:2025200091E00E94B62488EC90E00E94F40386EF91E00E94B62488EC90E00E94F40386EFDD
:2025400091E00E94B62488EC90E00E94F4031BB880E090E02A960FB6F894DEBF0FBECDBF67
:20256000CF91DF911F910F91FF90EF90DF90CF90BF90AF909F907F906F905F904F903F90F7
:202580002F9008958EE190E066E00E948D2383EE91E00E94B6248AE094E00E94B6248AEE38
:2025A00091E00E94B6242FE088E190E00FB6F894A895809360000FBE209360000E949E1015
:2025C0000E94EC100E94810B80E061E042E00E94850481E060E042E00E94850480E062E0B1
:2025E00041E00E94850482E060E041E00E94850481E062E040E00E94850482E061E040E0F0
:202600000E94850480911F04882321F0863011F08130D9F40E94EC1010927E0410927F0483
:20262000109280041092810484EF80938D0482E060E00E94B21982E061E00E94B21981E0B6
:2026400060E00E94B2190E94CC1C80911F04813009F0C5C180911D04813009F07EC06091D4
:20266000900480919104681798F4813029F4662311F535E0D32E1FC08230E9F4613019F496
:2026800026E0D22E18C06623B1F497E0D92E13C0882329F4613051F405E0D02E0EC08130DD
:2026A00061F4623051F416E0D12E07C0623029F4B7E0DB2E02C010E001C011E00E94B21912
:2026C0000E94942380E00E944A2B88EF91E00E9443258D2D612F0E94B72C609192047091E1
:2026E000930480E090E04DEF26E503E00E941C0FA8EAB4E0E2EAF3E089E001900D9281504D
:20270000E1F7D201E6EAF2E083E001900D928150E1F78D2D63E00E94382EF201E90FF11D32
:20272000808190E00E948D238CEA91E00E94B6248AE094E00E94B6248EEF91E00E94B624AF
:2027400060917A0470917B0480917C0490917D0440918C0426E403E0CEC1823009F0B8C453
:202760000E94942380E00E944A2B82E092E00E94432590919004309194049317B9F5992389
:2027800079F480919104813029F0DD2404E060E010E03DC0DD2490E004E060E010E044C0C1
:2027A000913081F480919104882331F0DD2495E006E061E010E047C0DD2495E006E061E040
:2027C00010E0A9C0923011F0DD244BC080919104813031F0DD2491E004E061E011E04EC0C3
:2027E000DD2491E004E061E011E055C08091910420919504821709F057C08823D1F4913072
:2028000069F0DD24D39490E004E061E011E0A2E09A2EF9E2AF2EE5E0BE2E74C0DD24D39422
:2028200090E004E061E011E075E0972E5CE0A52E36C0813091F4992369F0DD24D39495E0CB
:2028400006E060E011E043E0942E36E4A32E23E0B22E58C0DD24D3945AC0823039F0DD2438
:20286000D39490E000E060E010E05DC0913069F0DD24D39491E004E060E010E082E0982E25
:20288000B9E2AB2EA5E0BA2E4CC0DD24D39491E004E060E010E0F5E09F2EE6E4AE2E72E0C4
:2028A000B72E59E2C52E3FC0831709F011C4291709F00EC4222311F48130C1F0913029F409
:2028C0008823A1F0823009F504C02230F1F48130E1F442E0D42E91E003E060E011E035E0CD
:2028E000932E26E4A22E82E0B82E1BC0B2E0DB2E90E002E060E011E0A5E09A2EFCE0AF2EF6
:20290000E2E0BE2E7CE0C72E0EC052E0D52E95E006E060E011E043E0942E3CE0A32E23E054
:20292000B22E86E4C82E892F9A870E94B72C802F612F0E94B72C9A85953041F5063031F5BF
:20294000F2E0DF1639F48FE390E065E00E948D2380E01AC08EE390E064E00E948D2380ECED
:202960000E94662380EC0E94662380EC0E9466238EE390E065E00E948D2381E00E946623FA
:202980008FEF0E94662381E00E946623A8EAB4E0E2EAF3E089E001900D928150E1F70E9459
:2029A00058108A2D90E0692D0E948D238CEA91E00E94B6248AE094E00E94B62481E00E94E0
:2029C00058108C2D90E06B2D0E948D238CEA91E00E94B6248AE094E00E94B624AFC382309B
:2029E00009F08CC080911C04882371F120916B0430916C0440916D0450916E0480916704F2
:202A000090916804A0916904B0916A04281739074A075B0748F49091740480917504809338
:202A200074049093750410C020936704309368044093690450936A048091710490917204B7
:202A40009093700480936F0480911D0490911E04833080F0913039F49091740480917504B0
:202A6000891788F00DC09091740480917504981750F006C0DD24913041F0DD24D39405C079
:202A8000B3E0DB2E02C0A2E0DA2E0E9494238D2D6091750440917304209174040E94452851
:202AA00087E490E064E00E948D238BE092E00E94B6246091670470916804809169049091E4
:202AC0006A0440E020E003E00E941C0F8AE094E00E94B62487E490E066E00E948D238CEA75
:202AE00091E00E94B62460916F047091700480E090E04DEF26E50E941C0F6CCF833009F045
:202B0000ACC040911E04842F90E0BC016170707040FF02C088E001C080E0942F969591308C
:202B200011F4846003C0933009F4826090E09C012870307081FF08C0232B19F4F5E0DF2E7D
:202B400015C0E4E0DE2E12C084709070232B39F0892B11F4DD240AC052E0D52E07C0892B5F
:202B600019F4DD24D39402C033E0D32E80911D048823B1F04430F0F4662339F090917404E9
:202B800080917504981708F409C3672B09F008C39091740480917504891708F4FFC200C39B
:202BA000443040F400E080917304609175040E94B21901C000E00E9494238D2D6091750410
:202BC00040917304209174040E94A42686E490E064E00E948D2380911E04843088F480E1E4
:202BE00092E00E94B62460917A0470917B0480917C0490917D0440918C0426E403E00DC0AA
:202C000083E192E00E94B624609171047091720480E090E04BEF21E402E00E941C0F8AE05D
:202C200094E00E94B62486E490E066E00E948D2380911E04843018F486E192E002C08AE139
:202C400092E00E94B624609177047091780480E090E04DEF26E502E04ECF853021F40E941B
:202C6000942381E005C0843061F40E94942380E06091750440917304209174040E9486258D
:202C80005DC2863009F062C180917604813021F580913A04882329F4809139048130A1F446
:202CA0007AC0813049F480913904882309F473C0823009F074C06CC0823009F070C08091CC
:202CC0003904813029F464C0823009F068C065C0882309F462C063C01092630420913C04E6
:202CE00030913D0440913E0450913F048091300490913104A0913204B091330482179307EE
:202D0000A407B50718F481E08093630480917604823001F18091630490E0FC01EE0FFF1F36
:202D2000E80FF91FEE0FFF1FEE0FFF1FE05DFB4F209148043091490440914A0450914B046D
:202D400080819181A281B38182179307A407B50718F482E08093630480916304882319F457
:202D6000DD24D39408C0813019F482E0D82E03C0823009F4DD240E94942380E00E944A2BBA
:202D80008FE192E00E9443258D2D0E947C2C07C0DD24D39404C0DD2402C002E0D02E4F9BC3
:202DA000FECF80917604813009F085C080E00E9421100E9494238091340490913504A0916C
:202DC0003604B09137040097A105B10509F451C080E00E944A2B88E292E00E9443258D2D25
:202DE0000E940E2AA8EAB4E0E2EAF3E089E001900D928150E1F7D201E3EAF2E083E001908C
:202E00000D928150E1F7ED2CFF24F201EE0DFF1D808190E063E00E948D238AE094E00E949E
:202E2000B624609134047091350480913604909137044091380428E404E00E941C0FD10112
:202E4000E0EAF2E083E001900D928150E1F7D301EDE9F2E083E001900D928150E1F7F101F0
:202E6000EE0DFF1DE60CF71C808190E0F701608153C080E00E944A2B8FE192E00E94432576
:202E80008D2D8D5F0E94EB2BD301EAE9F2E083E001900D928150E1F7A8EAB4E0E2EAF3E05A
:202EA00089E001900D928150E1F7F301ED0DF11D808190E049C0A8EAB4E0E2EAF3E089E02C
:202EC00001900D928150E1F7DD2089F40E94211084E190E065E00E948D238AE094E00E94E0
:202EE000B62481E00E94211081E390E02DC0F1E0DF16A9F481E00E94211081E390E063E055
:202F00000E948D238AE094E00E94B62482E00E9421108EE490E065E00E948D235BCD22E02D
:202F2000D21609F00BC180E00E94211084E190E063E00E948D238AE094E00E94B62482E08B
:202F40000E9421108EE490E063E0E6CF873009F0BFC080918A04882329F480918B048130DD
:202F600099F41EC0813039F480918B048823C1F08230E9F417C0823029F480918B04813086
:202F800051F410C0882329F480918B04823079F40CC0823061F480918B04882331F007C08F
:202FA000DD2405C0DD24D39402C012E0D12E0E94902180918B0460918A040E94C11F909319
:202FC0008704809386040E94942381E392E00E9443258D2D0E949F2A82E0D81611F481E0B5
:202FE00001C080E00E944A2BA8EAB4E0E2EAF3E089E001900D928150E1F7D301E7E9F2E01C
:2030000083E001900D928150E1F7F301ED0DF11D808190E065E00E948D2360917E047091FC
:203020007F04809180049091810440918D0426E404E00E941C0F8AE094E00E94B62480914A
:20304000880490918904892BD9F083E490E063E00E948D238BE392E00E94B6246091880474
:203060007091890480E090E04FEF25E202E00E941C0F8AE094E00E94B62480E090E010C004
:20308000DD2019F48BE090E00BC0E1E0DE1619F485E490E005C0F2E0DF1629F488E290E062
:2030A00063E00E948D2380918604909187048A5F9F4F08F043C082E492E00E94B62460911D
:2030C00086047091870480E090E04EEF2EE7C3CD0E9494238AE390E060E00E948D238FE3EE
:2030E000E090BD03F090BE030091BF031091C0032091C1033091C2034091C3035091C4036E
:203100006091C5030E94A92389E190E064E00E948D2387E492E00E94B62489E190E066E09F
:203120000E948D2386E592E00E94B624809162048F5F809362041092230407C0109262046E
:20314000809123048F5F8093230488E187B94F9BFECF109278041092770410C04F9B32C9BF
:20316000A89582E090E00E94F40380917704909178040A9690937804809377048091770425
:203180009091780480569D4648F35E984F9B1AC9A89582E090E00E94F403F8CF02E003CDBA
:2031A00001E001CD2F935FB72F932AE08095089410F4439802C0439A000022D029D0869587
:2031C0002A95B1F72F915FBF2F910895089503D002D001D000D000D003D002D001D000D054
:2031E000A89500D003D002D001D000D000D003D002D001D000D000D003D002D001D000D050
:2032000000D003D002D001D000D000D003D002D001D000D0000008951F9360917A047091C3
:203220007B0480917C0490917D0410918C040AC02AE030E040E050E00E94582EC901DA01AA
:20324000BC01CD01212F1F5F613A36E8730731E0830730E0930760F720938C0420915804F6
:203260003091590440E050E00E94192E28E833E140E050E00E94582E20937A0430937B04E8
:2032800040937C0450937D041F9108951F920F920FB60F9211248F939F938091650490914E
:2032A0006604019690936604809365049F918F910F900FBE0F901F9018951F920F920FB636
:2032C0000F921124109279040F900FBE0F901F901895DF92EF92FF920F931F9321E08C32FC
:2032E000920718F4E0E0F0E003C0FC01EC52F140CF0169E170E00E94442E262FCF0169E17D
:2033000070E00E94442ED82E2D3208F02CE2022F10E0000F111FC801805090400E94B32E92
:203320007C01C8018E5F9F4F0E94B32E9C0189E18D1990E0E21AF30AAC014E9DC0014F9D8E
:20334000900D5E9D900D11240C9669E170E00E94442E620F731FCB011F910F91FF90EF9086
:20336000DF9008954F925F926F927F928F929F92AF92BF92CF92DF92EF92FF920F931F9341
:20338000CF93DF93782E562EA82EBB24262F2150C501880F991F8A0D9B1D280F20936404FE
:2033A000E62FF0E0E552FF4F4491F501E852FF4F649080911F04863009F4A3C230911D042E
:2033C000E0E9F4E020E00EC08181851549F48081871531F4828193818C5D954008F491C2C3
:2033E0002F5F3496231780F328E0422E442A109287041092860410927A0410927B041092A6
:203400007C0410927D0484EF80938C040E94EC1088E088B915B847B864B8872D0E94611FEE
:203420007C011092660410926504EC012DC065B864B80E94F61814B815B80E94FC18A895A9
:20344000872D0E94611FE816F90618F0C0E0D0E003C0EC01CE19DF098091650490916604BD
:203460008E37910521F4CB34D10508F445C281E0CD32D807A8F4809165049091660401968D
:2034800090936604809365048091650490916604845F914060F251E0CD32D50708F42CC222
:2034A0008091650490916604892B81F485E0C531D80708F096C00AC00E94F718872D0E9485
:2034C000611F9C01A8950F5F1F4F03C09E0100E010E080916504909166048017910760F7F9
:2034E000E216F30618F060E070E00BC0B9016E197F096C177D0728F088249924CC24DD2436
:2035000021C06E01C61AD70AD9F0B60180E090E028EE33E040E050E00E94192E9E0140E029
:2035200050E00E94582E490125E6C216D10450F08091650490916604892B09F454C0DCC18A
:2035400088249924E0906504F09066040894E11CF11C00E010E0E0928204F0928304009335
:20356000840410938504C6018C0F9D1F0E9469199C0140E050E0C801B7010E94192E60930B
:20358000820470938304809384049093850460937A0470937B0480937C0490937D0487EF34
:2035A00080938C040E940C1960917A0470917B0480917C0490917D0428EE33E040E050E006
:2035C0000E94192E24E630E040E050E00E94582E20937A0430937B0440937C0450937D0446
:2035E00049C188249924162D110F0E94EC1015B88FE087B988E088B914B980E480937B0073
:2036000084E580BF872D806480937C0086E180937A000E94FF181092660410926504109275
:203620008000109285001092840087E286BB81E280936F0091E09093790415B980911F041B
:20364000833069F49093810081E090E002C0880F991FAA94E2F780958F7087B916C0909370
:20366000810047B812C083B7817F83BF83B7816083BF889583B78E7F83BFA89580916504C2
:20368000909166048054964021F080917904882351F710928100C0918600D09187001092DF
:2036A0006F0080918400909185008C179D0748F480916504909166040197909366048093A0
:2036C000650486E980937A0014B815B8872D0E94611F20915C0430915D04821B930B0C9606
:2036E00090938F0480938E0480916504909166048052934008F000C1809165049091660407
:203700009093850480938404D0938304C093820484EF80938C0480916504909166048234CE
:203720009105C8F06091820470918304809184049091850424E630E040E050E00E94582E67
:203740002093820430938304409384045093850486EF80938C04609195027091960280E086
:2037600090E0209182043091830440918404509185040E94192E20E233E040E050E00E94A7
:20378000582E20938204309383044093840450938504EAE7F4E020937A0431834283538334
:2037A0000E940C1980918C04843F09F055C0E0907A04F0907B0400917C0410917D0450EA76
:2037C000E5165FE0F50650E0050750E01507C0F4A80197012C543F4F4F4F5F4F60EA7FE034
:2037E00080E090E00E94582EE20EF31E041F151FE0927A04F0927B0400937C0410937D0451
:203800008091640490E0835A9F4F0E94AB2E20917A0430917B0440917C0450917D0490E0E7
:20382000A0E0B0E082179307A407B50768F4281B390B4A0B5B0B20937A0430937B044093FA
:203840007C0450937D0408C010927A0410927B0410927C0410927D0464B880917A0490916A
:203860007B04A0917C04B0917D044997A105B10508F442C080911D04882321F080911F04FA
:203880008330D1F587E080931F0460918C0480918D048617BCF0681779F520917A043091C9
:2038A0007B0440917C0450917D0480917E0490917F04A0918004B091810482179307A40746
:2038C000B507D0F480917A0490917B04A0917C04B0917D0480937E0490937F04A0938004D4
:2038E000B093810460938D04909289048092880450928A0470928B0488E087B988B914B879
:2039000015B8DF91CF911F910F91FF90EF90DF90CF90BF90AF909F908F907F906F905F9005
:203920004F9008950F931F93CF93DF938C0164E170E00E94442E70E09B01220F331F88E6D0
:2039400090E0280F391FF901C591D491AB014F5F5F4F440F551F480F591FFA01259134919F
:203960002C1B3D0BC80164E170E00E94442E90E0AC01249FC001259F900D349F900D11249F
:2039800064E170E00E94442E6C0F7D1FCB01DF91CF911F910F9108952F923F924F925F927A
:2039A0006F927F928F929F92AF92BF92CF92DF92EF92FF920F931F93DF93CF93CDB7DEB7EC
:2039C00063970FB6F894DEBF0FBECDBF80911F04863009F04BC280917604813009F046C279
:2039E0008091300490913104A0913204B091330489509245A040B04008F038C21B8A8B8922
:203A0000823028F4A0903904F0903A0404C0A0903A04F0903904EF2DF0E0E552FF4FB49009
:203A2000EA2DF0E0E852FF4F249115B898E098B98091300490913104A0913204B091330452
:203A4000803F9105A105B105C0F4AB89A0FD15C040901A0450901B0480E795EE480E591EB7
:203A60002B2D286081E090E00A2C02C0880F991F0A94E2F7282B27B908C024B98B2D88605F
:203A800087B940901A0450901B04EE248A2D0E94551F8C018F2D0E94611F0230110510F463
:203AA000029720F0E39494E1E91681F7A0E4A0937B00B4E5B0BF8A2D806480937C0026E18F
:203AC00020937A0010928000109285001092840087E286BB0B2D08600E94FF189B89292ECC
:203AE0003324D101A170B070BA8BA98B90FD05C0B1E8B093810008B908C008B90E94081937
:203B000020E226BB81E88093810020E030E086B3482F85FF02C049010DC080FFF8CF91E0F1
:203B200096BBA8952F5F3F4F2035310581F730E5832E912C10928100A0E2A6BB2091860018
:203B400030918700390180918400909185002817390738F440FF05C0B1E0B6BB0894811CBE
:203B6000911C28E028B986E980937A00EE248A2D0E94551F8C018F2D0E94611F0230110521
:203B800010F4029720F0E39494E1E91681F7A0903004B090310480915F0490916004A80E8D
:203BA000B91EA40CB51C8BE590E00E94B32E20915C0430915D04280F391FA0E94A16AAE114
:203BC0005A06C8F4B1EE6B1671048104910410F089E107C0C30165E070E00E94442E862FC7
:203BE0008451B90168527040992787FD9095681B790B86E00AC0C50160EB76E30E94442EAE
:203C0000862F895FB901685D7F4F90E0A0E0B0E086159705A805B90528F4681A790A8A0AE3
:203C20009B0A03C066247724430189899A89892B41F082E290E0A0E0B0E0680E791E8A1E00
:203C40009B1E90E58916910418F0662477244301ABE06A1671048104910428F008946108DA
:203C6000710881089108CC24DD2480E090E028EE33E040E050E00E94192E7B018C01B201CA
:203C800080E090E0209158043091590440E050E00E94192EA60195010E94582E40E050E03B
:203CA000C801B7010E94582EDA01C9010E94921C7C01C601B501A40193010E94192E5B01EE
:203CC0006C0100E010E023E0EE0CFF1C001F111F2A95D1F785E090E0A0E0B0E0E80EF91EC7
:203CE0000A1F1B1FC801B7012AE030E040E050E00E94582E40E050E0C601B5010E94582E59
:203D0000F101EE0FFF1FEE0FFF1FA1E0B0E0AC0FBD1FEA0FFB1F20833183428353838989BC
:203D20009A89892BA9F49CE0691671048104910478F0F1013196EE0FFF1FEE0FFF1FEA0F35
:203D4000FB1F2083318342835383AB89AF5FAB8BA895BB89BF5FBB8BB43008F450CE88E094
:203D600088B984E090E00E94F40370E02D813E814F81588589819A81AB81BC81821793076A
:203D8000A407B50708F471E02D853E854F85588989859A85AB85BC8582179307A407B5070D
:203DA00010F463E001C062E0E62FF0E0EE0FFF1FEE0FFF1FDE011196EA0FFB1F872F90E0DF
:203DC000880F991F880F991FA80FB91F20813181428153818D919D910D90BC91A02D28178A
:203DE00039074A075B0708F4762F872F90E0FC01EE0FFF1FEE0FFF1FEC0FFD1F418152812A
:203E000063817481409334045093350460933604709337042BEF2093380480FD0DC08091D3
:203E2000300490913104A0913204B0913304803F9105A105B105B8F08CEF809338044B5F4C
:203E40005F4F6F4F7F4FCB01BA012AE030E040E050E00E94582E2093340430933504409355
:203E600036045093370488E087B914B863960FB6F894DEBF0FBECDBFCF91DF911F910F9116
:203E8000FF90EF90DF90CF90BF90AF909F908F907F906F905F904F903F902F9008958F9341
:203EA00084E090E00E94F4030BC08F9382E090E00E94F40305C08F9381E090E00E94F403EC
:203EC0008F911F93182F106410937C00E12FE07880915504E81761F00E9400198EE98093CF
:203EE0007A0083E083BF889582E083BFE093550420E030E0A901E0E01FC08EE980937A00B9
:203F000083E083BF889582E083BF6091780070917900260F371F411D511DE43061F4809187
:203F20005704803041F084E02030380720F417FD02C01068C9CFEF5F80915404E817E8F2C8
:203F400017FF05C0609156047091570404C0609158047091590480E090E00E94192E2FEF99
:203F600033E040E050E00E94582EB901CA012091540430E040E050E00E94582EC9011F9126
:203F800008952F923F924F925F926F927F928F929F92AF92BF92CF92DF92EF92FF920F93A4
:203FA0001F93DF93CF93CDB7DEB76E970FB6F894DEBF0FBECDBF662EB82E860F898320914A
:203FC0001F04273019F520917E0430917F04409180045091810410918D0409C0CA01B901A7
:203FE0002AE0312D412D512D0E94582E1F5F173FACF32C8B3D8B4E8B5F8B243B60E03607B4
:204000004105510518F48FEF9FEF71C126EDA22E02C094EDA92EEBEDF0E0E60DF11D8591FE
:2040200088608E87EBEDF0E0EB0DF11D859188608F87E8EDF0E0E60DF11D7590E8EDF0E071
:20404000EB0DF11DC59090EC692AB92A81E0E82EF12C012D112D8E831F82188619861A8684
:204060001B861C861D86188E198E0E94EC1088E088B960927C000E9400193F8537B975B8BC
:2040800074B80E9405190E94091915B814B8DD24B4ED9B2EA6ED8A2E3E8537B975B874B815
:2040A00060927C00A895A0927A0080917A0086FDFCCFA0927A0080917A0086FDFCCF20909B
:2040C000780030907900B0927C00A0927A0080917A0086FDFCCF80927A000E940619C5B822
:2040E000C4B80E9404190E9406190E940A198F938F91A895A89514B815B880917A0086FD9C
:20410000FCCF2091780030917900288B398B3F8537B9C5B8C4B8A895B0927C00A0927A00A6
:2041200080917A0086FDFCCFA0927A0080917A0086FDFCCF609178007091790060927C00D0
:20414000A0927A0080917A0086FDFCCF80927A000E94061975B874B80E9404190E940619B4
:204160000E940A198F938F91A895A89514B815B880917A0086FDFCCF4091780050917900A9
:2041800014B8CB01820D931DE80EF91E011D111DEA82FB820C831D8388899989840F951F5D
:2041A0002E813F8168857985280F391F611D711D2E833F836887798724E62417150650F008
:2041C00075B874B80E94091914B815B8888D8395888F07C0483E73E0570718F08A8D8395B0
:2041E0008A8F8889998928171906B0F03E8537B9C5B8C4B80E9409190E9404190E94061985
:204200000E940A198F938F91A895A89514B815B8898D8395898F07C0883E73E0970718F0B8
:204220008A8D83958A8FD3945D2D5F3F09F034CF40905F0450906004440C551C9201E4E01C
:20424000240D351DEA95E1F72901570168016E807F808884998420911F042730C1F46C89AE
:204260007D898E899F899B01AC016D5E7F4F8F4F9F4F0E94192E9B01AC0166E379E286E807
:204280009AE10E94582E621A730A840A950AA614B704C804D90428F46A187B088C089D08DD
:2042A00003C0662477244301B20180E090E09301A4010E94192E9501A6010E94582E84E65E
:2042C00090E07981870F911D0E94AB2E682EC90160E170E00E94442E260F371FC9016816DD
:2042E000190618F48619910902C0812D912D6E960FB6F894DEBF0FBECDBFCF91DF911F9161
:204300000F91FF90EF90DF90CF90BF90AF909F908F907F906F905F904F903F902F9008953E
:20432000CF92DF92EF92FF920F931F93CF93DF938091880490918904892B09F0A2C0809106
:204340008A04E82FF0E0E552FF4F14911860E0918B04F0E0E852FF4F04910E94EC1088E053
:2043600088B915B817B904B980918B040E94611F6C0180918D04883F0CF083C020917E0498
:2043800030917F044091800450918104182F145F11C02B5F3F4F4F4F5F4FCA01B9012AE0A0
:2043A00030E040E050E00E94582EC901DA019C01AD011F5F143068F3DA01C9010197A10981
:2043C000B10988589341A040B04008F05AC005B904B98901C0E0D0E003C00E9406192296FC
:2043E000C017D107D0F314B815B8A89585E08093540480918B040E94611FC816D90618F01E
:20440000EE24FF2403C07C01EC18FD08C0E0D0E003C00E9406192196C017D107D0F3809110
:204420008B040E94611F9C0182E380935404A895C216D30618F060E070E003C0B9016C19D6
:204440007D096E157F05B0F4C701861B970BBC0189F080E090E024EF31E040E050E00E9404
:20446000192E970140E050E00E94582E30938904209388040E94EC1088E087B988B914B803
:2044800015B8DF91CF911F910F91FF90EF90DF90CF9008952F923F925F926F927F928F9200
:2044A0009F92AF92BF92CF92DF92EF92FF920F931F93CF93DF9388E893E1909359048093B6
:2044C00058048EEB8093540418E018B988E187B90E94FB1817B984E00E945B1F8C01909375
:2044E0007204809371048B5C9840835F9140C0F481E080936104609158047091590480E0B4
:2045000090E02FEB39E040E050E00E94192E980140E050E00E94582E30935904209358047F
:204520008EE00E94611F8EE00E945B1F90935D0480935C040E949E108AE590E00E94AB2EC0
:20454000992787FD909520915C0430915D04820F931F909357048093560459E0D52ED7B8C6
:20456000FF24F394F5B8F4B880E00E945B1F5C014AE0E42EE7B804E005B904B981E00E9422
:204580005B1F3C013CE0532E57B810E115B914B982E00E945B1F6A0C7B1C680E791E15B8C7
:2045A000D8B8D7B8F4B8209058043090590480E00E945B1FEC01E8B8E7B804B9A090580416
:2045C000B090590481E00E945B1F7C0158B857B814B9009158041091590482E00E945B1FEF
:2045E000A20CB31CA00EB11EA81AB90AAE18BF08AC1ABD0A80915804909159047C01EE0CC0
:20460000FF1CE80EF91EE618F708EA18FB0800E010E088249924C401B30120E93AE140E07A
:2046200050E00E94192EA80197010E94582EE9013093600420935F04CC24DD24C601B50163
:2046400020E93AE140E050E00E94192EA80197010E94582EC90130935B0420935A0421E096
:204660008831920778F4CA3FD10560F48057954E9093210480932004C057D54ED0931B0454
:20468000C0931A0482E380935404DF91CF911F910F91FF90EF90DF90CF90BF90AF909F9020
:2046A0008F907F906F905F903F902F900895599890E05A9887FF02C05B9A01C05B985A9A7B
:2046C0009F5F983011F0880FF4CF0895599A90E05A9887FF02C05B9A01C05B985A9A9F5FE4
:2046E000983011F0880FF4CF08950F931F938C01862F80550E945723C80124E09595879560
:204700002A95E1F78F70805F0E945723802F8F700E9457231F910F91089580930604609341
:2047200007040E94752308950F931F9300E080E090E0602F0E948D2310E080E00E94662337
:204740001F5F1438D1F70F5F083089F71F910F9108958F929F92AF92BF92CF92DF92EF927D
:20476000FF920F931F93DF93CF93CDB7DEB729970FB6F894DEBF0FBECDBFA82FE982FA82A2
:204780000B831C83822F2D83232F3E83942F4F835887698748855985382F6B817C81922E59
:2047A000892EE981FA8190E00FC084913196A81751F4892F90E0849F9001859F300D949FCE
:2047C000300D112405C09F5F931778F320E030E0A92CBB247B01E20EF31ECC2424C0609189
:2047E00007046C0D8091060490E00E9475238701DD2414C0F8019491809108048111909521
:2048000080910904882321F0F1E0CF1609F49F77892F0E946623D3940F5F1F4FD91450F39F
:20482000C394EA0CFB1CC814D0F229960FB6F894DEBF0FBECDBFCF91DF911F910F91FF90C1
:20484000EF90DF90CF90BF90AF909F908F9008958F929F92AF92BF92CF92DF92EF92FF92CA
:204860000F931F93DF93CF93CDB7DEB729970FB6F894DEBF0FBECDBFDC01E982FA820B839E
:204880001C83822F2D833E834F835887698769817A8108851985582FEB80FC80932E842EC5
:2048A00040E020C0242F30E0FB01E20FF31FE4918C918E17B1F42F5F3F4F260F371FF90119
:2048C000949111968C911197891759F44695842F90E0809F9001819F300D909F300D1124AE
:2048E00005C04E5F4517F0F220E030E0A92CBB246701C20ED31EEE2417C0609107046E0DBB
:204900008091060490E00E9475238601FF2407C0F80184910E946623F3940F5F1F4FF914B8
:20492000B8F3E394CA0CDB1CE81438F329960FB6F894DEBF0FBECDBFCF91DF911F910F913B
:20494000FF90EF90DF90CF90BF90AF909F908F90089590E00E9475238FEF0E9466238FEF31
:204960000E9466238FEF0E9466230895CF92DF92EF92FF920F931F93CF93DF936C01C0E0AD
:20498000D0E041C0803BF0F0CF01E090C603F090C7030091C8031091C9032091CA03309170
:2049A000CB034091CC035091CD036091CE030E9428242296809106049091CB03890F8093BB
:2049C000060421C0E090A804F090A9040091AA041091AB042091AC043091AD044091AE04BE
:2049E0005091AF046091B0040E94A92321968091AD0490910604980F90930604883019F4D3
:204A00009F5F90930604F601EC0FFD1F8081882309F0B8CFDF91CF911F910F91FF90EF9003
:204A2000DF90CF9008950F931F93CF93DF93182F80910804882311F00FEF01C000E080E0D4
:204A400090E0612F0E947523C0E0D0E0802F0E9466232196C438D105C9F71F5F80E090E05B
:204A6000612F0E947523C0E0D0E0102F1F77812F0E9466232196C438D105C9F7DF91CF9153
:204A80001F910F9108950F931F93CF93DF938C0120E030E0A9014F5F5F4FF801E20FF31F62
:204AA0008081882311F09A01F5CFC0911203D09113032196C41BD50B43E0220F331F4A9512
:204AC000E1F7C21BD30BD695C795A8EAB4E0E4EBF3E089E001900D928150E1F781E08093FE
:204AE00008048093090480E00E941325CE0160E00E948D23C8010E94B6241092080410925A
:204B00000904DF91CF911F910F910895AF92BF92CF92DF92EF92FF920F931F93A82EB62E47
:204B2000142FD22E882331F489EA92E00E944325CC2406C08FEA92E00E94432553E0C52EA2
:204B40008CE190E064E00E948D23812F8F5CE090BD03F090BE030091BF031091C00320916E
:204B6000C1033091C2034091C3035091C4036091C5030E94A92381E590E062E00E948D231B
:204B80008D2D8F5CE090BD03F090BE030091BF031091C0032091C1033091C2034091C303B6
:204BA0005091C4036091C5030E94A92381E590E066E00E948D238B2D8F5CE090BD03F09065
:204BC000BE030091BF031091C0032091C1033091C2034091C3035091C4036091C5030E94C8
:204BE000A92387E290E065E00E948D23FF240C2D10E0005F1F4F04C080E10E946623F39489
:204C00008F2D90E008171907BCF78EE390E063E00E948D238FEF0E94662310E081E00E9464
:204C200066231F5F1231D1F78EE390E066E00E948D238FEF0E9466238EE390E067E00E9476
:204C40008D2310E081E00E9466231F5F1331D1F7AA2099F587E390E064E00E948D238BE764
:204C6000E090B403F090B5030091B6031091B7032091B8033091B9034091BA035091BB031A
:204C80006091BC030E94A9238FE390E064E00E948D238DE7E090B403F090B5030091B60361
:204CA0001091B7032091B8033091B9034091BA035091BB036091BC0318C08AE390E064E0DA
:204CC0000E948D2384E5E090BD03F090BE030091BF031091C0032091C1033091C203409125
:204CE000C3035091C4036091C5030E94A923A8EAB4E0E2EAF3E089E001900D928150E1F718
:204D00008DE290E064E00E948D2389EB92E00E94B62486E490E062E00E948D238BEB92E066
:204D20000E94B62486E490E066E00E948D238DEB92E00E94B6241F910F91FF90EF90DF9052
:204D4000CF90BF90AF900895AF92BF92CF92DF92EF92FF920F931F93DF93CF93CDB7DEB712
:204D6000E9970FB6F894DEBF0FBECDBFD82EB62E142FC22EA02EDE011496ECE9F3E086E0EA
:204D800001900D928150E1F7FE013A9680E3DF011D928A95E9F7A3ECB2E088E00D900192C1
:204DA0008150E1F7DE015296EBECF2E088E001900D928150E1F7DE015A96E3EDF2E088E0C0
:204DC00001900D928150E1F7DE019296EBEDF2E088E001900D928150E1F7DE019A96E3EE28
:204DE000F2E086E001900D928150E1F719AA18AADE01D296EBEEF2E086E001900D928150C4
:204E0000E1F719AE18AEDE011196E9E9F3E083E001900D928150E1F72D2D30E063E0220FE8
:204E2000331F6A95E1F7CE010A96820F931F0E94432580E090E064E00E948D23812F8F5C8C
:204E4000E090BD03F090BE030091BF031091C0032091C1033091C2034091C3035091C403F0
:204E60006091C5030E94A92387E390E062E00E948D238C2D8F5CE090BD03F090BE030091F7
:204E8000BF031091C0032091C1033091C2034091C3035091C4036091C5030E94A92387E321
:204EA00090E066E00E948D238B2D8F5CE090BD03F090BE030091BF031091C0032091C103AA
:204EC0003091C2034091C3035091C4036091C5030E94A9238BE090E065E00E948D2310E084
:204EE00080E10E9466231F5F1E30D1F782E290E063E00E948D238FEF0E94662310E081E02F
:204F00000E9466231F5F1431D1F782E290E066E00E948D238FEF0E94662382E290E067E0AB
:204F20000E948D2310E081E00E9466231F5F1531D1F789E190E064E00E948D23FE01ED0DAE
:204F4000F11D8481E090BD03F090BE030091BF031091C0032091C1033091C2034091C30384
:204F60005091C4036091C5030E94A923A8EAB4E0E2EAF3E089E001900D928150E1F781E1F9
:204F800090E064E00E948D2389EB92E00E94B6248AE290E062E00E948D238FEB92E00E94AB
:204FA000B6248AE290E066E00E948D2381EC92E00E94B624AA2009F457C0BEEFDB0E81E073
:204FC0008D1508F451C084E290E064E00E948D23FE01EA0DF11D8181E090AB03F090AC0363
:204FE0000091AD031091AE032091AF033091B0034091B1035091B2036091B3030E94A92317
:2050000081E290E063E00E948D2388E30E9466238FEF0E94662389E30E94662381E10E944E
:20502000662381E10E94662381E10E94662381EF0E94662381E290E066E00E948D238CE15A
:205040000E9466238FEF0E9466238CE10E94662388E00E94662388E00E94662388E00E94B4
:2050600066238FE00E946623E9960FB6F894DEBF0FBECDBFCF91DF911F910F91FF90EF9019
:20508000DF90CF90BF90AF900895BF92CF92DF92EF92FF920F931F93DF93CF9300D000D01A
:2050A000CDB7DEB7B82EC62E142FD22E8EE6898380E78A8385E58B8384E48C83BB2019F0F3
:2050C00082E0B81619F483EF92E008C0E1E0BE1619F0F3E0BF1621F487EF92E00E9443259A
:2050E00080E090E064E00E948D23812F8F5CE090BD03F090BE030091BF031091C0032091D6
:20510000C1033091C2034091C3035091C4036091C5030E94A92387E390E062E00E948D2371
:205120008D2D8F5CE090BD03F090BE030091BF031091C0032091C1033091C2034091C30310
:205140005091C4036091C5030E94A92387E390E066E00E948D238C2D8F5CE090BD03F090BA
:20516000BE030091BF031091C0032091C1033091C2034091C3035091C4036091C5030E9422
:20518000A9238BE090E065E00E948D2310E081E00E9466231F5F1E30D1F782E290E063E0AA
:2051A0000E948D238FEF0E94662310E081E00E9466231F5F1431D1F782E290E066E00E9431
:2051C0008D238FEF0E94662382E290E067E00E948D2310E081E00E9466231F5F1531D1F701
:2051E00089E190E064E00E948D23CB2CDD24F601E170F070EC0FFD1F8181E090BD03F090D6
:20520000BE030091BF031091C0032091C1033091C2034091C3035091C4036091C5030E9481
:20522000A923A8EAB4E0E2EAF3E089E001900D928150E1F781E190E064E00E948D238BEFB9
:2052400092E00E94B6248AE290E062E00E948D238DEF92E00E94B6248AE290E066E00E94C2
:205260008D238FEF92E00E94B6248EEFB80EE1E0EB1508F451C084E290E064E00E948D2395
:20528000CC0EDD1EF6018181E090AB03F090AC030091AD031091AE032091AF033091B00389
:2052A0004091B1035091B2036091B3030E94A92381E290E063E00E948D2388E30E946623C0
:2052C0008FEF0E94662389E30E94662381E10E94662381E10E94662381E10E94662381EF77
:2052E0000E94662381E290E066E00E948D238CE10E9466238FEF0E9466238CE10E9466233F
:2053000088E00E94662388E00E94662388E00E9466238FE00E9466230F900F900F900F90BE
:20532000CF91DF911F910F91FF90EF90DF90CF90BF9008950F931F93DF93CF93CDB7DEB744
:2053400060970FB6F894DEBF0FBECDBFDE011196E9E8F3E020E101900D922150E1F790E0FB
:20536000880F991F8E010F5F1F4F080F191FF801808190E065E00E948D238FEF0E9466237A
:20538000F801818190E065E00E948D238FEF0E94662360960FB6F894DEBF0FBECDBFCF91C5
:2053A000DF911F910F9108950F931F93DF93CF93CDB7DEB72C970FB6F894DEBF0FBECDBF45
:2053C000DE011196EDE7F3E02CE001900D922150E1F790E0880F991F8E010F5F1F4F080FDA
:2053E000191FF801808190E065E00E948D238FEF0E946623F801818190E065E00E948D23C9
:205400008FEF0E9466232C960FB6F894DEBF0FBECDBFCF91DF911F910F9108958F929F92CB
:20542000AF92BF92DF92EF92FF920F931F93DF93CF93CDB7DEB72E970FB6F894DEBF0FBE96
:20544000CDBF182FDE011996EFE5F3E086E001900D928150E1F7DE011496EAE5F3E085E075
:2054600001900D928150E1F7DE011196E7E5F3E083E001900D928150E1F7812F0E949A29DD
:20548000E12EFF248E010F5F1F4FF801EE0DFF1D808190E064E00E948D2388EF0E946623B6
:2054A000C701880F991F080F191FF801008510E004C088E00E9466231F5F1017D0F3DD2458
:2054C000B4E08B2E912C8C0E9D1EA9E0AA2EB12CAC0EBD1E0CC0F80181918F010E94662308
:2054E0000A151B05C1F7D394F4E0DF1611F08401F2CF8CE00E946623EE0CFF1CEC0EFD1E7D
:20550000F701028510E004C088E00E9466231F5F1017D0F388EF0E9466232E960FB6F894A6
:20552000DEBF0FBECDBFCF91DF911F910F91FF90EF90DF90BF90AF909F908F900895EF92DE
:20554000FF920F931F93DF93CF93CDB7DEB729970FB6F894DEBF0FBECDBFDE011196E4E523
:20556000F3E093E001900D929150E1F7DE011496E1E5F3E093E001900D929150E1F7DE019F
:205580001796EEE4F3E093E001900D929150E1F7082F10E0FE01E00FF11F848166E00E944B
:2055A0008D23FE01E00FF11FE180FF2404C080E40E946623F394FE14D0F30C0F1D1FF801BA
:2055C000878190E066E00E948D238CE7E090B403F090B5030091B6031091B7032091B803D8
:2055E0003091B9034091BA035091BB036091BC030E94A92329960FB6F894DEBF0FBECDBFDD
:20560000CF91DF911F910F91FF90EF9008950F931F93DF93CF9300D000D000D0CDB7DEB70E
:20562000DE011196EBE4F3E093E001900D929150E1F7DE011496E8E4F3E093E001900D921B
:205640009150E1F763E00E94382E192F892F0E949A29012F10E0FE01E00FF11F818190E051
:2056600064E00E948D230C0F1D1FF801048110E004C080E80E9466231F5F1017D0F3269654
:205680000FB6F894DEBF0FBECDBFCF91DF911F910F9108959F92AF92BF92CF92DF92EF92F0
:2056A000FF920F931F93DF93CF93CDB7DEB72C970FB6F894DEBF0FBECDBF982EDE011196C2
:2056C000E2E4F3E086E001900D928150E1F7DE011796ECE3F3E086E001900D928150E1F785
:2056E000A92CBB24C501880F991F8A0D9B1D6E010894C11CD11CC80ED91EF601808190E088
:2057000066810E948D2381E3E090BD03F090BE030091BF031091C0032091C1033091C203C9
:205720004091C3035091C4036091C5030E94A923F1E09F16D9F0F601818190E067810E94C1
:205740008D2382E3E090BD03F090BE030091BF031091C0032091C1033091C2034091C3037A
:205760005091C4036091C5030E94A923C501880F991F8A0D9B1DFE013196E80FF91F82811E
:2057800090E060850E948D2383E3E090BD03F090BE030091BF031091C0032091C10330919E
:2057A000C2034091C3035091C4036091C5030E94A9232C960FB6F894DEBF0FBECDBFCF9155
:2057C000DF911F910F91FF90EF90DF90CF90BF90AF909F900895EF92FF920F931F93DF93FB
:2057E000CF93CDB7DEB769970FB6F894DEBF0FBECDBFF82EDE011196E1E7F3E08CE00190A3
:205800000D928150E1F7DE011D96E5E6F3E08CE001900D928150E1F781E08F15B0F48F2D66
:205820000E94D429E2E0FE1681F485E090E064E00E948D238FEF0E9466238AE790E064E045
:205840000E948D238FEF0E94662380E00E944A2B0F2D10E0C801880F991FFE013196E80FD5
:20586000F91F808190E061810E948D23FF2DF250F98FF43040F0F801EE0FFF1FEC0FFD1FF6
:20588000E584FF2408C088EF0E946623F4CF88E00E946623F394FE14D0F38FE70E946623BF
:2058A000FF2481E40E946623F39485E1F816C9F78FE70E946623000F111F0C0F1D1FF8014A
:2058C000068510E004C088E00E9466231F5F1017D0F3F98DF43018F488EF0E946623699637
:2058E0000FB6F894DEBF0FBECDBFCF91DF911F910F91FF90EF900895882311F0813031F414
:205900000E94EB2B85E00E94EB2B089583E00E94EB2B84E00E94EB2B8EE390E064E00E9417
:205920008D238CE10E9466238CEF0E9466238CE10E9466230895A8EAB4E0EBEAF3E089E00D
:2059400001900D928150E1F781E0809308048093090482E690E060E00E948D2381E093E090
:205960000E94B62410920804109209040895DF92EF92FF920F931F93DF93CF93CDB7DEB7ED
:20598000A8970FB6F894DEBF0FBECDBF182FDE011996ECE2F3E080E101900D928150E1F7D1
:2059A000DE015996ECE1F3E080E101900D928150E1F7DE011196E4E1F3E088E001900D9289
:2059C0008150E1F7613019F40CE3D02E02C0BEE3DB2E123038F1812F0E949A29123059F418
:2059E00085E090E064E00E948D238FEF0E9466238FE390E011C0133019F48FE390E004C0EA
:205A0000143081F485E090E064E00E948D238FEF0E9466238AE790E064E00E948D238FEFC4
:205A20000E946623E12EFF24F701EE0FFF1F8E010F5F1F4FE00FF11F808590E061850E948F
:205A40008D230E0D1F1DF801008110E004C080E80E9466231F5F1017D0F3EE0CFF1CFE0102
:205A60003196EE0DFF1D808D90E0618D0E948D238D2DE090B403F090B5030091B603109187
:205A8000B7032091B8033091B9034091BA035091BB036091BC030E94A923A8960FB6F89489
:205AA000DEBF0FBECDBFCF91DF911F910F91FF90EF90DF900895EF92FF920F931F93DF93DE
:205AC000CF93CDB7DEB72A970FB6F894DEBF0FBECDBF7B018E010F5F1F4FB8014AE050E049
:205AE0000E94952EC8010E94B624C7010E94B6242A960FB6F894DEBF0FBECDBFCF91DF91E1
:205B00001F910F91FF90EF900895DF92EF92FF920F931F93D82E87E093E00E944325A8EA37
:205B2000B4E0E2EAF3E089E001900D928150E1F784E390E063E00E948D238D2D90E060E119
:205B400073E00E945B2D87E090E064E00E948D238EEF0E94662300E082E00E9466230F5FD8
:205B60000F36D1F78EEF0E94662387E090E065E00E948D238FE30E94662300E080E20E9481
:205B800066230F5F0F36D1F78FE30E946623EE24FF241CC00E2D10E0075F1F4FC80164E047
:205BA0000E948D238AEF0E946623C80165E00E948D238FE20E9466238F2D6AE00E94382EE5
:205BC000992311F4F110E394E394F394FD1410F31F910F91FF90EF90DF9008958AB18F60E6
:205BE0008AB958980E94F418589A0E94F41883EE0E94572382EA0E94572380EC0E94572387
:205C000080EA0E9457238FE20E94572384E20E94572381E80E94572387E20E94572388EF6E
:205C20000E94572380E00E9457238FEA0E9457230895629FD001739FF001829FE00DF11DA9
:205C4000649FE00DF11D929FF00D839FF00D749FF00D659FF00D9927729FB00DE11DF91F44
:205C6000639FB00DE11DF91FBD01CF0111240895991B79E004C0991F961708F0961B881F69
:205C80007A95C9F780950895AA1BBB1B51E107C0AA1FBB1FA617B70710F0A61BB70B881FA7
:205CA000991F5A95A9F780959095BC01CD010895A1E21A2EAA1BBB1BFD010DC0AA1FBB1F67
:205CC000EE1FFF1FA217B307E407F50720F0A21BB30BE40BF50B661F771F881F991F1A949D
:205CE00069F760957095809590959B01AC01BD01CF01089597FB092E05260ED057FD04D0A2
:205D0000D7DF0AD0001C38F450954095309521953F4F4F4F5F4F0895F6F7909580957095D3
:205D200061957F4F8F4F9F4F0895FB019F01423074F0453264F4642F77270E94442E805DD3
:205D40008A330CF0895D8193CB010097A1F71082C9010C94CC2EF999FECF92BD81BDF89A21
:205D6000992780B50895A8E1B0E042E050E00C94DE2E262FF999FECF1FBA92BD81BD20BD83
:205D80000FB6F894FA9AF99A0FBE019608950E94B92E272F0C94BA2EDC01FC01672F7191B1
:205DA0007723E1F7329704C07C916D9370836291AE17BF07C8F30895DC01CB01FC01F999D6
:205DC000FECF06C0F2BDE1BDF89A319600B40D9241505040B8F70895F894FFCF53656C66E6
:205DE000746573740050726570617265206120636170616369746F722C0043617061636950
:205E000074616E6365203E3130306E462E00506C732049736F6C6174652050726F62655E10
:205E20000020202020202020202020202020202020202000496E73657274207468652063C9
:205E40006170616369746F7200312D33203E3130306E46002020202020202020202020203B
:205E600020202020202020200020202020202020202020005465737420456E642E00556622
:205E8000313D005566323D0055663D0054696D656F75742E2E2E004D5465737465720054E9
:205EA000657374696E672E2E2E005065706C6163652074686520626174746572795E005BDF
:205EC000566261743D005D0053687574646F776E2E002E0044696F64650020433D0032200C
:205EE00044696F646573006846453D00433D00493D0056743D005667733D0052657369739A
:205F0000746F7200496E647563746F7200436170616369746F7200566C6F73733D00455362
:205F2000523D004E6F2C20756E6B6E6F776E206F720064616D6167656420706172742E00F0
:205F400052482D0052482B002B524C2D203132203133203233002B52482D2031322031333A
:205F60002032330052482F524C00706E216D004B4D74030E482B144E31050503104B4517E2
:205F80005125001F16547269616300546879726973746F7200470041004B004400530050D1
:205FA0002D442D4D4F53004E2D442D4D4F5300502D452D4D4F53004E2D452D4D4F5300506F
:205FC0004A4645540000004E4A4645540000004E504E00504E500042004300450056322EC7
:205FE00030370053656C667465737400250080002F303B3C763B3C761E065B061E035B030E
:206000003C031E045B043C040B06450605033F03050305043F040504060606060606003A1F
:2060200075003A753B3C76053F051E593C0B450B2F306A053F050C02010102121212132F5C
:20604000300C0C0C0D2E2F111111122E2F0B064506050305043F040504053F3F7A7A0505A6
:206060003F3F7A7A05053F3F7A053F3F7A7A05053F3F7A7A05205544446445654A6ADE0017
:2060800029014A06010600E502ED020706020C00410369032708021000D905E8050E0B02B7
:2060A00016001C071D0700100220001D072607081804600027072D07050F043C002E07325F
:2060C00007030802100033073807040802100039073D0703080210003E074407052002406D
:0260E0000000BE
:00000001FF
